{
    "contractName": "ElectionPortal",
    "abi": [
        {
            "inputs": [
                {
                    "internalType": "contract ERC20",
                    "name": "_tokenContract",
                    "type": "address"
                },
                {
                    "internalType": "contract ElectionAdministrator",
                    "name": "_administratorContract",
                    "type": "address"
                }
            ],
            "stateMutability": "nonpayable",
            "type": "constructor"
        },
        {
            "inputs": [
                {
                    "internalType": "contract Election",
                    "name": "election",
                    "type": "address"
                }
            ],
            "name": "addNewElection",
            "outputs": [],
            "stateMutability": "nonpayable",
            "type": "function"
        },
        {
            "inputs": [],
            "name": "getLatestElection",
            "outputs": [
                {
                    "internalType": "contract Election",
                    "name": "",
                    "type": "address"
                }
            ],
            "stateMutability": "view",
            "type": "function"
        }
    ],
    "bytecode": "608060405234801561001057600080fd5b506040516103d43803806103d483398101604081905261002f91610078565b600080546001600160a01b039384166001600160a01b031991821617909155600180549290931691161790556100b2565b6001600160a01b038116811461007557600080fd5b50565b6000806040838503121561008b57600080fd5b825161009681610060565b60208401519092506100a781610060565b809150509250929050565b610313806100c16000396000f3fe608060405234801561001057600080fd5b50600436106100365760003560e01c8063303f66b71461003b5780633266de5914610050575b600080fd5b61004e610049366004610250565b610074565b005b610058610176565b6040516001600160a01b03909116815260200160405180910390f35b600154604051630a2eb30160e01b81523360048201526001600160a01b0390911690630a2eb30190602401602060405180830381865afa1580156100bc573d6000803e3d6000fd5b505050506040513d601f19601f820116820180604052508101906100e09190610280565b6101245760405162461bcd60e51b81526020600482015260116024820152702737ba1020b236b4b734b9ba3930ba37b960791b604482015260640160405180910390fd5b600280546001810182556000919091527f405787fa12a823e0f2b7631cc41b3ba8828b3321ca811111fa75cd3aa3bb5ace0180546001600160a01b0319166001600160a01b0392909216919091179055565b600280546000919061018a906001906102a2565b8154811061019a5761019a6102c7565b600091825260209182902001546040805163941799dd60e01b815290516001600160a01b039092169263941799dd926004808401938290030181865afa1580156101e8573d6000803e3d6000fd5b505050506040513d601f19601f8201168201806040525081019061020c9190610280565b1561021657600080fd5b60028054610226906001906102a2565b81548110610236576102366102c7565b6000918252602090912001546001600160a01b0316919050565b60006020828403121561026257600080fd5b81356001600160a01b038116811461027957600080fd5b9392505050565b60006020828403121561029257600080fd5b8151801515811461027957600080fd5b6000828210156102c257634e487b7160e01b600052601160045260246000fd5b500390565b634e487b7160e01b600052603260045260246000fdfea26469706673582212204943988eee892b31ba96107572ea15c82e864808a1c2d64c1d38ea0fe780c59064736f6c634300080b0033",
    "sourcePath": "d:/Blockchain/Project/IS4302/contracts/ElectionPortal.sol",
    "compiler": {
        "name": "solc",
        "version": "0.8.11+commit.d7f03943"
    },
    "functionHashes": {
        "addNewElection(address)": "303f66b7",
        "getLatestElection()": "3266de59"
    },
    "gasEstimates": {
        "creation": {
            "codeDepositCost": "157400",
            "executionCost": "infinite",
            "totalCost": "infinite"
        },
        "external": {
            "addNewElection(address)": "infinite",
            "getLatestElection()": "infinite"
        }
    }
}