{
    "contractName": "Election",
    "abi": [
        {
            "inputs": [
                {
                    "internalType": "string",
                    "name": "_electionTitle",
                    "type": "string"
                },
                {
                    "internalType": "uint256",
                    "name": "_startDate",
                    "type": "uint256"
                },
                {
                    "internalType": "uint256",
                    "name": "_endDate",
                    "type": "uint256"
                },
                {
                    "internalType": "contract ElectionAdministrator",
                    "name": "_administratorContract",
                    "type": "address"
                }
            ],
            "stateMutability": "nonpayable",
            "type": "constructor"
        },
        {
            "inputs": [
                {
                    "internalType": "uint256",
                    "name": "newEndDate",
                    "type": "uint256"
                }
            ],
            "name": "changeEndDate",
            "outputs": [],
            "stateMutability": "nonpayable",
            "type": "function"
        },
        {
            "inputs": [
                {
                    "internalType": "uint256",
                    "name": "newStartDate",
                    "type": "uint256"
                }
            ],
            "name": "changeStartDate",
            "outputs": [],
            "stateMutability": "nonpayable",
            "type": "function"
        },
        {
            "inputs": [],
            "name": "checkEnded",
            "outputs": [
                {
                    "internalType": "bool",
                    "name": "",
                    "type": "bool"
                }
            ],
            "stateMutability": "view",
            "type": "function"
        },
        {
            "inputs": [],
            "name": "checkStarted",
            "outputs": [
                {
                    "internalType": "bool",
                    "name": "",
                    "type": "bool"
                }
            ],
            "stateMutability": "view",
            "type": "function"
        },
        {
            "inputs": [],
            "name": "endElection",
            "outputs": [],
            "stateMutability": "nonpayable",
            "type": "function"
        },
        {
            "inputs": [],
            "name": "getEndDate",
            "outputs": [
                {
                    "internalType": "uint256",
                    "name": "",
                    "type": "uint256"
                }
            ],
            "stateMutability": "view",
            "type": "function"
        },
        {
            "inputs": [],
            "name": "getStartDate",
            "outputs": [
                {
                    "internalType": "uint256",
                    "name": "",
                    "type": "uint256"
                }
            ],
            "stateMutability": "view",
            "type": "function"
        },
        {
            "inputs": [],
            "name": "startElection",
            "outputs": [],
            "stateMutability": "nonpayable",
            "type": "function"
        }
    ],
    "bytecode": "60806040523480156200001157600080fd5b5060405162000b0838038062000b08833981016040819052620000349162000271565b428311620000895760405162461bcd60e51b815260206004820152601d60248201527f4572726f722c205374617274204461746520686173207061737365642e00000060448201526064015b60405180910390fd5b828211620000ef5760405162461bcd60e51b815260206004820152602c60248201527f4572726f722c20456e6420446174652063616e6e6f74206265206265666f726560448201526b1039ba30b93a103230ba329760a11b606482015260840162000080565b60008451116200014d5760405162461bcd60e51b815260206004820152602260248201527f4572726f722c206d75737420696e636c75646520656c656374696f6e207469746044820152616c6560f01b606482015260840162000080565b83516200016290600190602087019062000198565b506004805461ffff19169055600080546001600160a01b0319166001600160a01b039290921691909117905550620003b3915050565b828054620001a69062000376565b90600052602060002090601f016020900481019282620001ca576000855562000215565b82601f10620001e557805160ff191683800117855562000215565b8280016001018555821562000215579182015b8281111562000215578251825591602001919060010190620001f8565b506200022392915062000227565b5090565b5b8082111562000223576000815560010162000228565b634e487b7160e01b600052604160045260246000fd5b80516001600160a01b03811681146200026c57600080fd5b919050565b600080600080608085870312156200028857600080fd5b84516001600160401b0380821115620002a057600080fd5b818701915087601f830112620002b557600080fd5b815181811115620002ca57620002ca6200023e565b604051601f8201601f19908116603f01168101908382118183101715620002f557620002f56200023e565b81604052828152602093508a848487010111156200031257600080fd5b600091505b8282101562000336578482018401518183018501529083019062000317565b82821115620003485760008484830101525b8098505050508087015194505050604085015191506200036b6060860162000254565b905092959194509250565b600181811c908216806200038b57607f821691505b60208210811415620003ad57634e487b7160e01b600052602260045260246000fd5b50919050565b61074580620003c36000396000f3fe608060405234801561001057600080fd5b50600436106100875760003560e01c806378f305c61161005b57806378f305c6146100c45780637dad94ce146100db578063941799dd146100f2578063b13564881461010257600080fd5b8062739f2a1461008c57806345737b1e146100a157806359f78468146100b457806362d73eb8146100bc575b600080fd5b61009f61009a3660046106a2565b61010a565b005b61009f6100af3660046106a2565b610242565b61009f610387565b61009f610548565b6002545b6040519081526020015b60405180910390f35b60045460ff165b60405190151581526020016100d2565b600454610100900460ff166100e2565b6003546100c8565b600054604051630a2eb30160e01b81523360048201526001600160a01b0390911690630a2eb30190602401602060405180830381865afa158015610152573d6000803e3d6000fd5b505050506040513d601f19601f8201168201806040525081019061017691906106bb565b61019b5760405162461bcd60e51b8152600401610192906106e4565b60405180910390fd5b60045460ff16156101ee5760405162461bcd60e51b815260206004820152601b60248201527f4572726f722c20656c656374696f6e20686173207374617274656400000000006044820152606401610192565b42811161023d5760405162461bcd60e51b815260206004820152601c60248201527f4572726f722c20537461727420446174652068617320706173736564000000006044820152606401610192565b600255565b600054604051630a2eb30160e01b81523360048201526001600160a01b0390911690630a2eb30190602401602060405180830381865afa15801561028a573d6000803e3d6000fd5b505050506040513d601f19601f820116820180604052508101906102ae91906106bb565b6102ca5760405162461bcd60e51b8152600401610192906106e4565b60045460ff161561031d5760405162461bcd60e51b815260206004820152601b60248201527f4572726f722c20656c656374696f6e20686173207374617274656400000000006044820152606401610192565b60025481116103825760405162461bcd60e51b815260206004820152602b60248201527f4572726f722c20456e6420446174652063616e6e6f74206265206265666f726560448201526a205374617274204461746560a81b6064820152608401610192565b600355565b600054604051630a2eb30160e01b81523360048201526001600160a01b0390911690630a2eb30190602401602060405180830381865afa1580156103cf573d6000803e3d6000fd5b505050506040513d601f19601f820116820180604052508101906103f391906106bb565b61040f5760405162461bcd60e51b8152600401610192906106e4565b60045460ff1615156001146104725760405162461bcd60e51b815260206004820152602360248201527f4572726f722c20656c656374696f6e20686173206e6f742073746172746564206044820152621e595d60ea1b6064820152608401610192565b600454610100900460ff16156104d45760405162461bcd60e51b815260206004820152602160248201527f4572726f722c20656c656374696f6e2068617320616c726561647920656e64656044820152601960fa1b6064820152608401610192565b6003544210156105375760405162461bcd60e51b815260206004820152602860248201527f4572726f722c20656e7375726520746f206f6e6c7920656e6420616674657220604482015267656e642074696d6560c01b6064820152608401610192565b6004805461ff001916610100179055565b600054604051630a2eb30160e01b81523360048201526001600160a01b0390911690630a2eb30190602401602060405180830381865afa158015610590573d6000803e3d6000fd5b505050506040513d601f19601f820116820180604052508101906105b491906106bb565b6105d05760405162461bcd60e51b8152600401610192906106e4565b60045460ff16156106415760405162461bcd60e51b815260206004820152603560248201527f4572726f722c2063616e6e6f7420737461727420656c656374696f6e207468616044820152741d081a185cc8185b1c9958591e481cdd185c9d1959605a1b6064820152608401610192565b6002544210156106935760405162461bcd60e51b815260206004820152601f60248201527f43616e206f6e6c792073746172742061667465722073746172742064617465006044820152606401610192565b6004805460ff19166001179055565b6000602082840312156106b457600080fd5b5035919050565b6000602082840312156106cd57600080fd5b815180151581146106dd57600080fd5b9392505050565b6020808252601190820152702737ba1020b236b4b734b9ba3930ba37b960791b60408201526060019056fea26469706673582212207d2bc249579bc9d688a13a09b5ad06e8341948a91f8413579a0608b7fbce2af064736f6c634300080b0033",
    "sourcePath": "d:/Blockchain/Project/IS4302/contracts/Election.sol",
    "compiler": {
        "name": "solc",
        "version": "0.8.11+commit.d7f03943"
    },
    "functionHashes": {
        "changeEndDate(uint256)": "45737b1e",
        "changeStartDate(uint256)": "00739f2a",
        "checkEnded()": "941799dd",
        "checkStarted()": "7dad94ce",
        "endElection()": "59f78468",
        "getEndDate()": "b1356488",
        "getStartDate()": "78f305c6",
        "startElection()": "62d73eb8"
    },
    "gasEstimates": {
        "creation": {
            "codeDepositCost": "372200",
            "executionCost": "infinite",
            "totalCost": "infinite"
        },
        "external": {
            "changeEndDate(uint256)": "infinite",
            "changeStartDate(uint256)": "infinite",
            "checkEnded()": "2359",
            "checkStarted()": "2315",
            "endElection()": "infinite",
            "getEndDate()": "2347",
            "getStartDate()": "2270",
            "startElection()": "infinite"
        }
    }
}