{
    "contractName": "VotingRegions",
    "abi": [
        {
            "inputs": [],
            "stateMutability": "nonpayable",
            "type": "constructor"
        },
        {
            "anonymous": false,
            "inputs": [
                {
                    "indexed": false,
                    "internalType": "string",
                    "name": "regionName",
                    "type": "string"
                },
                {
                    "indexed": false,
                    "internalType": "string",
                    "name": "regionCode",
                    "type": "string"
                }
            ],
            "name": "RegionAlreadyExists",
            "type": "event"
        },
        {
            "anonymous": false,
            "inputs": [
                {
                    "indexed": false,
                    "internalType": "string",
                    "name": "oldCode",
                    "type": "string"
                },
                {
                    "indexed": false,
                    "internalType": "string",
                    "name": "newCode",
                    "type": "string"
                }
            ],
            "name": "RegionCodeChanged",
            "type": "event"
        },
        {
            "anonymous": false,
            "inputs": [
                {
                    "indexed": false,
                    "internalType": "string",
                    "name": "regionName",
                    "type": "string"
                },
                {
                    "indexed": false,
                    "internalType": "string",
                    "name": "regionCode",
                    "type": "string"
                },
                {
                    "indexed": false,
                    "internalType": "string",
                    "name": "regionDescription",
                    "type": "string"
                },
                {
                    "indexed": false,
                    "internalType": "string",
                    "name": "RegionInformation",
                    "type": "string"
                }
            ],
            "name": "RegionCreated",
            "type": "event"
        },
        {
            "anonymous": false,
            "inputs": [
                {
                    "indexed": false,
                    "internalType": "string",
                    "name": "regionCode",
                    "type": "string"
                }
            ],
            "name": "RegionNotFound",
            "type": "event"
        },
        {
            "anonymous": false,
            "inputs": [
                {
                    "indexed": false,
                    "internalType": "string",
                    "name": "regionCode",
                    "type": "string"
                }
            ],
            "name": "RegionRemoved",
            "type": "event"
        },
        {
            "inputs": [
                {
                    "internalType": "string",
                    "name": "regionCode",
                    "type": "string"
                },
                {
                    "internalType": "string",
                    "name": "regionName",
                    "type": "string"
                },
                {
                    "internalType": "string",
                    "name": "regionDescription",
                    "type": "string"
                },
                {
                    "internalType": "string",
                    "name": "regionInformation",
                    "type": "string"
                }
            ],
            "name": "createRegion",
            "outputs": [],
            "stateMutability": "nonpayable",
            "type": "function"
        },
        {
            "inputs": [
                {
                    "internalType": "string",
                    "name": "regionCode",
                    "type": "string"
                }
            ],
            "name": "deleteRegion",
            "outputs": [],
            "stateMutability": "nonpayable",
            "type": "function"
        },
        {
            "inputs": [
                {
                    "internalType": "string",
                    "name": "regionCode",
                    "type": "string"
                },
                {
                    "internalType": "string",
                    "name": "_regionName",
                    "type": "string"
                },
                {
                    "internalType": "string",
                    "name": "_regionDescription",
                    "type": "string"
                },
                {
                    "internalType": "string",
                    "name": "_regionInformation",
                    "type": "string"
                }
            ],
            "name": "editRegion",
            "outputs": [],
            "stateMutability": "nonpayable",
            "type": "function"
        },
        {
            "inputs": [
                {
                    "internalType": "string",
                    "name": "oldCode",
                    "type": "string"
                },
                {
                    "internalType": "string",
                    "name": "newCode",
                    "type": "string"
                }
            ],
            "name": "editRegionCode",
            "outputs": [],
            "stateMutability": "nonpayable",
            "type": "function"
        },
        {
            "inputs": [
                {
                    "internalType": "string",
                    "name": "regionCode",
                    "type": "string"
                }
            ],
            "name": "getRegion",
            "outputs": [
                {
                    "components": [
                        {
                            "internalType": "string",
                            "name": "regionName",
                            "type": "string"
                        },
                        {
                            "internalType": "string",
                            "name": "regionCode",
                            "type": "string"
                        },
                        {
                            "internalType": "string",
                            "name": "regionDescription",
                            "type": "string"
                        },
                        {
                            "internalType": "string",
                            "name": "regionInformation",
                            "type": "string"
                        }
                    ],
                    "internalType": "struct VotingRegions.VotingRegion",
                    "name": "",
                    "type": "tuple"
                }
            ],
            "stateMutability": "view",
            "type": "function"
        },
        {
            "inputs": [],
            "name": "getRegions",
            "outputs": [
                {
                    "components": [
                        {
                            "internalType": "string",
                            "name": "regionName",
                            "type": "string"
                        },
                        {
                            "internalType": "string",
                            "name": "regionCode",
                            "type": "string"
                        },
                        {
                            "internalType": "string",
                            "name": "regionDescription",
                            "type": "string"
                        },
                        {
                            "internalType": "string",
                            "name": "regionInformation",
                            "type": "string"
                        }
                    ],
                    "internalType": "struct VotingRegions.VotingRegion[]",
                    "name": "",
                    "type": "tuple[]"
                }
            ],
            "stateMutability": "view",
            "type": "function"
        }
    ],
    "bytecode": "608060405234801561001057600080fd5b506117d6806100206000396000f3fe608060405234801561001057600080fd5b50600436106100625760003560e01c8063102ba1b21461006757806314b9290e1461007c57806332940ed01461008f5780639f5585a4146100a2578063b71b9dab146100b5578063d2aeb61c146100d3575b600080fd5b61007a6100753660046112d4565b6100f3565b005b61007a61008a366004611381565b610333565b61007a61009d3660046112d4565b610622565b61007a6100b03660046113be565b6108b0565b6100bd610a9e565b6040516100ca91906114da565b60405180910390f35b6100e66100e1366004611381565b610d45565b6040516100ca919061153c565b600154604051630a2eb30160e01b81523360048201526001600160a01b0390911690630a2eb30190602401602060405180830381865afa15801561013b573d6000803e3d6000fd5b505050506040513d601f19601f8201168201806040525081019061015f9190611556565b6101845760405162461bcd60e51b815260040161017b90611578565b60405180910390fd5b60005b6002548110156102f45773__$82460456285bfbb4cd1587cd7abf4bffcf$__6346bdca9a86600284815481106101bf576101bf6115a3565b90600052602060002090600402016001016040518363ffffffff1660e01b81526004016101ed9291906115f4565b602060405180830381865af415801561020a573d6000803e3d6000fd5b505050506040513d601f19601f8201168201806040525081019061022e9190611556565b156102e4578360028281548110610247576102476115a3565b9060005260206000209060040201600001908051906020019061026b9291906110e7565b508260028281548110610280576102806115a3565b906000526020600020906004020160020190805190602001906102a49291906110e7565b5081600282815481106102b9576102b96115a3565b906000526020600020906004020160030190805190602001906102dd9291906110e7565b505061032d565b6102ed816116c8565b9050610187565b507f57c4cb08acb6043b190301c8190dd4be49d068b92f6f12aacca49f7e267b18d98460405161032491906116e3565b60405180910390a15b50505050565b600154604051630a2eb30160e01b81523360048201526001600160a01b0390911690630a2eb30190602401602060405180830381865afa15801561037b573d6000803e3d6000fd5b505050506040513d601f19601f8201168201806040525081019061039f9190611556565b6103bb5760405162461bcd60e51b815260040161017b90611578565b60005b6002548110156105e65773__$82460456285bfbb4cd1587cd7abf4bffcf$__6346bdca9a83600284815481106103f6576103f66115a3565b90600052602060002090600402016001016040518363ffffffff1660e01b81526004016104249291906115f4565b602060405180830381865af4158015610441573d6000803e3d6000fd5b505050506040513d601f19601f820116820180604052508101906104659190611556565b156105d6576002805461047a906001906116f6565b8154811061048a5761048a6115a3565b9060005260206000209060040201600282815481106104ab576104ab6115a3565b906000526020600020906004020160008201816000019080546104cd906115b9565b6104d892919061116b565b5060018201816001019080546104ed906115b9565b6104f892919061116b565b50600282018160020190805461050d906115b9565b61051892919061116b565b50600382018160030190805461052d906115b9565b61053892919061116b565b50905050600280548061054d5761054d61170d565b6000828152602081206000199092019160048302019061056d82826111e6565b61057b6001830160006111e6565b6105896002830160006111e6565b6105976003830160006111e6565b505090557f27f9981adbb77f566891384ccf45dfc4e53ca5fad3101a2340b56d5e59a9e738826040516105ca91906116e3565b60405180910390a15050565b6105df816116c8565b90506103be565b507f57c4cb08acb6043b190301c8190dd4be49d068b92f6f12aacca49f7e267b18d98160405161061691906116e3565b60405180910390a15b50565b600154604051630a2eb30160e01b81523360048201526001600160a01b0390911690630a2eb30190602401602060405180830381865afa15801561066a573d6000803e3d6000fd5b505050506040513d601f19601f8201168201806040525081019061068e9190611556565b6106aa5760405162461bcd60e51b815260040161017b90611578565b60005b6002548110156107a85773__$82460456285bfbb4cd1587cd7abf4bffcf$__6346bdca9a86600284815481106106e5576106e56115a3565b90600052602060002090600402016001016040518363ffffffff1660e01b81526004016107139291906115f4565b602060405180830381865af4158015610730573d6000803e3d6000fd5b505050506040513d601f19601f820116820180604052508101906107549190611556565b15610798577fd28fe8c227591c48ebc9c7198ee175132966aa055110b5d63f371ac41303948e848660405161078a929190611723565b60405180910390a15061032d565b6107a1816116c8565b90506106ad565b506040805160808101825284815260208082018790529181018490526060810183905260028054600181018255600091909152815180519293849360049093027f405787fa12a823e0f2b7631cc41b3ba8828b3321ca811111fa75cd3aa3bb5ace019261081892849201906110e7565b50602082810151805161083192600185019201906110e7565b506040820151805161084d9160028401916020909101906110e7565b50606082015180516108699160038401916020909101906110e7565b5050507fcf2ff492e591cd1142313e7582b8bed831d19d5323fde5b0253e53ef79d4f6fb848685856040516108a19493929190611748565b60405180910390a15050505050565b600154604051630a2eb30160e01b81523360048201526001600160a01b0390911690630a2eb30190602401602060405180830381865afa1580156108f8573d6000803e3d6000fd5b505050506040513d601f19601f8201168201806040525081019061091c9190611556565b6109385760405162461bcd60e51b815260040161017b90611578565b60005b600254811015610a6e5773__$82460456285bfbb4cd1587cd7abf4bffcf$__6346bdca9a8460028481548110610973576109736115a3565b90600052602060002090600402016001016040518363ffffffff1660e01b81526004016109a19291906115f4565b602060405180830381865af41580156109be573d6000803e3d6000fd5b505050506040513d601f19601f820116820180604052508101906109e29190611556565b15610a5e5781600282815481106109fb576109fb6115a3565b90600052602060002090600402016001019080519060200190610a1f9291906110e7565b507fd83b45636173a0381787f76b23f1bc100af83d2b6c101f49d3fcdde0a0ea5cb78383604051610a51929190611723565b60405180910390a1505050565b610a67816116c8565b905061093b565b507f57c4cb08acb6043b190301c8190dd4be49d068b92f6f12aacca49f7e267b18d9826040516105ca91906116e3565b60606002805480602002602001604051908101604052809291908181526020016000905b82821015610d3c5783829060005260206000209060040201604051806080016040529081600082018054610af5906115b9565b80601f0160208091040260200160405190810160405280929190818152602001828054610b21906115b9565b8015610b6e5780601f10610b4357610100808354040283529160200191610b6e565b820191906000526020600020905b815481529060010190602001808311610b5157829003601f168201915b50505050508152602001600182018054610b87906115b9565b80601f0160208091040260200160405190810160405280929190818152602001828054610bb3906115b9565b8015610c005780601f10610bd557610100808354040283529160200191610c00565b820191906000526020600020905b815481529060010190602001808311610be357829003601f168201915b50505050508152602001600282018054610c19906115b9565b80601f0160208091040260200160405190810160405280929190818152602001828054610c45906115b9565b8015610c925780601f10610c6757610100808354040283529160200191610c92565b820191906000526020600020905b815481529060010190602001808311610c7557829003601f168201915b50505050508152602001600382018054610cab906115b9565b80601f0160208091040260200160405190810160405280929190818152602001828054610cd7906115b9565b8015610d245780601f10610cf957610100808354040283529160200191610d24565b820191906000526020600020905b815481529060010190602001808311610d0757829003601f168201915b50505050508152505081526020019060010190610ac2565b50505050905090565b610d706040518060800160405280606081526020016060815260200160608152602001606081525090565b60005b6002548110156110ab5773__$82460456285bfbb4cd1587cd7abf4bffcf$__6346bdca9a8460028481548110610dab57610dab6115a3565b90600052602060002090600402016001016040518363ffffffff1660e01b8152600401610dd99291906115f4565b602060405180830381865af4158015610df6573d6000803e3d6000fd5b505050506040513d601f19601f82011682018060405250810190610e1a9190611556565b1561109b5760028181548110610e3257610e326115a3565b9060005260206000209060040201604051806080016040529081600082018054610e5b906115b9565b80601f0160208091040260200160405190810160405280929190818152602001828054610e87906115b9565b8015610ed45780601f10610ea957610100808354040283529160200191610ed4565b820191906000526020600020905b815481529060010190602001808311610eb757829003601f168201915b50505050508152602001600182018054610eed906115b9565b80601f0160208091040260200160405190810160405280929190818152602001828054610f19906115b9565b8015610f665780601f10610f3b57610100808354040283529160200191610f66565b820191906000526020600020905b815481529060010190602001808311610f4957829003601f168201915b50505050508152602001600282018054610f7f906115b9565b80601f0160208091040260200160405190810160405280929190818152602001828054610fab906115b9565b8015610ff85780601f10610fcd57610100808354040283529160200191610ff8565b820191906000526020600020905b815481529060010190602001808311610fdb57829003601f168201915b50505050508152602001600382018054611011906115b9565b80601f016020809104026020016040519081016040528092919081815260200182805461103d906115b9565b801561108a5780601f1061105f5761010080835404028352916020019161108a565b820191906000526020600020905b81548152906001019060200180831161106d57829003601f168201915b505050505081525050915050919050565b6110a4816116c8565b9050610d73565b5060405162461bcd60e51b815260206004820152601060248201526f149959da5bdb881b9bdd08199bdd5b9960821b604482015260640161017b565b8280546110f3906115b9565b90600052602060002090601f016020900481019282611115576000855561115b565b82601f1061112e57805160ff191683800117855561115b565b8280016001018555821561115b579182015b8281111561115b578251825591602001919060010190611140565b5061116792915061121c565b5090565b828054611177906115b9565b90600052602060002090601f016020900481019282611199576000855561115b565b82601f106111aa578054855561115b565b8280016001018555821561115b57600052602060002091601f016020900482015b8281111561115b5782548255916001019190600101906111cb565b5080546111f2906115b9565b6000825580601f10611202575050565b601f01602090049060005260206000209081019061061f91905b5b80821115611167576000815560010161121d565b634e487b7160e01b600052604160045260246000fd5b600082601f83011261125857600080fd5b813567ffffffffffffffff8082111561127357611273611231565b604051601f8301601f19908116603f0116810190828211818310171561129b5761129b611231565b816040528381528660208588010111156112b457600080fd5b836020870160208301376000602085830101528094505050505092915050565b600080600080608085870312156112ea57600080fd5b843567ffffffffffffffff8082111561130257600080fd5b61130e88838901611247565b9550602087013591508082111561132457600080fd5b61133088838901611247565b9450604087013591508082111561134657600080fd5b61135288838901611247565b9350606087013591508082111561136857600080fd5b5061137587828801611247565b91505092959194509250565b60006020828403121561139357600080fd5b813567ffffffffffffffff8111156113aa57600080fd5b6113b684828501611247565b949350505050565b600080604083850312156113d157600080fd5b823567ffffffffffffffff808211156113e957600080fd5b6113f586838701611247565b9350602085013591508082111561140b57600080fd5b5061141885828601611247565b9150509250929050565b6000815180845260005b818110156114485760208185018101518683018201520161142c565b8181111561145a576000602083870101525b50601f01601f19169290920160200192915050565b60008151608084526114846080850182611422565b90506020830151848203602086015261149d8282611422565b915050604083015184820360408601526114b78282611422565b915050606083015184820360608601526114d18282611422565b95945050505050565b6000602080830181845280855180835260408601915060408160051b870101925083870160005b8281101561152f57603f1988860301845261151d85835161146f565b94509285019290850190600101611501565b5092979650505050505050565b60208152600061154f602083018461146f565b9392505050565b60006020828403121561156857600080fd5b8151801515811461154f57600080fd5b6020808252601190820152702737ba1020b236b4b734b9ba3930ba37b960791b604082015260600190565b634e487b7160e01b600052603260045260246000fd5b600181811c908216806115cd57607f821691505b602082108114156115ee57634e487b7160e01b600052602260045260246000fd5b50919050565b6040815260006116076040830185611422565b6020838203818501526000855481600182811c91508083168061162b57607f831692505b85831081141561164957634e487b7160e01b85526022600452602485fd5b8287526020870196508080156116665760018114611677576116a2565b60ff198516885286880195506116a2565b60008b81526020902060005b8581101561169c5781548a820152908401908801611683565b89019650505b50939a9950505050505050505050565b634e487b7160e01b600052601160045260246000fd5b60006000198214156116dc576116dc6116b2565b5060010190565b60208152600061154f6020830184611422565b600082821015611708576117086116b2565b500390565b634e487b7160e01b600052603160045260246000fd5b6040815260006117366040830185611422565b82810360208401526114d18185611422565b60808152600061175b6080830187611422565b828103602084015261176d8187611422565b905082810360408401526117818186611422565b905082810360608401526117958185611422565b97965050505050505056fea2646970667358221220c3cc2a398e2109a1e2b7d7a1b4c103baa095a077c655d4fa01323491ab86296d64736f6c634300080b0033",
    "sourcePath": "d:/Blockchain/Project/IS4302/contracts/VotingRegions.sol",
    "compiler": {
        "name": "solc",
        "version": "0.8.11+commit.d7f03943"
    },
    "functionHashes": {
        "createRegion(string,string,string,string)": "32940ed0",
        "deleteRegion(string)": "14b9290e",
        "editRegion(string,string,string,string)": "102ba1b2",
        "editRegionCode(string,string)": "9f5585a4",
        "getRegion(string)": "d2aeb61c",
        "getRegions()": "b71b9dab"
    },
    "gasEstimates": {
        "creation": {
            "codeDepositCost": "1220400",
            "executionCost": "1268",
            "totalCost": "1221668"
        },
        "external": {
            "createRegion(string,string,string,string)": "infinite",
            "deleteRegion(string)": "infinite",
            "editRegion(string,string,string,string)": "infinite",
            "editRegionCode(string,string)": "infinite",
            "getRegion(string)": "infinite",
            "getRegions()": "infinite"
        }
    }
}