{
  "contractName": "ElectionPortal",
  "abi": [
    {
      "inputs": [
        {
          "internalType": "contract ElectionAdministrator",
          "name": "_administratorContract",
          "type": "address"
        }
      ],
      "stateMutability": "nonpayable",
      "type": "constructor"
    },
    {
      "anonymous": false,
      "inputs": [],
      "name": "ElectionAdded",
      "type": "event"
    },
    {
      "inputs": [
        {
          "internalType": "contract Election",
          "name": "election",
          "type": "address"
        },
        {
          "internalType": "uint16",
          "name": "year",
          "type": "uint16"
        }
      ],
      "name": "addNewElection",
      "outputs": [],
      "stateMutability": "nonpayable",
      "type": "function"
    },
    {
      "inputs": [],
      "name": "getLatestElection",
      "outputs": [
        {
          "internalType": "contract Election",
          "name": "",
          "type": "address"
        }
      ],
      "stateMutability": "view",
      "type": "function"
    },
    {
      "inputs": [
        {
          "internalType": "uint16",
          "name": "year",
          "type": "uint16"
        }
      ],
      "name": "getElection",
      "outputs": [
        {
          "internalType": "contract Election",
          "name": "",
          "type": "address"
        }
      ],
      "stateMutability": "view",
      "type": "function"
    }
  ],
  "bytecode": "0x608060405234801561001057600080fd5b50604051610ad9380380610ad9833981810160405281019061003291906100ab565b806000806101000a81548173ffffffffffffffffffffffffffffffffffffffff021916908373ffffffffffffffffffffffffffffffffffffffff1602179055506000600260006101000a81548161ffff021916908361ffff1602179055505061012f565b6000815190506100a581610118565b92915050565b6000602082840312156100bd57600080fd5b60006100cb84828501610096565b91505092915050565b60006100df826100f8565b9050919050565b60006100f1826100d4565b9050919050565b600073ffffffffffffffffffffffffffffffffffffffff82169050919050565b610121816100e6565b811461012c57600080fd5b50565b61099b8061013e6000396000f3fe608060405234801561001057600080fd5b506004361061005e576000357c0100000000000000000000000000000000000000000000000000000000900480633266de5914610063578063caae512714610081578063f15eb2ad1461009d575b600080fd5b61006b6100cd565b6040516100789190610832565b60405180910390f35b61009b60048036038101906100969190610714565b6102fe565b005b6100b760048036038101906100b29190610750565b6104a9565b6040516100c49190610832565b60405180910390f35b60008073ffffffffffffffffffffffffffffffffffffffff1660016000600260009054906101000a900461ffff1661ffff1661ffff16815260200190815260200160002060009054906101000a900473ffffffffffffffffffffffffffffffffffffffff1673ffffffffffffffffffffffffffffffffffffffff161415610189576040517f08c379a00000000000000000000000000000000000000000000000000000000081526004016101809061086d565b60405180910390fd5b60016000600260009054906101000a900461ffff1661ffff1661ffff16815260200190815260200160002060009054906101000a900473ffffffffffffffffffffffffffffffffffffffff1673ffffffffffffffffffffffffffffffffffffffff16631d57a64f6040518163ffffffff167c010000000000000000000000000000000000000000000000000000000002815260040160206040518083038186803b15801561023657600080fd5b505afa15801561024a573d6000803e3d6000fd5b505050506040513d601f19601f8201168201806040525081019061026e91906106eb565b6102ad576040517f08c379a00000000000000000000000000000000000000000000000000000000081526004016102a49061086d565b60405180910390fd5b60016000600260009054906101000a900461ffff1661ffff1661ffff16815260200190815260200160002060009054906101000a900473ffffffffffffffffffffffffffffffffffffffff16905090565b60008054906101000a900473ffffffffffffffffffffffffffffffffffffffff1673ffffffffffffffffffffffffffffffffffffffff16630a2eb301336040518263ffffffff167c01000000000000000000000000000000000000000000000000000000000281526004016103739190610817565b60206040518083038186803b15801561038b57600080fd5b505afa15801561039f573d6000803e3d6000fd5b505050506040513d601f19601f820116820180604052508101906103c391906106eb565b610402576040517f08c379a00000000000000000000000000000000000000000000000000000000081526004016103f99061084d565b60405180910390fd5b81600160008361ffff1661ffff16815260200190815260200160002060006101000a81548173ffffffffffffffffffffffffffffffffffffffff021916908373ffffffffffffffffffffffffffffffffffffffff16021790555080600260006101000a81548161ffff021916908361ffff1602179055507fa25dfccfe9f6c76fba4a5f6f0450800b569ab05acade50247a5f238b18046a3c60405160405180910390a15050565b60008073ffffffffffffffffffffffffffffffffffffffff16600160008461ffff1661ffff16815260200190815260200160002060009054906101000a900473ffffffffffffffffffffffffffffffffffffffff1673ffffffffffffffffffffffffffffffffffffffff161415610555576040517f08c379a000000000000000000000000000000000000000000000000000000000815260040161054c9061086d565b60405180910390fd5b600160008361ffff1661ffff16815260200190815260200160002060009054906101000a900473ffffffffffffffffffffffffffffffffffffffff1673ffffffffffffffffffffffffffffffffffffffff16631d57a64f6040518163ffffffff167c010000000000000000000000000000000000000000000000000000000002815260040160206040518083038186803b1580156105f257600080fd5b505afa158015610606573d6000803e3d6000fd5b505050506040513d601f19601f8201168201806040525081019061062a91906106eb565b610669576040517f08c379a00000000000000000000000000000000000000000000000000000000081526004016106609061086d565b60405180910390fd5b600160008361ffff1661ffff16815260200190815260200160002060009054906101000a900473ffffffffffffffffffffffffffffffffffffffff169050919050565b6000815190506106bb81610920565b92915050565b6000813590506106d081610937565b92915050565b6000813590506106e58161094e565b92915050565b6000602082840312156106fd57600080fd5b600061070b848285016106ac565b91505092915050565b6000806040838503121561072757600080fd5b6000610735858286016106c1565b9250506020610746858286016106d6565b9150509250929050565b60006020828403121561076257600080fd5b6000610770848285016106d6565b91505092915050565b6107828161089e565b82525050565b610791816108fc565b82525050565b60006107a460118361088d565b91507f4e6f742041646d696e6973747261746f720000000000000000000000000000006000830152602082019050919050565b60006107e460178361088d565b91507f456c656374696f6e20646f6573206e6f742065786973740000000000000000006000830152602082019050919050565b600060208201905061082c6000830184610779565b92915050565b60006020820190506108476000830184610788565b92915050565b6000602082019050818103600083015261086681610797565b9050919050565b60006020820190508181036000830152610886816107d7565b9050919050565b600082825260208201905092915050565b60006108a9826108dc565b9050919050565b60008115159050919050565b60006108c78261089e565b9050919050565b600061ffff82169050919050565b600073ffffffffffffffffffffffffffffffffffffffff82169050919050565b60006109078261090e565b9050919050565b6000610919826108dc565b9050919050565b610929816108b0565b811461093457600080fd5b50565b610940816108bc565b811461094b57600080fd5b50565b610957816108ce565b811461096257600080fd5b5056fea26469706673582212209fc2f0158215bf3381040e398f4fdfd41a56502e3b784489fac332243d1f104c64736f6c63430008000033",
  "immutableReferences": {},
  "source": "// SPDX-License-Identifier: UNLICENSED\npragma solidity ^0.8.0;\n\nimport \"./Election.sol\";\nimport \"./ElectionAdministrator.sol\";\nimport \"./VotingRegions.sol\";\n\ncontract ElectionPortal {\n    ElectionAdministrator private administratorContract;\n\n    mapping (uint16 => Election) private elections;\n    uint16 private latestElection;\n\n    event ElectionAdded(); // for unit testing\n\n    modifier adminOnly {\n        require(administratorContract.isAdministrator(msg.sender), \"Not Administrator\");\n        _;\n    }\n\n    constructor(ElectionAdministrator _administratorContract) {\n        administratorContract = _administratorContract;\n        latestElection = 0;\n    }\n\n\n    function addNewElection(Election election, uint16 year) public adminOnly { //Assumption: new elections are only added once it is confirmed\n        elections[year] = election;\n        latestElection = year;\n        emit ElectionAdded();\n    }\n\n    function getLatestElection() public view returns (Election) {\n        require(address(elections[latestElection]) != address(0), \"Election does not exist\");\n        require(elections[latestElection].checkExists(), \"Election does not exist\");\n        return elections[latestElection];\n    }\n\n    function getElection(uint16 year) public view returns (Election) {\n        require(address(elections[year]) != address(0), \"Election does not exist\");\n        require(elections[year].checkExists(), \"Election does not exist\");\n        return elections[year];\n    }\n}",
  "sourcePath": "/Users/USER/Library/Mobile Documents/com~apple~CloudDocs/school/IS4302/project/IS4302/contracts/ElectionPortal.sol",
  "compiler": {
    "name": "solc",
    "version": "0.8.0+commit.c7dfd78e.Emscripten.clang"
  },
  "schemaVersion": "3.4.4",
  "updatedAt": "2022-04-08T12:41:57.573Z",
  "devdoc": {
    "kind": "dev",
    "methods": {},
    "version": 1
  },
  "userdoc": {
    "kind": "user",
    "methods": {},
    "version": 1
  }
}