{
  "contractName": "ElectionAdministrator",
  "abi": [
    {
      "inputs": [],
      "stateMutability": "nonpayable",
      "type": "constructor"
    },
    {
      "anonymous": false,
      "inputs": [
        {
          "indexed": false,
          "internalType": "address",
          "name": "newAdministrator",
          "type": "address"
        },
        {
          "indexed": false,
          "internalType": "address",
          "name": "addedBy",
          "type": "address"
        }
      ],
      "name": "AdministratorAdded",
      "type": "event"
    },
    {
      "anonymous": false,
      "inputs": [
        {
          "indexed": false,
          "internalType": "address",
          "name": "administrator",
          "type": "address"
        }
      ],
      "name": "AdministratorAlreadyExists",
      "type": "event"
    },
    {
      "anonymous": false,
      "inputs": [
        {
          "indexed": false,
          "internalType": "address",
          "name": "administratorToRemove",
          "type": "address"
        },
        {
          "indexed": false,
          "internalType": "address",
          "name": "removedBy",
          "type": "address"
        },
        {
          "indexed": false,
          "internalType": "address",
          "name": "approvedBy",
          "type": "address"
        }
      ],
      "name": "AdministratorApprovedRemoval",
      "type": "event"
    },
    {
      "anonymous": false,
      "inputs": [
        {
          "indexed": false,
          "internalType": "address",
          "name": "adminisrtrator",
          "type": "address"
        }
      ],
      "name": "AdministratorDoesNotExist",
      "type": "event"
    },
    {
      "anonymous": false,
      "inputs": [
        {
          "indexed": false,
          "internalType": "address",
          "name": "administratorToRemove",
          "type": "address"
        },
        {
          "indexed": false,
          "internalType": "address",
          "name": "removedBy",
          "type": "address"
        },
        {
          "indexed": false,
          "internalType": "address",
          "name": "rejectedBy",
          "type": "address"
        }
      ],
      "name": "AdministratorRejectRemoval",
      "type": "event"
    },
    {
      "anonymous": false,
      "inputs": [
        {
          "indexed": false,
          "internalType": "address",
          "name": "administratorToRemove",
          "type": "address"
        },
        {
          "indexed": false,
          "internalType": "address",
          "name": "removedBy",
          "type": "address"
        }
      ],
      "name": "AdministratorSetPendingRemoval",
      "type": "event"
    },
    {
      "anonymous": false,
      "inputs": [
        {
          "indexed": false,
          "internalType": "address",
          "name": "administrator",
          "type": "address"
        }
      ],
      "name": "AlreadyPendingRemoval",
      "type": "event"
    },
    {
      "inputs": [
        {
          "internalType": "address",
          "name": "newAdministrator",
          "type": "address"
        }
      ],
      "name": "addAdministrator",
      "outputs": [],
      "stateMutability": "nonpayable",
      "type": "function"
    },
    {
      "inputs": [
        {
          "internalType": "address",
          "name": "administratorToRemove",
          "type": "address"
        }
      ],
      "name": "setPendingRemoval",
      "outputs": [],
      "stateMutability": "nonpayable",
      "type": "function"
    },
    {
      "inputs": [
        {
          "internalType": "address",
          "name": "administratorToRemove",
          "type": "address"
        }
      ],
      "name": "approveRemoval",
      "outputs": [],
      "stateMutability": "nonpayable",
      "type": "function"
    },
    {
      "inputs": [
        {
          "internalType": "address",
          "name": "administratorToRemove",
          "type": "address"
        }
      ],
      "name": "rejectRemoval",
      "outputs": [],
      "stateMutability": "nonpayable",
      "type": "function"
    },
    {
      "inputs": [
        {
          "internalType": "address",
          "name": "check",
          "type": "address"
        }
      ],
      "name": "isAdministrator",
      "outputs": [
        {
          "internalType": "bool",
          "name": "",
          "type": "bool"
        }
      ],
      "stateMutability": "view",
      "type": "function",
      "constant": true
    }
  ],
  "bytecode": "0x608060405234801561001057600080fd5b5060016000803373ffffffffffffffffffffffffffffffffffffffff1673ffffffffffffffffffffffffffffffffffffffff16815260200190815260200160002060006101000a81548160ff021916908315150217905550611038806100776000396000f3fe608060405234801561001057600080fd5b5060043610610074576000357c0100000000000000000000000000000000000000000000000000000000900480630a2eb301146100795780635f2ad346146100a95780637cd1a6f4146100c5578063c9991176146100e1578063dfe173bf146100fd575b600080fd5b610093600480360381019061008e9190610ccd565b610119565b6040516100a09190610f01565b60405180910390f35b6100c360048036038101906100be9190610ccd565b61016e565b005b6100df60048036038101906100da9190610ccd565b610411565b005b6100fb60048036038101906100f69190610ccd565b610821565b005b61011760048036038101906101129190610ccd565b6109cd565b005b60008060008373ffffffffffffffffffffffffffffffffffffffff1673ffffffffffffffffffffffffffffffffffffffff16815260200190815260200160002060009054906101000a900460ff169050919050565b6000803373ffffffffffffffffffffffffffffffffffffffff1673ffffffffffffffffffffffffffffffffffffffff16815260200190815260200160002060009054906101000a900460ff166101f9576040517f08c379a00000000000000000000000000000000000000000000000000000000081526004016101f090610f7c565b60405180910390fd5b6000808273ffffffffffffffffffffffffffffffffffffffff1673ffffffffffffffffffffffffffffffffffffffff16815260200190815260200160002060009054906101000a900460ff16156103d657600073ffffffffffffffffffffffffffffffffffffffff16600160008373ffffffffffffffffffffffffffffffffffffffff1673ffffffffffffffffffffffffffffffffffffffff16815260200190815260200160002060009054906101000a900473ffffffffffffffffffffffffffffffffffffffff1673ffffffffffffffffffffffffffffffffffffffff1614610319577f7af6935eca0021c622a9b310853b8717b06dcb814d9b0ee08149bdd23fc463208160405161030c9190610e86565b60405180910390a16103d1565b33600160008373ffffffffffffffffffffffffffffffffffffffff1673ffffffffffffffffffffffffffffffffffffffff16815260200190815260200160002060006101000a81548173ffffffffffffffffffffffffffffffffffffffff021916908373ffffffffffffffffffffffffffffffffffffffff1602179055507fac6645cdf63771fc26f17ab531b505c090b210ac21c5e280411ff61de45b9d4a81336040516103c8929190610ea1565b60405180910390a15b61040e565b7f6623e8a85267948cc5b356f91ad62fbd2cfc24f6ee03cf75c844134bc1d8034e816040516104059190610e86565b60405180910390a15b50565b6000803373ffffffffffffffffffffffffffffffffffffffff1673ffffffffffffffffffffffffffffffffffffffff16815260200190815260200160002060009054906101000a900460ff1661049c576040517f08c379a000000000000000000000000000000000000000000000000000000000815260040161049390610f7c565b60405180910390fd5b8073ffffffffffffffffffffffffffffffffffffffff163373ffffffffffffffffffffffffffffffffffffffff16141561050b576040517f08c379a000000000000000000000000000000000000000000000000000000000815260040161050290610f1c565b60405180910390fd5b3373ffffffffffffffffffffffffffffffffffffffff16600160008373ffffffffffffffffffffffffffffffffffffffff1673ffffffffffffffffffffffffffffffffffffffff16815260200190815260200160002060009054906101000a900473ffffffffffffffffffffffffffffffffffffffff1673ffffffffffffffffffffffffffffffffffffffff1614156105d9576040517f08c379a00000000000000000000000000000000000000000000000000000000081526004016105d090610f3c565b60405180910390fd5b600073ffffffffffffffffffffffffffffffffffffffff16600160008373ffffffffffffffffffffffffffffffffffffffff1673ffffffffffffffffffffffffffffffffffffffff16815260200190815260200160002060009054906101000a900473ffffffffffffffffffffffffffffffffffffffff1673ffffffffffffffffffffffffffffffffffffffff1614156106a8576040517f08c379a000000000000000000000000000000000000000000000000000000000815260040161069f90610f5c565b60405180910390fd5b6000600160008373ffffffffffffffffffffffffffffffffffffffff1673ffffffffffffffffffffffffffffffffffffffff16815260200190815260200160002060009054906101000a900473ffffffffffffffffffffffffffffffffffffffff16905060008060008473ffffffffffffffffffffffffffffffffffffffff1673ffffffffffffffffffffffffffffffffffffffff16815260200190815260200160002060006101000a81548160ff0219169083151502179055506000600160008473ffffffffffffffffffffffffffffffffffffffff1673ffffffffffffffffffffffffffffffffffffffff16815260200190815260200160002060006101000a81548173ffffffffffffffffffffffffffffffffffffffff021916908373ffffffffffffffffffffffffffffffffffffffff1602179055507f996af1b4fab86e0c38439bb59a42e506f27f4304a369e9ed519cd0727e2b044e82823360405161081593929190610eca565b60405180910390a15050565b6000803373ffffffffffffffffffffffffffffffffffffffff1673ffffffffffffffffffffffffffffffffffffffff16815260200190815260200160002060009054906101000a900460ff166108ac576040517f08c379a00000000000000000000000000000000000000000000000000000000081526004016108a390610f7c565b60405180910390fd5b6000808273ffffffffffffffffffffffffffffffffffffffff1673ffffffffffffffffffffffffffffffffffffffff16815260200190815260200160002060009054906101000a900460ff1615610939577f4cd9d6f9e7ad0170e866104df8f2cf47b8eb35879e9aeb1815ffe9a402416edb8160405161092c9190610e86565b60405180910390a16109ca565b60016000808373ffffffffffffffffffffffffffffffffffffffff1673ffffffffffffffffffffffffffffffffffffffff16815260200190815260200160002060006101000a81548160ff0219169083151502179055507fa2f792d5cab45450daed47916f25d9bd3443d275c51ecbccfbeb727a3b4eda0e81336040516109c1929190610ea1565b60405180910390a15b50565b6000803373ffffffffffffffffffffffffffffffffffffffff1673ffffffffffffffffffffffffffffffffffffffff16815260200190815260200160002060009054906101000a900460ff16610a58576040517f08c379a0000000000000000000000000000000000000000000000000000000008152600401610a4f90610f7c565b60405180910390fd5b8073ffffffffffffffffffffffffffffffffffffffff163373ffffffffffffffffffffffffffffffffffffffff161415610ac7576040517f08c379a0000000000000000000000000000000000000000000000000000000008152600401610abe90610f1c565b60405180910390fd5b600073ffffffffffffffffffffffffffffffffffffffff16600160008373ffffffffffffffffffffffffffffffffffffffff1673ffffffffffffffffffffffffffffffffffffffff16815260200190815260200160002060009054906101000a900473ffffffffffffffffffffffffffffffffffffffff1673ffffffffffffffffffffffffffffffffffffffff161415610b96576040517f08c379a0000000000000000000000000000000000000000000000000000000008152600401610b8d90610f5c565b60405180910390fd5b6000600160008373ffffffffffffffffffffffffffffffffffffffff1673ffffffffffffffffffffffffffffffffffffffff16815260200190815260200160002060009054906101000a900473ffffffffffffffffffffffffffffffffffffffff1690506000600160008473ffffffffffffffffffffffffffffffffffffffff1673ffffffffffffffffffffffffffffffffffffffff16815260200190815260200160002060006101000a81548173ffffffffffffffffffffffffffffffffffffffff021916908373ffffffffffffffffffffffffffffffffffffffff1602179055507f996af1b4fab86e0c38439bb59a42e506f27f4304a369e9ed519cd0727e2b044e828233604051610cac93929190610eca565b60405180910390a15050565b600081359050610cc781610feb565b92915050565b600060208284031215610cdf57600080fd5b6000610ced84828501610cb8565b91505092915050565b610cff81610fad565b82525050565b610d0e81610fbf565b82525050565b6000610d21603283610f9c565b91507f596f752063616e6e6f7420617070726f7665206f722072656a6563742061207260008301527f656d6f76616c206f6620796f757273656c6600000000000000000000000000006020830152604082019050919050565b6000610d87603083610f9c565b91507f596f752063616e6e6f7420617070726f766520612072656d6f76616c2074686160008301527f7420796f752068617665206d6164652e000000000000000000000000000000006020830152604082019050919050565b6000610ded603983610f9c565b91507f5468652061646d696e6973747261746f7220686173206e6f74206265656e207360008301527f657420746f2070656e64696e672072656d6f76616c20796574000000000000006020830152604082019050919050565b6000610e53600a83610f9c565b91507f41646d696e206f6e6c79000000000000000000000000000000000000000000006000830152602082019050919050565b6000602082019050610e9b6000830184610cf6565b92915050565b6000604082019050610eb66000830185610cf6565b610ec36020830184610cf6565b9392505050565b6000606082019050610edf6000830186610cf6565b610eec6020830185610cf6565b610ef96040830184610cf6565b949350505050565b6000602082019050610f166000830184610d05565b92915050565b60006020820190508181036000830152610f3581610d14565b9050919050565b60006020820190508181036000830152610f5581610d7a565b9050919050565b60006020820190508181036000830152610f7581610de0565b9050919050565b60006020820190508181036000830152610f9581610e46565b9050919050565b600082825260208201905092915050565b6000610fb882610fcb565b9050919050565b60008115159050919050565b600073ffffffffffffffffffffffffffffffffffffffff82169050919050565b610ff481610fad565b8114610fff57600080fd5b5056fea2646970667358221220b414eaf877923048427fa38bdade9e80db4e896b19ee399333173378515df76564736f6c63430008000033",
  "immutableReferences": {},
  "source": "// SPDX-License-Identifier: UNLICENSED\npragma solidity ^0.8.0;\n\n\n/** \n * @dev The Election Administrator Contract contains the information of all election administrators. Due to the nature of the elections, \n * the election administrators' addresses will change over time. Therefore a seperate logical contract is a good idea to keep track of such changes.\n * \n * The majority of an administration's functions will be on the election contracts.\n */\ncontract ElectionAdministrator {\n    \n    mapping (address => bool) private administrators;\n    mapping (address => address) private administratorsPendingRemoval; //Removing Single Point of Failure, requires more than one admin to approve a removal process.\n\n    event AdministratorAdded(address newAdministrator, address addedBy);\n    event AdministratorAlreadyExists(address administrator);\n    event AlreadyPendingRemoval(address administrator);\n    event AdministratorSetPendingRemoval(address administratorToRemove, address removedBy);\n    event AdministratorApprovedRemoval(address administratorToRemove, address removedBy, address approvedBy);\n    event AdministratorRejectRemoval(address administratorToRemove, address removedBy, address rejectedBy);\n    event AdministratorDoesNotExist(address adminisrtrator);\n\n    constructor () {\n        administrators[msg.sender] = true;\n    }\n\n    modifier adminOnly {\n        require (administrators[msg.sender], \"Admin only\");\n        _;\n    }\n\n    function addAdministrator(address newAdministrator) public adminOnly {\n        if (administrators[newAdministrator]) {\n            emit AdministratorAlreadyExists(newAdministrator);\n        } else {\n            administrators[newAdministrator] = true;\n            emit AdministratorAdded(newAdministrator, msg.sender);\n        }\n    }\n\n    function setPendingRemoval(address administratorToRemove) public adminOnly {\n        if (administrators[administratorToRemove]) {\n            if (administratorsPendingRemoval[administratorToRemove] != address(0)) {\n                emit AlreadyPendingRemoval(administratorToRemove);\n            } else {\n                administratorsPendingRemoval[administratorToRemove] = msg.sender;\n                emit AdministratorSetPendingRemoval(administratorToRemove, msg.sender);\n            }\n        } else {\n            emit AdministratorDoesNotExist(administratorToRemove);\n        }   \n    }\n\n    function approveRemoval(address administratorToRemove) public adminOnly {\n        require (msg.sender != administratorToRemove, \"You cannot approve or reject a removal of yourself\");\n        require (administratorsPendingRemoval[administratorToRemove] != msg.sender, \"You cannot approve a removal that you have made.\");\n        require (administratorsPendingRemoval[administratorToRemove] != address(0), \"The administrator has not been set to pending removal yet\");\n\n        address removedBy = administratorsPendingRemoval[administratorToRemove];\n        administrators[administratorToRemove] = false;\n        administratorsPendingRemoval[administratorToRemove] = address(0);\n\n        emit AdministratorApprovedRemoval(administratorToRemove, removedBy, msg.sender);\n    }\n\n    function rejectRemoval(address administratorToRemove) public adminOnly {\n        require (msg.sender != administratorToRemove, \"You cannot approve or reject a removal of yourself\");\n        require (administratorsPendingRemoval[administratorToRemove] != address(0), \"The administrator has not been set to pending removal yet\");\n\n        address removedBy = administratorsPendingRemoval[administratorToRemove];\n        administratorsPendingRemoval[administratorToRemove] = address(0);\n\n        emit AdministratorApprovedRemoval(administratorToRemove, removedBy, msg.sender);\n    }\n\n    function isAdministrator(address check) public view returns (bool) {\n        return administrators[check];\n    }\n}",
  "sourcePath": "/Users/ganeshpremakumar/IS4302/contracts/ElectionAdministrator.sol",
  "compiler": {
    "name": "solc",
    "version": "0.8.0+commit.c7dfd78e.Emscripten.clang"
  },
  "schemaVersion": "3.3.3",
  "updatedAt": "2022-03-31T03:44:20.168Z",
  "networkType": "ethereum",
  "devdoc": {
    "details": "The Election Administrator Contract contains the information of all election administrators. Due to the nature of the elections,  the election administrators' addresses will change over time. Therefore a seperate logical contract is a good idea to keep track of such changes.  The majority of an administration's functions will be on the election contracts.",
    "kind": "dev",
    "methods": {},
    "version": 1
  },
  "userdoc": {
    "kind": "user",
    "methods": {},
    "version": 1
  }
}