{
  "contractName": "Election",
  "abi": [
    {
      "inputs": [
        {
          "internalType": "string",
          "name": "_electionTitle",
          "type": "string"
        },
        {
          "internalType": "uint256",
          "name": "_startDate",
          "type": "uint256"
        },
        {
          "internalType": "uint256",
          "name": "_endDate",
          "type": "uint256"
        },
        {
          "internalType": "contract ElectionAdministrator",
          "name": "_administratorContract",
          "type": "address"
        }
      ],
      "stateMutability": "nonpayable",
      "type": "constructor"
    },
    {
      "anonymous": false,
      "inputs": [],
      "name": "VoteSucceeded",
      "type": "event"
    },
    {
      "inputs": [
        {
          "internalType": "uint256",
          "name": "",
          "type": "uint256"
        }
      ],
      "name": "candidates",
      "outputs": [
        {
          "internalType": "uint256",
          "name": "id",
          "type": "uint256"
        },
        {
          "internalType": "string",
          "name": "name",
          "type": "string"
        },
        {
          "internalType": "uint256",
          "name": "voteCount",
          "type": "uint256"
        },
        {
          "internalType": "uint256",
          "name": "grcId",
          "type": "uint256"
        },
        {
          "internalType": "string",
          "name": "electionTitle",
          "type": "string"
        },
        {
          "internalType": "bool",
          "name": "valid",
          "type": "bool"
        }
      ],
      "stateMutability": "view",
      "type": "function",
      "constant": true
    },
    {
      "inputs": [
        {
          "internalType": "uint256",
          "name": "",
          "type": "uint256"
        }
      ],
      "name": "regions",
      "outputs": [
        {
          "internalType": "uint256",
          "name": "regionId",
          "type": "uint256"
        },
        {
          "internalType": "string",
          "name": "name",
          "type": "string"
        },
        {
          "internalType": "uint256",
          "name": "voteCount",
          "type": "uint256"
        },
        {
          "internalType": "string",
          "name": "electionTitle",
          "type": "string"
        },
        {
          "internalType": "bool",
          "name": "valid",
          "type": "bool"
        }
      ],
      "stateMutability": "view",
      "type": "function",
      "constant": true
    },
    {
      "inputs": [
        {
          "internalType": "string",
          "name": "_name",
          "type": "string"
        },
        {
          "internalType": "uint256",
          "name": "_regionId",
          "type": "uint256"
        },
        {
          "internalType": "string",
          "name": "_electionTitle",
          "type": "string"
        }
      ],
      "name": "addCandidate",
      "outputs": [],
      "stateMutability": "nonpayable",
      "type": "function"
    },
    {
      "inputs": [
        {
          "internalType": "string",
          "name": "_name",
          "type": "string"
        },
        {
          "internalType": "string",
          "name": "_electionTitle",
          "type": "string"
        }
      ],
      "name": "addRegion",
      "outputs": [],
      "stateMutability": "nonpayable",
      "type": "function"
    },
    {
      "inputs": [
        {
          "internalType": "string",
          "name": "_nric",
          "type": "string"
        },
        {
          "internalType": "string",
          "name": "_password",
          "type": "string"
        }
      ],
      "name": "authenticateVoter",
      "outputs": [
        {
          "internalType": "uint256",
          "name": "",
          "type": "uint256"
        }
      ],
      "stateMutability": "nonpayable",
      "type": "function"
    },
    {
      "inputs": [
        {
          "internalType": "uint256",
          "name": "_voteCode",
          "type": "uint256"
        },
        {
          "internalType": "uint256",
          "name": "_candidateId",
          "type": "uint256"
        }
      ],
      "name": "vote",
      "outputs": [],
      "stateMutability": "nonpayable",
      "type": "function"
    },
    {
      "inputs": [],
      "name": "getStartDate",
      "outputs": [
        {
          "internalType": "uint256",
          "name": "",
          "type": "uint256"
        }
      ],
      "stateMutability": "view",
      "type": "function",
      "constant": true
    },
    {
      "inputs": [],
      "name": "getEndDate",
      "outputs": [
        {
          "internalType": "uint256",
          "name": "",
          "type": "uint256"
        }
      ],
      "stateMutability": "view",
      "type": "function",
      "constant": true
    },
    {
      "inputs": [],
      "name": "checkStarted",
      "outputs": [
        {
          "internalType": "bool",
          "name": "",
          "type": "bool"
        }
      ],
      "stateMutability": "view",
      "type": "function",
      "constant": true
    },
    {
      "inputs": [],
      "name": "checkEnded",
      "outputs": [
        {
          "internalType": "bool",
          "name": "",
          "type": "bool"
        }
      ],
      "stateMutability": "view",
      "type": "function",
      "constant": true
    },
    {
      "inputs": [
        {
          "internalType": "uint256",
          "name": "newStartDate",
          "type": "uint256"
        }
      ],
      "name": "changeStartDate",
      "outputs": [],
      "stateMutability": "nonpayable",
      "type": "function"
    },
    {
      "inputs": [
        {
          "internalType": "uint256",
          "name": "newEndDate",
          "type": "uint256"
        }
      ],
      "name": "changeEndDate",
      "outputs": [],
      "stateMutability": "nonpayable",
      "type": "function"
    },
    {
      "inputs": [],
      "name": "startElection",
      "outputs": [],
      "stateMutability": "nonpayable",
      "type": "function"
    },
    {
      "inputs": [],
      "name": "endElection",
      "outputs": [],
      "stateMutability": "nonpayable",
      "type": "function"
    },
    {
      "inputs": [],
      "name": "settleResults",
      "outputs": [
        {
          "internalType": "string[][]",
          "name": "",
          "type": "string[][]"
        }
      ],
      "stateMutability": "nonpayable",
      "type": "function"
    }
  ],
  "bytecode": "0x60806040523480156200001157600080fd5b5060405162002fd938038062002fd98339818101604052810190620000379190620002ff565b4283116200007c576040517f08c379a00000000000000000000000000000000000000000000000000000000081526004016200007390620004da565b60405180910390fd5b828211620000c1576040517f08c379a0000000000000000000000000000000000000000000000000000000008152600401620000b89062000496565b60405180910390fd5b600084511162000108576040517f08c379a0000000000000000000000000000000000000000000000000000000008152600401620000ff90620004b8565b60405180910390fd5b836001908051906020019062000120929190620001af565b5082600281905550816003819055506000600460006101000a81548160ff0219169083151502179055506000600460016101000a81548160ff021916908315150217905550806000806101000a81548173ffffffffffffffffffffffffffffffffffffffff021916908373ffffffffffffffffffffffffffffffffffffffff16021790555050505050620006c4565b828054620001bd90620005fc565b90600052602060002090601f016020900481019282620001e157600085556200022d565b82601f10620001fc57805160ff19168380011785556200022d565b828001600101855582156200022d579182015b828111156200022c5782518255916020019190600101906200020f565b5b5090506200023c919062000240565b5090565b5b808211156200025b57600081600090555060010162000241565b5090565b600062000276620002708462000530565b620004fc565b9050828152602081018484840111156200028f57600080fd5b6200029c848285620005c6565b509392505050565b600081519050620002b58162000690565b92915050565b600082601f830112620002cd57600080fd5b8151620002df8482602086016200025f565b91505092915050565b600081519050620002f981620006aa565b92915050565b600080600080608085870312156200031657600080fd5b600085015167ffffffffffffffff8111156200033157600080fd5b6200033f87828801620002bb565b94505060206200035287828801620002e8565b93505060406200036587828801620002e8565b92505060606200037887828801620002a4565b91505092959194509250565b600062000393602c8362000563565b91507f4572726f722c20456e6420446174652063616e6e6f74206265206265666f726560008301527f20737461727420646174652e00000000000000000000000000000000000000006020830152604082019050919050565b6000620003fb60228362000563565b91507f4572726f722c206d75737420696e636c75646520656c656374696f6e2074697460008301527f6c650000000000000000000000000000000000000000000000000000000000006020830152604082019050919050565b600062000463601d8362000563565b91507f4572726f722c205374617274204461746520686173207061737365642e0000006000830152602082019050919050565b60006020820190508181036000830152620004b18162000384565b9050919050565b60006020820190508181036000830152620004d381620003ec565b9050919050565b60006020820190508181036000830152620004f58162000454565b9050919050565b6000604051905081810181811067ffffffffffffffff8211171562000526576200052562000661565b5b8060405250919050565b600067ffffffffffffffff8211156200054e576200054d62000661565b5b601f19601f8301169050602081019050919050565b600082825260208201905092915050565b600062000581826200059c565b9050919050565b6000620005958262000574565b9050919050565b600073ffffffffffffffffffffffffffffffffffffffff82169050919050565b6000819050919050565b60005b83811015620005e6578082015181840152602081019050620005c9565b83811115620005f6576000848401525b50505050565b600060028204905060018216806200061557607f821691505b602082108114156200062c576200062b62000632565b5b50919050565b7f4e487b7100000000000000000000000000000000000000000000000000000000600052602260045260246000fd5b7f4e487b7100000000000000000000000000000000000000000000000000000000600052604160045260246000fd5b6200069b8162000588565b8114620006a757600080fd5b50565b620006b581620005bc565b8114620006c157600080fd5b50565b61290580620006d46000396000f3fe608060405234801561001057600080fd5b5060043610610111576000357c0100000000000000000000000000000000000000000000000000000000900480636664b0ee116100b4578063941799dd11610083578063941799dd14610271578063b13564881461028f578063b384abef146102ad578063e74f9252146102c957610111565b80636664b0ee146101e95780636bdc838e1461020557806378f305c6146102355780637dad94ce1461025357610111565b80633477ee2e116100f05780633477ee2e1461018457806345737b1e146101b957806359f78468146101d557806362d73eb8146101df57610111565b8062739f2a14610116578063132abfb6146101325780632f63584114610166575b600080fd5b610130600480360381019061012b9190611b59565b6102e5565b005b61014c60048036038101906101479190611b59565b61048b565b60405161015d959493929190612519565b60405180910390f35b61016e6105de565b60405161017b91906122e1565b60405180910390f35b61019e60048036038101906101999190611b59565b610743565b6040516101b09695949392919061257a565b60405180910390f35b6101d360048036038101906101ce9190611b59565b61089c565b005b6101dd610a44565b005b6101e7610c56565b005b61020360048036038101906101fe9190611a6e565b610e12565b005b61021f600480360381019061021a9190611a6e565b61100b565b60405161022c91906124fe565b60405180910390f35b61023d611381565b60405161024a91906124fe565b60405180910390f35b61025b61138b565b6040516102689190612303565b60405180910390f35b6102796113a2565b6040516102869190612303565b60405180910390f35b6102976113b9565b6040516102a491906124fe565b60405180910390f35b6102c760048036038101906102c29190611b82565b6113c3565b005b6102e360048036038101906102de9190611ada565b6116a0565b005b60008054906101000a900473ffffffffffffffffffffffffffffffffffffffff1673ffffffffffffffffffffffffffffffffffffffff16630a2eb301336040518263ffffffff167c010000000000000000000000000000000000000000000000000000000002815260040161035a91906122c6565b60206040518083038186803b15801561037257600080fd5b505afa158015610386573d6000803e3d6000fd5b505050506040513d601f19601f820116820180604052508101906103aa9190611a45565b6103e9576040517f08c379a00000000000000000000000000000000000000000000000000000000081526004016103e0906123be565b60405180910390fd5b60001515600460009054906101000a900460ff1615151461043f576040517f08c379a00000000000000000000000000000000000000000000000000000000081526004016104369061235e565b60405180910390fd5b428111610481576040517f08c379a0000000000000000000000000000000000000000000000000000000008152600401610478906124be565b60405180910390fd5b8060028190555050565b60096020528060005260406000206000915090508060000154908060010180546104b49061277e565b80601f01602080910402602001604051908101604052809291908181526020018280546104e09061277e565b801561052d5780601f106105025761010080835404028352916020019161052d565b820191906000526020600020905b81548152906001019060200180831161051057829003601f168201915b5050505050908060020154908060040180546105489061277e565b80601f01602080910402602001604051908101604052809291908181526020018280546105749061277e565b80156105c15780601f10610596576101008083540402835291602001916105c1565b820191906000526020600020905b8154815290600101906020018083116105a457829003601f168201915b5050505050908060050160009054906101000a900460ff16905085565b606060008054906101000a900473ffffffffffffffffffffffffffffffffffffffff1673ffffffffffffffffffffffffffffffffffffffff16630a2eb301336040518263ffffffff167c010000000000000000000000000000000000000000000000000000000002815260040161065591906122c6565b60206040518083038186803b15801561066d57600080fd5b505afa158015610681573d6000803e3d6000fd5b505050506040513d601f19601f820116820180604052508101906106a59190611a45565b6106e4576040517f08c379a00000000000000000000000000000000000000000000000000000000081526004016106db906123be565b60405180910390fd5b60011515600460019054906101000a900460ff1615151461073a576040517f08c379a00000000000000000000000000000000000000000000000000000000081526004016107319061245e565b60405180910390fd5b60608091505090565b600860205280600052604060002060009150905080600001549080600101805461076c9061277e565b80601f01602080910402602001604051908101604052809291908181526020018280546107989061277e565b80156107e55780601f106107ba576101008083540402835291602001916107e5565b820191906000526020600020905b8154815290600101906020018083116107c857829003601f168201915b5050505050908060020154908060030154908060040180546108069061277e565b80601f01602080910402602001604051908101604052809291908181526020018280546108329061277e565b801561087f5780601f106108545761010080835404028352916020019161087f565b820191906000526020600020905b81548152906001019060200180831161086257829003601f168201915b5050505050908060050160009054906101000a900460ff16905086565b60008054906101000a900473ffffffffffffffffffffffffffffffffffffffff1673ffffffffffffffffffffffffffffffffffffffff16630a2eb301336040518263ffffffff167c010000000000000000000000000000000000000000000000000000000002815260040161091191906122c6565b60206040518083038186803b15801561092957600080fd5b505afa15801561093d573d6000803e3d6000fd5b505050506040513d601f19601f820116820180604052508101906109619190611a45565b6109a0576040517f08c379a0000000000000000000000000000000000000000000000000000000008152600401610997906123be565b60405180910390fd5b60001515600460009054906101000a900460ff161515146109f6576040517f08c379a00000000000000000000000000000000000000000000000000000000081526004016109ed9061235e565b60405180910390fd5b6002548111610a3a576040517f08c379a0000000000000000000000000000000000000000000000000000000008152600401610a31906123fe565b60405180910390fd5b8060038190555050565b60008054906101000a900473ffffffffffffffffffffffffffffffffffffffff1673ffffffffffffffffffffffffffffffffffffffff16630a2eb301336040518263ffffffff167c0100000000000000000000000000000000000000000000000000000000028152600401610ab991906122c6565b60206040518083038186803b158015610ad157600080fd5b505afa158015610ae5573d6000803e3d6000fd5b505050506040513d601f19601f82011682018060405250810190610b099190611a45565b610b48576040517f08c379a0000000000000000000000000000000000000000000000000000000008152600401610b3f906123be565b60405180910390fd5b60011515600460009054906101000a900460ff16151514610b9e576040517f08c379a0000000000000000000000000000000000000000000000000000000008152600401610b959061233e565b60405180910390fd5b60001515600460019054906101000a900460ff16151514610bf4576040517f08c379a0000000000000000000000000000000000000000000000000000000008152600401610beb9061241e565b60405180910390fd5b600354421015610c39576040517f08c379a0000000000000000000000000000000000000000000000000000000008152600401610c30906124de565b60405180910390fd5b6001600460016101000a81548160ff021916908315150217905550565b60008054906101000a900473ffffffffffffffffffffffffffffffffffffffff1673ffffffffffffffffffffffffffffffffffffffff16630a2eb301336040518263ffffffff167c0100000000000000000000000000000000000000000000000000000000028152600401610ccb91906122c6565b60206040518083038186803b158015610ce357600080fd5b505afa158015610cf7573d6000803e3d6000fd5b505050506040513d601f19601f82011682018060405250810190610d1b9190611a45565b610d5a576040517f08c379a0000000000000000000000000000000000000000000000000000000008152600401610d51906123be565b60405180910390fd5b60001515600460009054906101000a900460ff16151514610db0576040517f08c379a0000000000000000000000000000000000000000000000000000000008152600401610da79061247e565b60405180910390fd5b600254421015610df5576040517f08c379a0000000000000000000000000000000000000000000000000000000008152600401610dec9061243e565b60405180910390fd5b6001600460006101000a81548160ff021916908315150217905550565b60008054906101000a900473ffffffffffffffffffffffffffffffffffffffff1673ffffffffffffffffffffffffffffffffffffffff16630a2eb301336040518263ffffffff167c0100000000000000000000000000000000000000000000000000000000028152600401610e8791906122c6565b60206040518083038186803b158015610e9f57600080fd5b505afa158015610eb3573d6000803e3d6000fd5b505050506040513d601f19601f82011682018060405250810190610ed79190611a45565b610f16576040517f08c379a0000000000000000000000000000000000000000000000000000000008152600401610f0d906123be565b60405180910390fd5b606060066000815480929190610f2b906127b0565b91905055506040518060c0016040528060065481526020018481526020016000815260200182815260200183815260200160011515815250600960006006548152602001908152602001600020600082015181600001556020820151816001019080519060200190610f9e9291906118c3565b50604082015181600201556060820151816003019080519060200190610fc5929190611949565b506080820151816004019080519060200190610fe29291906118c3565b5060a08201518160050160006101000a81548160ff021916908315150217905550905050505050565b60008160405160200161101e919061225b565b60405160208183030381529060405280519060200120600a600085604051602001611049919061225b565b60405160208183030381529060405280519060200120815260200190815260200160002054146110ae576040517f08c379a00000000000000000000000000000000000000000000000000000000081526004016110a59061231e565b60405180910390fd5b6000600b6000856040516020016110c5919061225b565b6040516020818303038152906040528051906020012081526020019081526020016000206040518060c00160405290816000820154815260200160018201805461110e9061277e565b80601f016020809104026020016040519081016040528092919081815260200182805461113a9061277e565b80156111875780601f1061115c57610100808354040283529160200191611187565b820191906000526020600020905b81548152906001019060200180831161116a57829003601f168201915b5050505050815260200160028201548152602001600382018054806020026020016040519081016040528092919081815260200182805480156111e957602002820191906000526020600020905b8154815260200190600101908083116111d5575b505050505081526020016004820180546112029061277e565b80601f016020809104026020016040519081016040528092919081815260200182805461122e9061277e565b801561127b5780601f106112505761010080835404028352916020019161127b565b820191906000526020600020905b81548152906001019060200180831161125e57829003601f168201915b505050505081526020016005820160009054906101000a900460ff161515151581525050905060004442866040516020016112b89392919061228d565b6040516020818303038152906040528051906020012060019004905081600c600083815260200190815260200160002060008201518160000155602082015181600101908051906020019061130e9291906118c3565b50604082015181600201556060820151816003019080519060200190611335929190611949565b5060808201518160040190805190602001906113529291906118c3565b5060a08201518160050160006101000a81548160ff021916908315150217905550905050809250505092915050565b6000600254905090565b6000600460009054906101000a900460ff16905090565b6000600460019054906101000a900460ff16905090565b6000600354905090565b600c600083815260200190815260200160002060050160009054906101000a900460ff16611426576040517f08c379a000000000000000000000000000000000000000000000000000000000815260040161141d906123de565b60405180910390fd5b60025442118015611438575060035442105b8015611457575060011515600460009054906101000a900460ff161515145b8015611476575060001515600460019054906101000a900460ff161515145b6114b5576040517f08c379a00000000000000000000000000000000000000000000000000000000081526004016114ac9061239e565b60405180910390fd5b6000600102600d6000848152602001908152602001600020541461150e576040517f08c379a00000000000000000000000000000000000000000000000000000000081526004016115059061249e565b60405180910390fd5b6000600c600084815260200190815260200160002060030180548060200260200160405190810160405280929190818152602001828054801561157057602002820191906000526020600020905b81548152602001906001019080831161155c575b505050505090506000805b82518110156115e857838382815181106115be577f4e487b7100000000000000000000000000000000000000000000000000000000600052603260045260246000fd5b602002602001015114156115d557600191506115e8565b80806115e0906127b0565b91505061157b565b506001151581151514611630576040517f08c379a00000000000000000000000000000000000000000000000000000000081526004016116279061237e565b60405180910390fd5b826040516020016116419190612272565b60405160208183030381529060405280519060200120600d6000868152602001908152602001600020819055507fc69ff71591a5578b3a8e6a8789b39c4fe1db941aaac2fc5570e795c698cac32460405160405180910390a150505050565b60008054906101000a900473ffffffffffffffffffffffffffffffffffffffff1673ffffffffffffffffffffffffffffffffffffffff16630a2eb301336040518263ffffffff167c010000000000000000000000000000000000000000000000000000000002815260040161171591906122c6565b60206040518083038186803b15801561172d57600080fd5b505afa158015611741573d6000803e3d6000fd5b505050506040513d601f19601f820116820180604052508101906117659190611a45565b6117a4576040517f08c379a000000000000000000000000000000000000000000000000000000000815260040161179b906123be565b60405180910390fd5b600560008154809291906117b7906127b0565b91905055506040518060c001604052806005548152602001848152602001600081526020018381526020018281526020016001151581525060086000600554815260200190815260200160002060008201518160000155602082015181600101908051906020019061182a9291906118c3565b506040820151816002015560608201518160030155608082015181600401908051906020019061185b9291906118c3565b5060a08201518160050160006101000a81548160ff021916908315150217905550905050600960008381526020019081526020016000206003016005549080600181540180825580915050600190039060005260206000200160009091909190915055505050565b8280546118cf9061277e565b90600052602060002090601f0160209004810192826118f15760008555611938565b82601f1061190a57805160ff1916838001178555611938565b82800160010185558215611938579182015b8281111561193757825182559160200191906001019061191c565b5b5090506119459190611996565b5090565b828054828255906000526020600020908101928215611985579160200282015b82811115611984578251825591602001919060010190611969565b5b5090506119929190611996565b5090565b5b808211156119af576000816000905550600101611997565b5090565b60006119c66119c18461261a565b6125e9565b9050828152602081018484840111156119de57600080fd5b6119e984828561273c565b509392505050565b600081519050611a00816128a1565b92915050565b600082601f830112611a1757600080fd5b8135611a278482602086016119b3565b91505092915050565b600081359050611a3f816128b8565b92915050565b600060208284031215611a5757600080fd5b6000611a65848285016119f1565b91505092915050565b60008060408385031215611a8157600080fd5b600083013567ffffffffffffffff811115611a9b57600080fd5b611aa785828601611a06565b925050602083013567ffffffffffffffff811115611ac457600080fd5b611ad085828601611a06565b9150509250929050565b600080600060608486031215611aef57600080fd5b600084013567ffffffffffffffff811115611b0957600080fd5b611b1586828701611a06565b9350506020611b2686828701611a30565b925050604084013567ffffffffffffffff811115611b4357600080fd5b611b4f86828701611a06565b9150509250925092565b600060208284031215611b6b57600080fd5b6000611b7984828501611a30565b91505092915050565b60008060408385031215611b9557600080fd5b6000611ba385828601611a30565b9250506020611bb485828601611a30565b9150509250929050565b6000611bca8383611c6a565b905092915050565b6000611bde8383611cee565b905092915050565b611bef816126f4565b82525050565b6000611c008261266a565b611c0a81856126a5565b935083602082028501611c1c8561264a565b8060005b85811015611c585784840389528151611c398582611bbe565b9450611c448361268b565b925060208a01995050600181019050611c20565b50829750879550505050505092915050565b6000611c7582612675565b611c7f81856126b6565b935083602082028501611c918561265a565b8060005b85811015611ccd5784840389528151611cae8582611bd2565b9450611cb983612698565b925060208a01995050600181019050611c95565b50829750879550505050505092915050565b611ce881612706565b82525050565b6000611cf982612680565b611d0381856126c7565b9350611d1381856020860161274b565b611d1c81612890565b840191505092915050565b6000611d3282612680565b611d3c81856126d8565b9350611d4c81856020860161274b565b611d5581612890565b840191505092915050565b6000611d6b82612680565b611d7581856126e9565b9350611d8581856020860161274b565b80840191505092915050565b6000611d9e601d836126d8565b91507f4572726f722c2061757468656e7469636174696f6e206661696c7572650000006000830152602082019050919050565b6000611dde6023836126d8565b91507f4572726f722c20656c656374696f6e20686173206e6f7420737461727465642060008301527f79657400000000000000000000000000000000000000000000000000000000006020830152604082019050919050565b6000611e44601b836126d8565b91507f4572726f722c20656c656374696f6e20686173207374617274656400000000006000830152602082019050919050565b6000611e84601a836126d8565b91507f4572726f722c20696e76616c69642063616e64696461746549640000000000006000830152602082019050919050565b6000611ec4601f836126d8565b91507f4572726f722c206e6f7420617661696c61626c6520666f7220766f74696e67006000830152602082019050919050565b6000611f046011836126d8565b91507f4e6f742041646d696e6973747261746f720000000000000000000000000000006000830152602082019050919050565b6000611f44601c836126d8565b91507f4572726f722c20766f7465436f6465206973206e6f742076616c6964000000006000830152602082019050919050565b6000611f84602b836126d8565b91507f4572726f722c20456e6420446174652063616e6e6f74206265206265666f726560008301527f20537461727420446174650000000000000000000000000000000000000000006020830152604082019050919050565b6000611fea6021836126d8565b91507f4572726f722c20656c656374696f6e2068617320616c726561647920656e646560008301527f64000000000000000000000000000000000000000000000000000000000000006020830152604082019050919050565b6000612050601f836126d8565b91507f43616e206f6e6c792073746172742061667465722073746172742064617465006000830152602082019050919050565b60006120906018836126d8565b91507f526573756c74206e6f7420617661696c61626c652079657400000000000000006000830152602082019050919050565b60006120d06035836126d8565b91507f4572726f722c2063616e6e6f7420737461727420656c656374696f6e2074686160008301527f742068617320616c7265616479207374617274656400000000000000000000006020830152604082019050919050565b60006121366021836126d8565b91507f4572726f722c20766f74652068617320616c7265616479206265656e2063617360008301527f74000000000000000000000000000000000000000000000000000000000000006020830152604082019050919050565b600061219c601c836126d8565b91507f4572726f722c20537461727420446174652068617320706173736564000000006000830152602082019050919050565b60006121dc6028836126d8565b91507f4572726f722c20656e7375726520746f206f6e6c7920656e642061667465722060008301527f656e642074696d650000000000000000000000000000000000000000000000006020830152604082019050919050565b61223e81612732565b82525050565b61225561225082612732565b6127f9565b82525050565b60006122678284611d60565b915081905092915050565b600061227e8284612244565b60208201915081905092915050565b60006122998286612244565b6020820191506122a98285612244565b6020820191506122b98284611d60565b9150819050949350505050565b60006020820190506122db6000830184611be6565b92915050565b600060208201905081810360008301526122fb8184611bf5565b905092915050565b60006020820190506123186000830184611cdf565b92915050565b6000602082019050818103600083015261233781611d91565b9050919050565b6000602082019050818103600083015261235781611dd1565b9050919050565b6000602082019050818103600083015261237781611e37565b9050919050565b6000602082019050818103600083015261239781611e77565b9050919050565b600060208201905081810360008301526123b781611eb7565b9050919050565b600060208201905081810360008301526123d781611ef7565b9050919050565b600060208201905081810360008301526123f781611f37565b9050919050565b6000602082019050818103600083015261241781611f77565b9050919050565b6000602082019050818103600083015261243781611fdd565b9050919050565b6000602082019050818103600083015261245781612043565b9050919050565b6000602082019050818103600083015261247781612083565b9050919050565b60006020820190508181036000830152612497816120c3565b9050919050565b600060208201905081810360008301526124b781612129565b9050919050565b600060208201905081810360008301526124d78161218f565b9050919050565b600060208201905081810360008301526124f7816121cf565b9050919050565b60006020820190506125136000830184612235565b92915050565b600060a08201905061252e6000830188612235565b81810360208301526125408187611d27565b905061254f6040830186612235565b81810360608301526125618185611d27565b90506125706080830184611cdf565b9695505050505050565b600060c08201905061258f6000830189612235565b81810360208301526125a18188611d27565b90506125b06040830187612235565b6125bd6060830186612235565b81810360808301526125cf8185611d27565b90506125de60a0830184611cdf565b979650505050505050565b6000604051905081810181811067ffffffffffffffff821117156126105761260f612861565b5b8060405250919050565b600067ffffffffffffffff82111561263557612634612861565b5b601f19601f8301169050602081019050919050565b6000819050602082019050919050565b6000819050602082019050919050565b600081519050919050565b600081519050919050565b600081519050919050565b6000602082019050919050565b6000602082019050919050565b600082825260208201905092915050565b600082825260208201905092915050565b600082825260208201905092915050565b600082825260208201905092915050565b600081905092915050565b60006126ff82612712565b9050919050565b60008115159050919050565b600073ffffffffffffffffffffffffffffffffffffffff82169050919050565b6000819050919050565b82818337600083830152505050565b60005b8381101561276957808201518184015260208101905061274e565b83811115612778576000848401525b50505050565b6000600282049050600182168061279657607f821691505b602082108114156127aa576127a9612832565b5b50919050565b60006127bb82612732565b91507fffffffffffffffffffffffffffffffffffffffffffffffffffffffffffffffff8214156127ee576127ed612803565b5b600182019050919050565b6000819050919050565b7f4e487b7100000000000000000000000000000000000000000000000000000000600052601160045260246000fd5b7f4e487b7100000000000000000000000000000000000000000000000000000000600052602260045260246000fd5b7f4e487b7100000000000000000000000000000000000000000000000000000000600052604160045260246000fd5b6000601f19601f8301169050919050565b6128aa81612706565b81146128b557600080fd5b50565b6128c181612732565b81146128cc57600080fd5b5056fea26469706673582212205fa36e853df7697bb3e586ad6dfc53dc0d8aa0e3f2cef5c864e89c649258ae3764736f6c63430008000033",
  "immutableReferences": {},
  "source": "// SPDX-License-Identifier: UNLICENSED\npragma solidity ^0.8.0;\n\nimport \"./ElectionAdministrator.sol\";\n\ncontract Election {\n\n    ElectionAdministrator administratorContract;\n\n    string electionTitle;\n    uint256 startDate;\n    uint256 endDate;\n    bool hasStarted; //This is used to double confirm that the election has actually started\n    bool hasEnded; //This is used to confirm that the election has actually ended\n    uint256 candidatesCount;\n    uint256 regionsCount;\n    string[] voteCodes;\n\n    struct Candidate {  \n        uint256 id;\n        string name;\n        uint256 voteCount;\n        uint256 grcId;\n        string electionTitle;\n        bool valid;\n    }\n\n    struct Region {\n        uint256 regionId;\n        string name;\n        uint256 voteCount;\n        uint256[] candidatesList;\n        string electionTitle;\n        bool valid;\n    }\n\n    mapping(uint256 => Candidate) public candidates;\n    mapping(uint256 => Region) public regions;\n    mapping(bytes32 => bytes32) private voters; //Hashed nric to hashed password\n    mapping(bytes32 => Region) private voterRegions; //Hashed nric to Region\n    mapping(uint256 => Region) private voteValidity; //voteCode to Region \n    mapping(uint256 => bytes32) private votes; //voteCode to Candidate. Votes are still needed for verification purposes even with counts accounted for, probably only by admins.\n    mapping(uint256 => mapping(uint256 => uint64)) private votecounts; // counts => Region -> votes \n\n\n    event VoteSucceeded();\n\n    //TODO: Handle Voting Process\n\n    modifier adminOnly {\n        require(administratorContract.isAdministrator(msg.sender), \"Not Administrator\");\n        _;\n    }\n\n    constructor(string memory _electionTitle, uint256 _startDate, uint256 _endDate, ElectionAdministrator _administratorContract) {\n        require(_startDate > block.timestamp, \"Error, Start Date has passed.\");\n        require(_endDate > _startDate, \"Error, End Date cannot be before start date.\");\n        require (bytes(_electionTitle).length > 0, \"Error, must include election title\");\n        electionTitle = _electionTitle;\n        startDate = _startDate;\n        endDate = _endDate;\n        hasStarted = false; \n        hasEnded = false;\n        administratorContract = _administratorContract;\n    }\n\n    function addCandidate(string memory _name, uint256 _regionId, string memory _electionTitle) public adminOnly {\n        candidatesCount++;\n        candidates[candidatesCount] = Candidate(candidatesCount, _name, 0, _regionId, _electionTitle, true);\n        regions[_regionId].candidatesList.push(candidatesCount);\n    }\n\n    function addRegion(string memory _name, string memory _electionTitle) public adminOnly {\n        uint256[] memory candidatesList;\n        regionsCount++;\n        regions[regionsCount] = Region(regionsCount, _name, 0, candidatesList, _electionTitle, true);\n    }\n\n    function authenticateVoter(string memory _nric, string memory _password) public returns (uint256) {\n        require(voters[keccak256(abi.encodePacked(_nric))] == keccak256(abi.encodePacked(_password)), \"Error, authentication failure\");\n        \n        Region memory voterRegion = voterRegions[keccak256(abi.encodePacked(_nric))];\n        uint256 voteCode = uint(keccak256(abi.encodePacked(block.difficulty, block.timestamp, _nric)));\n        voteValidity[voteCode] = voterRegion;\n        return voteCode;\n    }\n\n    function vote(uint256 _voteCode, uint256 _candidateId) public {\n        require(voteValidity[_voteCode].valid, \"Error, voteCode is not valid\");\n        require(block.timestamp > startDate && block.timestamp < endDate && hasStarted == true && hasEnded == false, \"Error, not available for voting\");\n        require(votes[_voteCode] == bytes32(0), \"Error, vote has already been cast\");\n\n        uint256[] memory voterRegionCandidates = voteValidity[_voteCode].candidatesList;\n        bool found = false;\n        for (uint i=0; i<voterRegionCandidates.length; i++) {\n            if(voterRegionCandidates[i] == _candidateId) {\n                found = true;\n                break;\n            }\n        }\n        require(found == true, \"Error, invalid candidateId\");\n\n        votes[_voteCode] = keccak256(abi.encodePacked(_candidateId)); //Encrypt candidate id only\n\n        emit VoteSucceeded();\n        //voteCodes.(_voteCode); //Voted\n        // add the count of the vote\n\n        \n    }\n\n    function getStartDate() public view returns (uint256) {\n        return startDate;\n    }\n\n    function getEndDate() public view returns (uint256) {\n        return endDate;\n    }\n\n    function checkStarted() public view returns (bool) {\n        return hasStarted;\n    }\n\n    function checkEnded() public view returns (bool) {\n        return hasEnded;\n    }\n\n    function changeStartDate(uint256 newStartDate) public adminOnly {\n        require(hasStarted == false, \"Error, election has started\");\n        require(newStartDate > block.timestamp, \"Error, Start Date has passed\");\n\n        startDate = newStartDate;\n    }\n\n    function changeEndDate(uint256 newEndDate) public adminOnly {\n        require(hasStarted == false, \"Error, election has started\");\n        require(newEndDate > startDate, \"Error, End Date cannot be before Start Date\");\n\n        endDate = newEndDate;\n    }\n\n    function startElection() public adminOnly {\n        require(hasStarted == false, \"Error, cannot start election that has already started\");\n        require(block.timestamp >= startDate, \"Can only start after start date\");\n\n        hasStarted = true;\n    }\n\n    function endElection() public adminOnly {\n        require(hasStarted == true, \"Error, election has not started yet\");\n        require(hasEnded == false, \"Error, election has already ended\");\n        require(block.timestamp >= endDate, \"Error, ensure to only end after end time\");\n\n        hasEnded = true;\n    }\n\n    //Gets winner of election.\n    function settleResults() public adminOnly returns (string[][] memory) {\n        require(hasEnded == true, \"Result not available yet\");\n\n        string[][] memory resultmap;\n\n\n        return resultmap;\n    }\n}",
  "sourcePath": "/Users/ganeshpremakumar/IS4302/contracts/Election.sol",
  "compiler": {
    "name": "solc",
    "version": "0.8.0+commit.c7dfd78e.Emscripten.clang"
  },
  "schemaVersion": "3.3.3",
  "updatedAt": "2022-03-31T03:44:20.130Z",
  "networkType": "ethereum",
  "devdoc": {
    "kind": "dev",
    "methods": {},
    "version": 1
  },
  "userdoc": {
    "kind": "user",
    "methods": {},
    "version": 1
  }
}