{
  "contractName": "ElectionPortal",
  "abi": [
    {
      "inputs": [
        {
          "internalType": "contract ElectionAdministrator",
          "name": "_administratorContract",
          "type": "address"
        }
      ],
      "stateMutability": "nonpayable",
      "type": "constructor"
    },
    {
      "anonymous": false,
      "inputs": [],
      "name": "ElectionAdded",
      "type": "event"
    },
    {
      "inputs": [
        {
          "internalType": "contract Election",
          "name": "election",
          "type": "address"
        }
      ],
      "name": "addNewElection",
      "outputs": [],
      "stateMutability": "nonpayable",
      "type": "function"
    },
    {
      "inputs": [],
      "name": "getLatestElection",
      "outputs": [
        {
          "internalType": "contract Election",
          "name": "",
          "type": "address"
        }
      ],
      "stateMutability": "view",
      "type": "function",
      "constant": true
    }
  ],
  "bytecode": "0x608060405234801561001057600080fd5b506040516108a33803806108a38339818101604052810190610032919061008d565b806000806101000a81548173ffffffffffffffffffffffffffffffffffffffff021916908373ffffffffffffffffffffffffffffffffffffffff16021790555050610111565b600081519050610087816100fa565b92915050565b60006020828403121561009f57600080fd5b60006100ad84828501610078565b91505092915050565b60006100c1826100da565b9050919050565b60006100d3826100b6565b9050919050565b600073ffffffffffffffffffffffffffffffffffffffff82169050919050565b610103816100c8565b811461010e57600080fd5b50565b610783806101206000396000f3fe608060405234801561001057600080fd5b5060043610610053576000357c010000000000000000000000000000000000000000000000000000000090048063303f66b7146100585780633266de5914610074575b600080fd5b610072600480360381019061006d9190610490565b610092565b005b61007c610228565b60405161008991906105b2565b60405180910390f35b60008054906101000a900473ffffffffffffffffffffffffffffffffffffffff1673ffffffffffffffffffffffffffffffffffffffff16630a2eb301336040518263ffffffff167c01000000000000000000000000000000000000000000000000000000000281526004016101079190610597565b60206040518083038186803b15801561011f57600080fd5b505afa158015610133573d6000803e3d6000fd5b505050506040513d601f19601f820116820180604052508101906101579190610467565b610196576040517f08c379a000000000000000000000000000000000000000000000000000000000815260040161018d906105cd565b60405180910390fd5b6001819080600181540180825580915050600190039060005260206000200160009091909190916101000a81548173ffffffffffffffffffffffffffffffffffffffff021916908373ffffffffffffffffffffffffffffffffffffffff1602179055507fa25dfccfe9f6c76fba4a5f6f0450800b569ab05acade50247a5f238b18046a3c60405160405180910390a150565b60008060018054905011610271576040517f08c379a00000000000000000000000000000000000000000000000000000000081526004016102689061060d565b60405180910390fd5b600015156001808080549050610287919061063e565b815481106102be577f4e487b7100000000000000000000000000000000000000000000000000000000600052603260045260246000fd5b9060005260206000200160009054906101000a900473ffffffffffffffffffffffffffffffffffffffff1673ffffffffffffffffffffffffffffffffffffffff1663941799dd6040518163ffffffff167c010000000000000000000000000000000000000000000000000000000002815260040160206040518083038186803b15801561034a57600080fd5b505afa15801561035e573d6000803e3d6000fd5b505050506040513d601f19601f820116820180604052508101906103829190610467565b1515146103c4576040517f08c379a00000000000000000000000000000000000000000000000000000000081526004016103bb906105ed565b60405180910390fd5b60018080805490506103d6919061063e565b8154811061040d577f4e487b7100000000000000000000000000000000000000000000000000000000600052603260045260246000fd5b9060005260206000200160009054906101000a900473ffffffffffffffffffffffffffffffffffffffff16905090565b60008151905061044c8161071f565b92915050565b60008135905061046181610736565b92915050565b60006020828403121561047957600080fd5b60006104878482850161043d565b91505092915050565b6000602082840312156104a257600080fd5b60006104b084828501610452565b91505092915050565b6104c281610672565b82525050565b6104d1816106cc565b82525050565b60006104e460118361062d565b91507f4e6f742041646d696e6973747261746f720000000000000000000000000000006000830152602082019050919050565b600061052460138361062d565b91507f456c656374696f6e2068617320656e6465642e000000000000000000000000006000830152602082019050919050565b6000610564601d8361062d565b91507f506c656173652061646420616e20656c656374696f6e206669727374210000006000830152602082019050919050565b60006020820190506105ac60008301846104b9565b92915050565b60006020820190506105c760008301846104c8565b92915050565b600060208201905081810360008301526105e6816104d7565b9050919050565b6000602082019050818103600083015261060681610517565b9050919050565b6000602082019050818103600083015261062681610557565b9050919050565b600082825260208201905092915050565b6000610649826106c2565b9150610654836106c2565b925082821015610667576106666106f0565b5b828203905092915050565b600061067d826106a2565b9050919050565b60008115159050919050565b600061069b82610672565b9050919050565b600073ffffffffffffffffffffffffffffffffffffffff82169050919050565b6000819050919050565b60006106d7826106de565b9050919050565b60006106e9826106a2565b9050919050565b7f4e487b7100000000000000000000000000000000000000000000000000000000600052601160045260246000fd5b61072881610684565b811461073357600080fd5b50565b61073f81610690565b811461074a57600080fd5b5056fea2646970667358221220fcabe1b009d7633e5de551dd37ae68b2145011bb9e15a109e4c991b988cf22c864736f6c63430008000033",
  "immutableReferences": {},
  "source": "// SPDX-License-Identifier: UNLICENSED\npragma solidity ^0.8.0;\n\nimport \"./Election.sol\";\nimport \"./ElectionAdministrator.sol\";\n\ncontract ElectionPortal {\n    ElectionAdministrator private administratorContract;\n\n    Election[] private elections;\n\n    event ElectionAdded();\n\n    modifier adminOnly {\n        require(administratorContract.isAdministrator(msg.sender), \"Not Administrator\");\n        _;\n    }\n\n    constructor(ElectionAdministrator _administratorContract) {\n        administratorContract = _administratorContract;\n    }\n\n\n    function addNewElection(Election election) public adminOnly {\n        elections.push(election);\n        emit ElectionAdded();\n    }\n\n    function getLatestElection() public view returns (Election) {\n        require(elections.length > 0, \"Please add an election first!\");\n        require(elections[elections.length -1].checkEnded() == false, \"Election has ended.\");\n        return elections[elections.length - 1];\n    }\n}",
  "sourcePath": "/Users/USER/Library/Mobile Documents/com~apple~CloudDocs/school/IS4302/project/IS4302/contracts/ElectionPortal.sol",
  "compiler": {
    "name": "solc",
    "version": "0.8.0+commit.c7dfd78e.Emscripten.clang"
  },
  "schemaVersion": "3.4.4",
  "updatedAt": "2022-04-06T06:17:48.154Z",
  "networkType": "ethereum",
  "devdoc": {
    "kind": "dev",
    "methods": {},
    "version": 1
  },
  "userdoc": {
    "kind": "user",
    "methods": {},
    "version": 1
  }
}