{
  "contractName": "Election",
  "abi": [
    {
      "inputs": [
        {
          "internalType": "string",
          "name": "_electionTitle",
          "type": "string"
        },
        {
          "internalType": "uint256",
          "name": "_startDate",
          "type": "uint256"
        },
        {
          "internalType": "uint256",
          "name": "_endDate",
          "type": "uint256"
        },
        {
          "internalType": "contract ElectionAdministrator",
          "name": "_administratorContract",
          "type": "address"
        }
      ],
      "stateMutability": "nonpayable",
      "type": "constructor"
    },
    {
      "anonymous": false,
      "inputs": [
        {
          "indexed": false,
          "internalType": "string",
          "name": "region",
          "type": "string"
        },
        {
          "indexed": false,
          "internalType": "string",
          "name": "candidate",
          "type": "string"
        },
        {
          "indexed": false,
          "internalType": "uint32",
          "name": "votes",
          "type": "uint32"
        }
      ],
      "name": "ElectionWinner",
      "type": "event"
    },
    {
      "anonymous": false,
      "inputs": [],
      "name": "VoteSucceeded",
      "type": "event"
    },
    {
      "inputs": [
        {
          "internalType": "uint256",
          "name": "",
          "type": "uint256"
        }
      ],
      "name": "candidates",
      "outputs": [
        {
          "internalType": "uint16",
          "name": "id",
          "type": "uint16"
        },
        {
          "internalType": "string",
          "name": "name",
          "type": "string"
        },
        {
          "internalType": "uint16",
          "name": "regionId",
          "type": "uint16"
        },
        {
          "internalType": "string",
          "name": "electionTitle",
          "type": "string"
        },
        {
          "internalType": "bool",
          "name": "valid",
          "type": "bool"
        }
      ],
      "stateMutability": "view",
      "type": "function",
      "constant": true
    },
    {
      "inputs": [
        {
          "internalType": "uint256",
          "name": "",
          "type": "uint256"
        }
      ],
      "name": "regions",
      "outputs": [
        {
          "internalType": "uint16",
          "name": "regionId",
          "type": "uint16"
        },
        {
          "internalType": "string",
          "name": "name",
          "type": "string"
        },
        {
          "internalType": "string",
          "name": "electionTitle",
          "type": "string"
        },
        {
          "internalType": "bool",
          "name": "valid",
          "type": "bool"
        }
      ],
      "stateMutability": "view",
      "type": "function",
      "constant": true
    },
    {
      "inputs": [
        {
          "internalType": "address",
          "name": "pollsystem",
          "type": "address"
        }
      ],
      "name": "addSystem",
      "outputs": [],
      "stateMutability": "nonpayable",
      "type": "function"
    },
    {
      "inputs": [
        {
          "internalType": "address",
          "name": "pollsystem",
          "type": "address"
        }
      ],
      "name": "removeSystem",
      "outputs": [],
      "stateMutability": "nonpayable",
      "type": "function"
    },
    {
      "inputs": [
        {
          "internalType": "string",
          "name": "_name",
          "type": "string"
        },
        {
          "internalType": "uint16",
          "name": "_regionId",
          "type": "uint16"
        },
        {
          "internalType": "string",
          "name": "_electionTitle",
          "type": "string"
        }
      ],
      "name": "addCandidate",
      "outputs": [],
      "stateMutability": "nonpayable",
      "type": "function"
    },
    {
      "inputs": [
        {
          "internalType": "string",
          "name": "_name",
          "type": "string"
        },
        {
          "internalType": "string",
          "name": "_electionTitle",
          "type": "string"
        }
      ],
      "name": "addRegion",
      "outputs": [],
      "stateMutability": "nonpayable",
      "type": "function"
    },
    {
      "inputs": [
        {
          "internalType": "string",
          "name": "_nric",
          "type": "string"
        },
        {
          "internalType": "string",
          "name": "_password",
          "type": "string"
        }
      ],
      "name": "authenticateVoter",
      "outputs": [
        {
          "internalType": "uint256",
          "name": "",
          "type": "uint256"
        }
      ],
      "stateMutability": "nonpayable",
      "type": "function"
    },
    {
      "inputs": [
        {
          "internalType": "uint256",
          "name": "_voteCode",
          "type": "uint256"
        },
        {
          "internalType": "uint16",
          "name": "_candidateId",
          "type": "uint16"
        }
      ],
      "name": "vote",
      "outputs": [],
      "stateMutability": "nonpayable",
      "type": "function"
    },
    {
      "inputs": [],
      "name": "getStartDate",
      "outputs": [
        {
          "internalType": "uint256",
          "name": "",
          "type": "uint256"
        }
      ],
      "stateMutability": "view",
      "type": "function",
      "constant": true
    },
    {
      "inputs": [],
      "name": "getEndDate",
      "outputs": [
        {
          "internalType": "uint256",
          "name": "",
          "type": "uint256"
        }
      ],
      "stateMutability": "view",
      "type": "function",
      "constant": true
    },
    {
      "inputs": [],
      "name": "checkStarted",
      "outputs": [
        {
          "internalType": "bool",
          "name": "",
          "type": "bool"
        }
      ],
      "stateMutability": "view",
      "type": "function",
      "constant": true
    },
    {
      "inputs": [],
      "name": "checkEnded",
      "outputs": [
        {
          "internalType": "bool",
          "name": "",
          "type": "bool"
        }
      ],
      "stateMutability": "view",
      "type": "function",
      "constant": true
    },
    {
      "inputs": [
        {
          "internalType": "uint256",
          "name": "newStartDate",
          "type": "uint256"
        }
      ],
      "name": "changeStartDate",
      "outputs": [],
      "stateMutability": "nonpayable",
      "type": "function"
    },
    {
      "inputs": [
        {
          "internalType": "uint256",
          "name": "newEndDate",
          "type": "uint256"
        }
      ],
      "name": "changeEndDate",
      "outputs": [],
      "stateMutability": "nonpayable",
      "type": "function"
    },
    {
      "inputs": [],
      "name": "startElection",
      "outputs": [],
      "stateMutability": "nonpayable",
      "type": "function"
    },
    {
      "inputs": [],
      "name": "endElection",
      "outputs": [],
      "stateMutability": "nonpayable",
      "type": "function"
    },
    {
      "inputs": [],
      "name": "settleResults",
      "outputs": [
        {
          "internalType": "string[][]",
          "name": "",
          "type": "string[][]"
        }
      ],
      "stateMutability": "nonpayable",
      "type": "function"
    },
    {
      "inputs": [
        {
          "internalType": "string",
          "name": "_regionname",
          "type": "string"
        }
      ],
      "name": "getWinner",
      "outputs": [
        {
          "internalType": "string",
          "name": "",
          "type": "string"
        }
      ],
      "stateMutability": "view",
      "type": "function",
      "constant": true
    },
    {
      "inputs": [
        {
          "internalType": "uint16",
          "name": "id",
          "type": "uint16"
        }
      ],
      "name": "getRegion",
      "outputs": [
        {
          "components": [
            {
              "internalType": "uint16",
              "name": "regionId",
              "type": "uint16"
            },
            {
              "internalType": "string",
              "name": "name",
              "type": "string"
            },
            {
              "internalType": "uint16[]",
              "name": "candidatesList",
              "type": "uint16[]"
            },
            {
              "internalType": "string",
              "name": "electionTitle",
              "type": "string"
            },
            {
              "internalType": "bool",
              "name": "valid",
              "type": "bool"
            }
          ],
          "internalType": "struct Election.Region",
          "name": "",
          "type": "tuple"
        }
      ],
      "stateMutability": "view",
      "type": "function",
      "constant": true
    },
    {
      "inputs": [
        {
          "internalType": "uint16",
          "name": "id",
          "type": "uint16"
        }
      ],
      "name": "getCandidate",
      "outputs": [
        {
          "components": [
            {
              "internalType": "uint16",
              "name": "id",
              "type": "uint16"
            },
            {
              "internalType": "string",
              "name": "name",
              "type": "string"
            },
            {
              "internalType": "uint16",
              "name": "regionId",
              "type": "uint16"
            },
            {
              "internalType": "string",
              "name": "electionTitle",
              "type": "string"
            },
            {
              "internalType": "bool",
              "name": "valid",
              "type": "bool"
            }
          ],
          "internalType": "struct Election.Candidate",
          "name": "",
          "type": "tuple"
        }
      ],
      "stateMutability": "view",
      "type": "function",
      "constant": true
    }
  ],
  "bytecode": "0x60806040523480156200001157600080fd5b5060405162004c1a38038062004c1a8339818101604052810190620000379190620004b0565b4283116200007c576040517f08c379a00000000000000000000000000000000000000000000000000000000081526004016200007390620005a2565b60405180910390fd5b828211620000c1576040517f08c379a0000000000000000000000000000000000000000000000000000000008152600401620000b8906200063a565b60405180910390fd5b600084511162000108576040517f08c379a0000000000000000000000000000000000000000000000000000000008152600401620000ff90620006d2565b60405180910390fd5b836001908051906020019062000120929190620001af565b5082600281905550816003819055506000600460006101000a81548160ff0219169083151502179055506000600460016101000a81548160ff021916908315150217905550806000806101000a81548173ffffffffffffffffffffffffffffffffffffffff021916908373ffffffffffffffffffffffffffffffffffffffff1602179055505050505062000759565b828054620001bd9062000723565b90600052602060002090601f016020900481019282620001e157600085556200022d565b82601f10620001fc57805160ff19168380011785556200022d565b828001600101855582156200022d579182015b828111156200022c5782518255916020019190600101906200020f565b5b5090506200023c919062000240565b5090565b5b808211156200025b57600081600090555060010162000241565b5090565b6000604051905090565b600080fd5b600080fd5b600080fd5b600080fd5b6000601f19601f8301169050919050565b7f4e487b7100000000000000000000000000000000000000000000000000000000600052604160045260246000fd5b620002c8826200027d565b810181811067ffffffffffffffff82111715620002ea57620002e96200028e565b5b80604052505050565b6000620002ff6200025f565b90506200030d8282620002bd565b919050565b600067ffffffffffffffff82111562000330576200032f6200028e565b5b6200033b826200027d565b9050602081019050919050565b60005b83811015620003685780820151818401526020810190506200034b565b8381111562000378576000848401525b50505050565b6000620003956200038f8462000312565b620002f3565b905082815260208101848484011115620003b457620003b362000278565b5b620003c184828562000348565b509392505050565b600082601f830112620003e157620003e062000273565b5b8151620003f38482602086016200037e565b91505092915050565b6000819050919050565b6200041181620003fc565b81146200041d57600080fd5b50565b600081519050620004318162000406565b92915050565b600073ffffffffffffffffffffffffffffffffffffffff82169050919050565b6000620004648262000437565b9050919050565b6000620004788262000457565b9050919050565b6200048a816200046b565b81146200049657600080fd5b50565b600081519050620004aa816200047f565b92915050565b60008060008060808587031215620004cd57620004cc62000269565b5b600085015167ffffffffffffffff811115620004ee57620004ed6200026e565b5b620004fc87828801620003c9565b94505060206200050f8782880162000420565b9350506040620005228782880162000420565b9250506060620005358782880162000499565b91505092959194509250565b600082825260208201905092915050565b7f4572726f722c205374617274204461746520686173207061737365642e000000600082015250565b60006200058a601d8362000541565b9150620005978262000552565b602082019050919050565b60006020820190508181036000830152620005bd816200057b565b9050919050565b7f4572726f722c20456e6420446174652063616e6e6f74206265206265666f726560008201527f20737461727420646174652e0000000000000000000000000000000000000000602082015250565b600062000622602c8362000541565b91506200062f82620005c4565b604082019050919050565b60006020820190508181036000830152620006558162000613565b9050919050565b7f4572726f722c206d75737420696e636c75646520656c656374696f6e2074697460008201527f6c65000000000000000000000000000000000000000000000000000000000000602082015250565b6000620006ba60228362000541565b9150620006c7826200065c565b604082019050919050565b60006020820190508181036000830152620006ed81620006ab565b9050919050565b7f4e487b7100000000000000000000000000000000000000000000000000000000600052602260045260246000fd5b600060028204905060018216806200073c57607f821691505b60208210811415620007535762000752620006f4565b5b50919050565b6144b180620007696000396000f3fe608060405234801561001057600080fd5b506004361061012b5760003560e01c806374be7592116100ad578063b135648811610071578063b13564881461030f578063b5d8e0a01461032d578063dbbb059414610349578063dfefe9f914610379578063f461ba0a146103a95761012b565b806374be75921461027d57806378f305c6146102995780637dad94ce146102b7578063941799dd146102d55780639ff898b4146102f35761012b565b806359f78468116100f457806359f78468146101ed5780635b80df90146101f757806362d73eb8146102275780636664b0ee146102315780636bdc838e1461024d5761012b565b8062739f2a14610130578063132abfb61461014c5780632f6358411461017f5780633477ee2e1461019d57806345737b1e146101d1575b600080fd5b61014a60048036038101906101459190612d0a565b6103c5565b005b61016660048036038101906101619190612d0a565b610540565b6040516101769493929190612e08565b60405180910390f35b61018761069b565b6040516101949190613029565b60405180910390f35b6101b760048036038101906101b29190612d0a565b610dbe565b6040516101c895949392919061304b565b60405180910390f35b6101eb60048036038101906101e69190612d0a565b610f2d565b005b6101f56110aa565b005b610211600480360381019061020c91906131e1565b611291565b60405161021e919061322a565b60405180910390f35b61022f61151f565b005b61024b6004803603810190610246919061324c565b6116b0565b005b6102676004803603810190610262919061324c565b6118e8565b60405161027491906132d3565b60405180910390f35b6102976004803603810190610292919061334c565b611d6b565b005b6102a1611ebf565b6040516102ae91906132d3565b60405180910390f35b6102bf611ec9565b6040516102cc9190613379565b60405180910390f35b6102dd611ee0565b6040516102ea9190613379565b60405180910390f35b61030d600480360381019061030891906133c0565b611ef7565b005b61031761226c565b60405161032491906132d3565b60405180910390f35b6103476004803603810190610342919061334c565b612276565b005b610363600480360381019061035e9190613400565b6123ca565b60405161037091906134c8565b60405180910390f35b610393600480360381019061038e9190613400565b61257a565b6040516103a0919061361d565b60405180910390f35b6103c360048036038101906103be919061363f565b61278a565b005b60008054906101000a900473ffffffffffffffffffffffffffffffffffffffff1673ffffffffffffffffffffffffffffffffffffffff16630a2eb301336040518263ffffffff1660e01b815260040161041e91906136d9565b602060405180830381865afa15801561043b573d6000803e3d6000fd5b505050506040513d601f19601f8201168201806040525081019061045f9190613720565b61049e576040517f08c379a000000000000000000000000000000000000000000000000000000000815260040161049590613799565b60405180910390fd5b60001515600460009054906101000a900460ff161515146104f4576040517f08c379a00000000000000000000000000000000000000000000000000000000081526004016104eb90613805565b60405180910390fd5b428111610536576040517f08c379a000000000000000000000000000000000000000000000000000000000815260040161052d90613871565b60405180910390fd5b8060028190555050565b60096020528060005260406000206000915090508060000160009054906101000a900461ffff1690806001018054610577906138c0565b80601f01602080910402602001604051908101604052809291908181526020018280546105a3906138c0565b80156105f05780601f106105c5576101008083540402835291602001916105f0565b820191906000526020600020905b8154815290600101906020018083116105d357829003601f168201915b505050505090806003018054610605906138c0565b80601f0160208091040260200160405190810160405280929190818152602001828054610631906138c0565b801561067e5780601f106106535761010080835404028352916020019161067e565b820191906000526020600020905b81548152906001019060200180831161066157829003601f168201915b5050505050908060040160009054906101000a900460ff16905084565b606060008054906101000a900473ffffffffffffffffffffffffffffffffffffffff1673ffffffffffffffffffffffffffffffffffffffff16630a2eb301336040518263ffffffff1660e01b81526004016106f691906136d9565b602060405180830381865afa158015610713573d6000803e3d6000fd5b505050506040513d601f19601f820116820180604052508101906107379190613720565b610776576040517f08c379a000000000000000000000000000000000000000000000000000000000815260040161076d90613799565b60405180910390fd5b60011515600460019054906101000a900460ff161515146107cc576040517f08c379a00000000000000000000000000000000000000000000000000000000081526004016107c39061393e565b60405180910390fd5b600060068054905014610814576040517f08c379a000000000000000000000000000000000000000000000000000000000815260040161080b906139aa565b60405180910390fd5b60005b60048054906101000a900461ffff1661ffff168161ffff161015610c9f576000600960008361ffff1681526020019081526020016000206040518060a00160405290816000820160009054906101000a900461ffff1661ffff1661ffff168152602001600182018054610889906138c0565b80601f01602080910402602001604051908101604052809291908181526020018280546108b5906138c0565b80156109025780601f106108d757610100808354040283529160200191610902565b820191906000526020600020905b8154815290600101906020018083116108e557829003601f168201915b505050505081526020016002820180548060200260200160405190810160405280929190818152602001828054801561098257602002820191906000526020600020906000905b82829054906101000a900461ffff1661ffff16815260200190600201906020826001010492830192600103820291508084116109495790505b5050505050815260200160038201805461099b906138c0565b80601f01602080910402602001604051908101604052809291908181526020018280546109c7906138c0565b8015610a145780601f106109e957610100808354040283529160200191610a14565b820191906000526020600020905b8154815290600101906020018083116109f757829003601f168201915b505050505081526020016004820160009054906101000a900460ff161515151581525050905060008060005b8360400151518561ffff161015610b16576000600f600086604001518461ffff1681518110610a7257610a716139ca565b5b6020026020010151604051602001610a8a9190613a2f565b60405160208183030381529060405280519060200120815260200190815260200160002060009054906101000a900463ffffffff169050838163ffffffff161115610b02578063ffffffff16935084604001518261ffff1681518110610af357610af26139ca565b5b602002602001015161ffff1692505b508480610b0e90613a79565b955050610a40565b506000600267ffffffffffffffff811115610b3457610b336130b6565b5b604051908082528060200260200182016040528015610b6757816020015b6060815260200190600190039081610b525790505b509050836020015181600081518110610b8357610b826139ca565b5b6020026020010181905250600860008381526020019081526020016000206001018054610baf906138c0565b80601f0160208091040260200160405190810160405280929190818152602001828054610bdb906138c0565b8015610c285780601f10610bfd57610100808354040283529160200191610c28565b820191906000526020600020905b815481529060010190602001808311610c0b57829003601f168201915b505050505081600181518110610c4157610c406139ca565b5b6020026020010181905250600681908060018154018082558091505060019003906000526020600020016000909190919091509080519060200190610c87929190612a41565b50505050508080610c9790613a79565b915050610817565b506006805480602002602001604051908101604052809291908181526020016000905b82821015610db557838290600052602060002001805480602002602001604051908101604052809291908181526020016000905b82821015610da2578382906000526020600020018054610d15906138c0565b80601f0160208091040260200160405190810160405280929190818152602001828054610d41906138c0565b8015610d8e5780601f10610d6357610100808354040283529160200191610d8e565b820191906000526020600020905b815481529060010190602001808311610d7157829003601f168201915b505050505081526020019060010190610cf6565b5050505081526020019060010190610cc2565b50505050905090565b60086020528060005260406000206000915090508060000160009054906101000a900461ffff1690806001018054610df5906138c0565b80601f0160208091040260200160405190810160405280929190818152602001828054610e21906138c0565b8015610e6e5780601f10610e4357610100808354040283529160200191610e6e565b820191906000526020600020905b815481529060010190602001808311610e5157829003601f168201915b5050505050908060020160009054906101000a900461ffff1690806003018054610e97906138c0565b80601f0160208091040260200160405190810160405280929190818152602001828054610ec3906138c0565b8015610f105780601f10610ee557610100808354040283529160200191610f10565b820191906000526020600020905b815481529060010190602001808311610ef357829003601f168201915b5050505050908060040160009054906101000a900460ff16905085565b60008054906101000a900473ffffffffffffffffffffffffffffffffffffffff1673ffffffffffffffffffffffffffffffffffffffff16630a2eb301336040518263ffffffff1660e01b8152600401610f8691906136d9565b602060405180830381865afa158015610fa3573d6000803e3d6000fd5b505050506040513d601f19601f82011682018060405250810190610fc79190613720565b611006576040517f08c379a0000000000000000000000000000000000000000000000000000000008152600401610ffd90613799565b60405180910390fd5b60001515600460009054906101000a900460ff1615151461105c576040517f08c379a000000000000000000000000000000000000000000000000000000000815260040161105390613805565b60405180910390fd5b60025481116110a0576040517f08c379a000000000000000000000000000000000000000000000000000000000815260040161109790613b16565b60405180910390fd5b8060038190555050565b60008054906101000a900473ffffffffffffffffffffffffffffffffffffffff1673ffffffffffffffffffffffffffffffffffffffff16630a2eb301336040518263ffffffff1660e01b815260040161110391906136d9565b602060405180830381865afa158015611120573d6000803e3d6000fd5b505050506040513d601f19601f820116820180604052508101906111449190613720565b611183576040517f08c379a000000000000000000000000000000000000000000000000000000000815260040161117a90613799565b60405180910390fd5b60011515600460009054906101000a900460ff161515146111d9576040517f08c379a00000000000000000000000000000000000000000000000000000000081526004016111d090613ba8565b60405180910390fd5b60001515600460019054906101000a900460ff1615151461122f576040517f08c379a000000000000000000000000000000000000000000000000000000000815260040161122690613c3a565b60405180910390fd5b600354421015611274576040517f08c379a000000000000000000000000000000000000000000000000000000000815260040161126b90613ccc565b60405180910390fd5b6001600460016101000a81548160ff021916908315150217905550565b6060600460019054906101000a900460ff166112e2576040517f08c379a00000000000000000000000000000000000000000000000000000000081526004016112d990613d5e565b60405180910390fd5b60006006805490501161132a576040517f08c379a000000000000000000000000000000000000000000000000000000000815260040161132190613dca565b60405180910390fd5b60005b6006805490508161ffff1610156114de5773__StringUtils___________________________6346bdca9a8460068461ffff1681548110611371576113706139ca565b5b9060005260206000200160008154811061138e5761138d6139ca565b5b906000526020600020016040518363ffffffff1660e01b81526004016113b5929190613ec9565b602060405180830381865af41580156113d2573d6000803e3d6000fd5b505050506040513d601f19601f820116820180604052508101906113f69190613720565b156114cb5760068161ffff1681548110611413576114126139ca565b5b906000526020600020016001815481106114305761142f6139ca565b5b906000526020600020018054611445906138c0565b80601f0160208091040260200160405190810160405280929190818152602001828054611471906138c0565b80156114be5780601f10611493576101008083540402835291602001916114be565b820191906000526020600020905b8154815290600101906020018083116114a157829003601f168201915b505050505091505061151a565b80806114d690613a79565b91505061132d565b506040517f08c379a000000000000000000000000000000000000000000000000000000000815260040161151190613f4c565b60405180910390fd5b919050565b60008054906101000a900473ffffffffffffffffffffffffffffffffffffffff1673ffffffffffffffffffffffffffffffffffffffff16630a2eb301336040518263ffffffff1660e01b815260040161157891906136d9565b602060405180830381865afa158015611595573d6000803e3d6000fd5b505050506040513d601f19601f820116820180604052508101906115b99190613720565b6115f8576040517f08c379a00000000000000000000000000000000000000000000000000000000081526004016115ef90613799565b60405180910390fd5b60001515600460009054906101000a900460ff1615151461164e576040517f08c379a000000000000000000000000000000000000000000000000000000000815260040161164590613fde565b60405180910390fd5b600254421015611693576040517f08c379a000000000000000000000000000000000000000000000000000000000815260040161168a9061404a565b60405180910390fd5b6001600460006101000a81548160ff021916908315150217905550565b60008054906101000a900473ffffffffffffffffffffffffffffffffffffffff1673ffffffffffffffffffffffffffffffffffffffff16630a2eb301336040518263ffffffff1660e01b815260040161170991906136d9565b602060405180830381865afa158015611726573d6000803e3d6000fd5b505050506040513d601f19601f8201168201806040525081019061174a9190613720565b611789576040517f08c379a000000000000000000000000000000000000000000000000000000000815260040161178090613799565b60405180910390fd5b60001515600460009054906101000a900460ff161515146117a957600080fd5b606060048081819054906101000a900461ffff16809291906117ca90613a79565b91906101000a81548161ffff021916908361ffff160217905550506040518060a0016040528060048054906101000a900461ffff1661ffff168152602001848152602001828152602001838152602001600115158152506009600060048054906101000a900461ffff1661ffff16815260200190815260200160002060008201518160000160006101000a81548161ffff021916908361ffff1602179055506020820151816001019080519060200190611885929190612aa1565b5060408201518160020190805190602001906118a2929190612b27565b5060608201518160030190805190602001906118bf929190612aa1565b5060808201518160040160006101000a81548160ff021916908315150217905550905050505050565b6000816040516020016118fb91906140a6565b60405160208183030381529060405280519060200120600a60008560405160200161192691906140a6565b604051602081830303815290604052805190602001208152602001908152602001600020541461198b576040517f08c379a000000000000000000000000000000000000000000000000000000000815260040161198290614109565b60405180910390fd5b60001515600b6000856040516020016119a491906140a6565b60405160208183030381529060405280519060200120815260200190815260200160002060009054906101000a900460ff16151514611a18576040517f08c379a0000000000000000000000000000000000000000000000000000000008152600401611a0f90614175565b60405180910390fd5b6000600c600085604051602001611a2f91906140a6565b60405160208183030381529060405280519060200120815260200190815260200160002060009054906101000a900461ffff1690506000600960008361ffff1681526020019081526020016000206040518060a00160405290816000820160009054906101000a900461ffff1661ffff1661ffff168152602001600182018054611ab8906138c0565b80601f0160208091040260200160405190810160405280929190818152602001828054611ae4906138c0565b8015611b315780601f10611b0657610100808354040283529160200191611b31565b820191906000526020600020905b815481529060010190602001808311611b1457829003601f168201915b5050505050815260200160028201805480602002602001604051908101604052809291908181526020018280548015611bb157602002820191906000526020600020906000905b82829054906101000a900461ffff1661ffff1681526020019060020190602082600101049283019260010382029150808411611b785790505b50505050508152602001600382018054611bca906138c0565b80601f0160208091040260200160405190810160405280929190818152602001828054611bf6906138c0565b8015611c435780601f10611c1857610100808354040283529160200191611c43565b820191906000526020600020905b815481529060010190602001808311611c2657829003601f168201915b505050505081526020016004820160009054906101000a900460ff16151515158152505090508060800151611cad576040517f08c379a0000000000000000000000000000000000000000000000000000000008152600401611ca4906141e1565b60405180910390fd5b6000444287604051602001611cc493929190614222565b6040516020818303038152906040528051906020012060001c90506001600b600088604051602001611cf691906140a6565b60405160208183030381529060405280519060200120815260200190815260200160002060006101000a81548160ff02191690831515021790555082600d600083815260200190815260200160002060006101000a81548161ffff021916908361ffff16021790555080935050505092915050565b60008054906101000a900473ffffffffffffffffffffffffffffffffffffffff1673ffffffffffffffffffffffffffffffffffffffff16630a2eb301336040518263ffffffff1660e01b8152600401611dc491906136d9565b602060405180830381865afa158015611de1573d6000803e3d6000fd5b505050506040513d601f19601f82011682018060405250810190611e059190613720565b611e44576040517f08c379a0000000000000000000000000000000000000000000000000000000008152600401611e3b90613799565b60405180910390fd5b60001515600460009054906101000a900460ff16151514611e6457600080fd5b6001600760008373ffffffffffffffffffffffffffffffffffffffff1673ffffffffffffffffffffffffffffffffffffffff16815260200190815260200160002060006101000a81548160ff02191690831515021790555050565b6000600254905090565b6000600460009054906101000a900460ff16905090565b6000600460019054906101000a900460ff16905090565b6000600d600084815260200190815260200160002060009054906101000a900461ffff1661ffff1611611f5f576040517f08c379a0000000000000000000000000000000000000000000000000000000008152600401611f56906142a7565b60405180910390fd5b60011515600460009054906101000a900460ff161515148015611f95575060001515600460019054906101000a900460ff161515145b611fd4576040517f08c379a0000000000000000000000000000000000000000000000000000000008152600401611fcb90614313565b60405180910390fd5b6000801b600e6000848152602001908152602001600020541461202c576040517f08c379a0000000000000000000000000000000000000000000000000000000008152600401612023906143a5565b60405180910390fd5b600060096000600d600086815260200190815260200160002060009054906101000a900461ffff1661ffff1681526020019081526020016000206002018054806020026020016040519081016040528092919081815260200182805480156120db57602002820191906000526020600020906000905b82829054906101000a900461ffff1661ffff16815260200190600201906020826001010492830192600103820291508084116120a25790505b505050505090506000805b82518161ffff16101561213d578361ffff16838261ffff168151811061210f5761210e6139ca565b5b602002602001015161ffff16141561212a576001915061213d565b808061213590613a79565b9150506120e6565b506001151581151514612185576040517f08c379a000000000000000000000000000000000000000000000000000000000815260040161217c90614411565b60405180910390fd5b826040516020016121969190613a2f565b60405160208183030381529060405280519060200120600e6000868152602001908152602001600020819055507fc69ff71591a5578b3a8e6a8789b39c4fe1db941aaac2fc5570e795c698cac32460405160405180910390a16001600f6000856040516020016122069190613a2f565b60405160208183030381529060405280519060200120815260200190815260200160002060008282829054906101000a900463ffffffff166122489190614441565b92506101000a81548163ffffffff021916908363ffffffff16021790555050505050565b6000600354905090565b60008054906101000a900473ffffffffffffffffffffffffffffffffffffffff1673ffffffffffffffffffffffffffffffffffffffff16630a2eb301336040518263ffffffff1660e01b81526004016122cf91906136d9565b602060405180830381865afa1580156122ec573d6000803e3d6000fd5b505050506040513d601f19601f820116820180604052508101906123109190613720565b61234f576040517f08c379a000000000000000000000000000000000000000000000000000000000815260040161234690613799565b60405180910390fd5b60001515600460009054906101000a900460ff1615151461236f57600080fd5b6000600760008373ffffffffffffffffffffffffffffffffffffffff1673ffffffffffffffffffffffffffffffffffffffff16815260200190815260200160002060006101000a81548160ff02191690831515021790555050565b6123d2612bd1565b600860008361ffff1681526020019081526020016000206040518060a00160405290816000820160009054906101000a900461ffff1661ffff1661ffff168152602001600182018054612424906138c0565b80601f0160208091040260200160405190810160405280929190818152602001828054612450906138c0565b801561249d5780601f106124725761010080835404028352916020019161249d565b820191906000526020600020905b81548152906001019060200180831161248057829003601f168201915b505050505081526020016002820160009054906101000a900461ffff1661ffff1661ffff1681526020016003820180546124d6906138c0565b80601f0160208091040260200160405190810160405280929190818152602001828054612502906138c0565b801561254f5780601f106125245761010080835404028352916020019161254f565b820191906000526020600020905b81548152906001019060200180831161253257829003601f168201915b505050505081526020016004820160009054906101000a900460ff1615151515815250509050919050565b612582612c0a565b600960008361ffff1681526020019081526020016000206040518060a00160405290816000820160009054906101000a900461ffff1661ffff1661ffff1681526020016001820180546125d4906138c0565b80601f0160208091040260200160405190810160405280929190818152602001828054612600906138c0565b801561264d5780601f106126225761010080835404028352916020019161264d565b820191906000526020600020905b81548152906001019060200180831161263057829003601f168201915b50505050508152602001600282018054806020026020016040519081016040528092919081815260200182805480156126cd57602002820191906000526020600020906000905b82829054906101000a900461ffff1661ffff16815260200190600201906020826001010492830192600103820291508084116126945790505b505050505081526020016003820180546126e6906138c0565b80601f0160208091040260200160405190810160405280929190818152602001828054612712906138c0565b801561275f5780601f106127345761010080835404028352916020019161275f565b820191906000526020600020905b81548152906001019060200180831161274257829003601f168201915b505050505081526020016004820160009054906101000a900460ff1615151515815250509050919050565b60008054906101000a900473ffffffffffffffffffffffffffffffffffffffff1673ffffffffffffffffffffffffffffffffffffffff16630a2eb301336040518263ffffffff1660e01b81526004016127e391906136d9565b602060405180830381865afa158015612800573d6000803e3d6000fd5b505050506040513d601f19601f820116820180604052508101906128249190613720565b612863576040517f08c379a000000000000000000000000000000000000000000000000000000000815260040161285a90613799565b60405180910390fd5b60001515600460009054906101000a900460ff1615151461288357600080fd5b6004600281819054906101000a900461ffff16809291906128a390613a79565b91906101000a81548161ffff021916908361ffff160217905550506040518060a00160405280600460029054906101000a900461ffff1661ffff1681526020018481526020018361ffff1681526020018281526020016001151581525060086000600460029054906101000a900461ffff1661ffff16815260200190815260200160002060008201518160000160006101000a81548161ffff021916908361ffff1602179055506020820151816001019080519060200190612966929190612aa1565b5060408201518160020160006101000a81548161ffff021916908361ffff16021790555060608201518160030190805190602001906129a6929190612aa1565b5060808201518160040160006101000a81548160ff021916908315150217905550905050600960008361ffff168152602001908152602001600020600201600460029054906101000a900461ffff1690806001815401808255809150506001900390600052602060002090601091828204019190066002029091909190916101000a81548161ffff021916908361ffff160217905550505050565b828054828255906000526020600020908101928215612a90579160200282015b82811115612a8f578251829080519060200190612a7f929190612aa1565b5091602001919060010190612a61565b5b509050612a9d9190612c3f565b5090565b828054612aad906138c0565b90600052602060002090601f016020900481019282612acf5760008555612b16565b82601f10612ae857805160ff1916838001178555612b16565b82800160010185558215612b16579182015b82811115612b15578251825591602001919060010190612afa565b5b509050612b239190612c63565b5090565b82805482825590600052602060002090600f01601090048101928215612bc05791602002820160005b83821115612b9057835183826101000a81548161ffff021916908361ffff1602179055509260200192600201602081600101049283019260010302612b50565b8015612bbe5782816101000a81549061ffff0219169055600201602081600101049283019260010302612b90565b505b509050612bcd9190612c63565b5090565b6040518060a00160405280600061ffff16815260200160608152602001600061ffff168152602001606081526020016000151581525090565b6040518060a00160405280600061ffff1681526020016060815260200160608152602001606081526020016000151581525090565b5b80821115612c5f5760008181612c569190612c80565b50600101612c40565b5090565b5b80821115612c7c576000816000905550600101612c64565b5090565b508054612c8c906138c0565b6000825580601f10612c9e5750612cbd565b601f016020900490600052602060002090810190612cbc9190612c63565b5b50565b6000604051905090565b600080fd5b600080fd5b6000819050919050565b612ce781612cd4565b8114612cf257600080fd5b50565b600081359050612d0481612cde565b92915050565b600060208284031215612d2057612d1f612cca565b5b6000612d2e84828501612cf5565b91505092915050565b600061ffff82169050919050565b612d4e81612d37565b82525050565b600081519050919050565b600082825260208201905092915050565b60005b83811015612d8e578082015181840152602081019050612d73565b83811115612d9d576000848401525b50505050565b6000601f19601f8301169050919050565b6000612dbf82612d54565b612dc98185612d5f565b9350612dd9818560208601612d70565b612de281612da3565b840191505092915050565b60008115159050919050565b612e0281612ded565b82525050565b6000608082019050612e1d6000830187612d45565b8181036020830152612e2f8186612db4565b90508181036040830152612e438185612db4565b9050612e526060830184612df9565b95945050505050565b600081519050919050565b600082825260208201905092915050565b6000819050602082019050919050565b600081519050919050565b600082825260208201905092915050565b6000819050602082019050919050565b600082825260208201905092915050565b6000612ecf82612d54565b612ed98185612eb3565b9350612ee9818560208601612d70565b612ef281612da3565b840191505092915050565b6000612f098383612ec4565b905092915050565b6000602082019050919050565b6000612f2982612e87565b612f338185612e92565b935083602082028501612f4585612ea3565b8060005b85811015612f815784840389528151612f628582612efd565b9450612f6d83612f11565b925060208a01995050600181019050612f49565b50829750879550505050505092915050565b6000612f9f8383612f1e565b905092915050565b6000602082019050919050565b6000612fbf82612e5b565b612fc98185612e66565b935083602082028501612fdb85612e77565b8060005b858110156130175784840389528151612ff88582612f93565b945061300383612fa7565b925060208a01995050600181019050612fdf565b50829750879550505050505092915050565b600060208201905081810360008301526130438184612fb4565b905092915050565b600060a0820190506130606000830188612d45565b81810360208301526130728187612db4565b90506130816040830186612d45565b81810360608301526130938185612db4565b90506130a26080830184612df9565b9695505050505050565b600080fd5b600080fd5b7f4e487b7100000000000000000000000000000000000000000000000000000000600052604160045260246000fd5b6130ee82612da3565b810181811067ffffffffffffffff8211171561310d5761310c6130b6565b5b80604052505050565b6000613120612cc0565b905061312c82826130e5565b919050565b600067ffffffffffffffff82111561314c5761314b6130b6565b5b61315582612da3565b9050602081019050919050565b82818337600083830152505050565b600061318461317f84613131565b613116565b9050828152602081018484840111156131a05761319f6130b1565b5b6131ab848285613162565b509392505050565b600082601f8301126131c8576131c76130ac565b5b81356131d8848260208601613171565b91505092915050565b6000602082840312156131f7576131f6612cca565b5b600082013567ffffffffffffffff81111561321557613214612ccf565b5b613221848285016131b3565b91505092915050565b600060208201905081810360008301526132448184612db4565b905092915050565b6000806040838503121561326357613262612cca565b5b600083013567ffffffffffffffff81111561328157613280612ccf565b5b61328d858286016131b3565b925050602083013567ffffffffffffffff8111156132ae576132ad612ccf565b5b6132ba858286016131b3565b9150509250929050565b6132cd81612cd4565b82525050565b60006020820190506132e860008301846132c4565b92915050565b600073ffffffffffffffffffffffffffffffffffffffff82169050919050565b6000613319826132ee565b9050919050565b6133298161330e565b811461333457600080fd5b50565b60008135905061334681613320565b92915050565b60006020828403121561336257613361612cca565b5b600061337084828501613337565b91505092915050565b600060208201905061338e6000830184612df9565b92915050565b61339d81612d37565b81146133a857600080fd5b50565b6000813590506133ba81613394565b92915050565b600080604083850312156133d7576133d6612cca565b5b60006133e585828601612cf5565b92505060206133f6858286016133ab565b9150509250929050565b60006020828403121561341657613415612cca565b5b6000613424848285016133ab565b91505092915050565b61343681612d37565b82525050565b61344581612ded565b82525050565b600060a083016000830151613463600086018261342d565b506020830151848203602086015261347b8282612ec4565b9150506040830151613490604086018261342d565b50606083015184820360608601526134a88282612ec4565b91505060808301516134bd608086018261343c565b508091505092915050565b600060208201905081810360008301526134e2818461344b565b905092915050565b600081519050919050565b600082825260208201905092915050565b6000819050602082019050919050565b6000613522838361342d565b60208301905092915050565b6000602082019050919050565b6000613546826134ea565b61355081856134f5565b935061355b83613506565b8060005b8381101561358c5781516135738882613516565b975061357e8361352e565b92505060018101905061355f565b5085935050505092915050565b600060a0830160008301516135b1600086018261342d565b50602083015184820360208601526135c98282612ec4565b915050604083015184820360408601526135e3828261353b565b915050606083015184820360608601526135fd8282612ec4565b9150506080830151613612608086018261343c565b508091505092915050565b600060208201905081810360008301526136378184613599565b905092915050565b60008060006060848603121561365857613657612cca565b5b600084013567ffffffffffffffff81111561367657613675612ccf565b5b613682868287016131b3565b9350506020613693868287016133ab565b925050604084013567ffffffffffffffff8111156136b4576136b3612ccf565b5b6136c0868287016131b3565b9150509250925092565b6136d38161330e565b82525050565b60006020820190506136ee60008301846136ca565b92915050565b6136fd81612ded565b811461370857600080fd5b50565b60008151905061371a816136f4565b92915050565b60006020828403121561373657613735612cca565b5b60006137448482850161370b565b91505092915050565b7f4e6f742041646d696e6973747261746f72000000000000000000000000000000600082015250565b6000613783601183612d5f565b915061378e8261374d565b602082019050919050565b600060208201905081810360008301526137b281613776565b9050919050565b7f4572726f722c20656c656374696f6e2068617320737461727465640000000000600082015250565b60006137ef601b83612d5f565b91506137fa826137b9565b602082019050919050565b6000602082019050818103600083015261381e816137e2565b9050919050565b7f4572726f722c2053746172742044617465206861732070617373656400000000600082015250565b600061385b601c83612d5f565b915061386682613825565b602082019050919050565b6000602082019050818103600083015261388a8161384e565b9050919050565b7f4e487b7100000000000000000000000000000000000000000000000000000000600052602260045260246000fd5b600060028204905060018216806138d857607f821691505b602082108114156138ec576138eb613891565b5b50919050565b7f526573756c74206e6f7420617661696c61626c65207965740000000000000000600082015250565b6000613928601883612d5f565b9150613933826138f2565b602082019050919050565b600060208201905081810360008301526139578161391b565b9050919050565b7f526573756c747320616c726561647920736574746c6564000000000000000000600082015250565b6000613994601783612d5f565b915061399f8261395e565b602082019050919050565b600060208201905081810360008301526139c381613987565b9050919050565b7f4e487b7100000000000000000000000000000000000000000000000000000000600052603260045260246000fd5b60008160f01b9050919050565b6000613a11826139f9565b9050919050565b613a29613a2482612d37565b613a06565b82525050565b6000613a3b8284613a18565b60028201915081905092915050565b7f4e487b7100000000000000000000000000000000000000000000000000000000600052601160045260246000fd5b6000613a8482612d37565b915061ffff821415613a9957613a98613a4a565b5b600182019050919050565b7f4572726f722c20456e6420446174652063616e6e6f74206265206265666f726560008201527f2053746172742044617465000000000000000000000000000000000000000000602082015250565b6000613b00602b83612d5f565b9150613b0b82613aa4565b604082019050919050565b60006020820190508181036000830152613b2f81613af3565b9050919050565b7f4572726f722c20656c656374696f6e20686173206e6f7420737461727465642060008201527f7965740000000000000000000000000000000000000000000000000000000000602082015250565b6000613b92602383612d5f565b9150613b9d82613b36565b604082019050919050565b60006020820190508181036000830152613bc181613b85565b9050919050565b7f4572726f722c20656c656374696f6e2068617320616c726561647920656e646560008201527f6400000000000000000000000000000000000000000000000000000000000000602082015250565b6000613c24602183612d5f565b9150613c2f82613bc8565b604082019050919050565b60006020820190508181036000830152613c5381613c17565b9050919050565b7f4572726f722c20656e7375726520746f206f6e6c7920656e642061667465722060008201527f656e642074696d65000000000000000000000000000000000000000000000000602082015250565b6000613cb6602883612d5f565b9150613cc182613c5a565b604082019050919050565b60006020820190508181036000830152613ce581613ca9565b9050919050565b7f4572726f722c20656c656374696f6e20686173206e6f7420656e64656420796560008201527f7400000000000000000000000000000000000000000000000000000000000000602082015250565b6000613d48602183612d5f565b9150613d5382613cec565b604082019050919050565b60006020820190508181036000830152613d7781613d3b565b9050919050565b7f526573756c7473206e6f74207365742075702079657400000000000000000000600082015250565b6000613db4601683612d5f565b9150613dbf82613d7e565b602082019050919050565b60006020820190508181036000830152613de381613da7565b9050919050565b600082825260208201905092915050565b6000613e0682612d54565b613e108185613dea565b9350613e20818560208601612d70565b613e2981612da3565b840191505092915050565b60008190508160005260206000209050919050565b60008154613e56816138c0565b613e608186613dea565b94506001821660008114613e7b5760018114613e8d57613ec0565b60ff1983168652602086019350613ec0565b613e9685613e34565b60005b83811015613eb857815481890152600182019150602081019050613e99565b808801955050505b50505092915050565b60006040820190508181036000830152613ee38185613dfb565b90508181036020830152613ef78184613e49565b90509392505050565b7f526567696f6e204e616d6520646f6573206e6f74206578697374000000000000600082015250565b6000613f36601a83612d5f565b9150613f4182613f00565b602082019050919050565b60006020820190508181036000830152613f6581613f29565b9050919050565b7f4572726f722c2063616e6e6f7420737461727420656c656374696f6e2074686160008201527f742068617320616c726561647920737461727465640000000000000000000000602082015250565b6000613fc8603583612d5f565b9150613fd382613f6c565b604082019050919050565b60006020820190508181036000830152613ff781613fbb565b9050919050565b7f43616e206f6e6c79207374617274206166746572207374617274206461746500600082015250565b6000614034601f83612d5f565b915061403f82613ffe565b602082019050919050565b6000602082019050818103600083015261406381614027565b9050919050565b600081905092915050565b600061408082612d54565b61408a818561406a565b935061409a818560208601612d70565b80840191505092915050565b60006140b28284614075565b915081905092915050565b7f4572726f722c2061757468656e7469636174696f6e206661696c757265000000600082015250565b60006140f3601d83612d5f565b91506140fe826140bd565b602082019050919050565b60006020820190508181036000830152614122816140e6565b9050919050565b7f48617320616c726561647920766f746564000000000000000000000000000000600082015250565b600061415f601183612d5f565b915061416a82614129565b602082019050919050565b6000602082019050818103600083015261418e81614152565b9050919050565b7f496e76616c696420526567696f6e000000000000000000000000000000000000600082015250565b60006141cb600e83612d5f565b91506141d682614195565b602082019050919050565b600060208201905081810360008301526141fa816141be565b9050919050565b6000819050919050565b61421c61421782612cd4565b614201565b82525050565b600061422e828661420b565b60208201915061423e828561420b565b60208201915061424e8284614075565b9150819050949350505050565b7f4572726f722c20766f7465436f6465206973206e6f742076616c696400000000600082015250565b6000614291601c83612d5f565b915061429c8261425b565b602082019050919050565b600060208201905081810360008301526142c081614284565b9050919050565b7f4572726f722c206e6f7420617661696c61626c6520666f7220766f74696e6700600082015250565b60006142fd601f83612d5f565b9150614308826142c7565b602082019050919050565b6000602082019050818103600083015261432c816142f0565b9050919050565b7f4572726f722c20766f74652068617320616c7265616479206265656e2063617360008201527f7400000000000000000000000000000000000000000000000000000000000000602082015250565b600061438f602183612d5f565b915061439a82614333565b604082019050919050565b600060208201905081810360008301526143be81614382565b9050919050565b7f4572726f722c20696e76616c69642063616e6469646174654964000000000000600082015250565b60006143fb601a83612d5f565b9150614406826143c5565b602082019050919050565b6000602082019050818103600083015261442a816143ee565b9050919050565b600063ffffffff82169050919050565b600061444c82614431565b915061445783614431565b92508263ffffffff038211156144705761446f613a4a565b5b82820190509291505056fea26469706673582212207e4c49d3552df45ab92b450b06066c39981faaf9377cdff2496ab91133af3c7564736f6c634300080b0033",
  "immutableReferences": {},
  "source": "// SPDX-License-Identifier: UNLICENSED\npragma solidity ^0.8.0;\n\nimport \"./ElectionAdministrator.sol\";\nimport \"./util/StringUtils.sol\";\n\ncontract Election {\n\n    ElectionAdministrator private administratorContract;\n\n    string private electionTitle;\n    uint256 private startDate;\n    uint256 private endDate;\n    bool private hasStarted; //This is used to double confirm that the election has actually started\n    bool private hasEnded; //This is used to confirm that the election has actually ended\n    uint16 private candidatesCount;\n    uint16 private regionsCount;\n    string[] private voteCodes;\n    string[][] private results;\n\n    struct Candidate {  \n        uint16 id;\n        string name;\n        uint16 regionId;\n        string electionTitle;\n        bool valid;\n    }\n\n    struct Region {\n        uint16 regionId;\n        string name;\n        uint16[] candidatesList;\n        string electionTitle;\n        bool valid;\n    }\n\n    mapping(address => bool) private allowedsystems; //Assume only polling stations are allowed, this will be the only systems that are allowed to access\n    mapping(uint256 => Candidate) public candidates;\n    mapping(uint256 => Region) public regions;\n    mapping(bytes32 => bytes32) private voters; //Hashed nric to hashed password\n    mapping(bytes32 => bool) private hasRegisteredVote; //Hashed nric to true/false value, by default it is false\n    mapping(bytes32 => uint16) private voterRegions; //Hashed nric to regionId\n    mapping(uint256 => uint16) private voteValidity; //voteCode to regionId\n    mapping(uint256 => bytes32) private votes; //voteCode to hashed candidateId. Votes are still needed for verification purposes even with counts accounted for, probably only by admins.\n    mapping(bytes32 => uint32) private votecounts; // Candidate -> votes \n\n    event VoteSucceeded();\n    event ElectionWinner(string region, string candidate, uint32 votes);\n\n    //TODO: Handle Voting Process\n\n    modifier adminOnly {\n        require(administratorContract.isAdministrator(msg.sender), \"Not Administrator\");\n        _;\n    }\n\n    modifier hasNotStarted {\n        require(hasStarted == false);\n        _;\n    }\n\n    modifier alreadyStarted {\n        require(hasStarted == true);\n        _;\n    }\n\n    modifier isAllowedSystem {\n        require(allowedsystems[msg.sender] == true, \"Not allowed system\");\n        _;\n    }\n\n    constructor(string memory _electionTitle, uint256 _startDate, uint256 _endDate, ElectionAdministrator _administratorContract) {\n        require(_startDate > block.timestamp, \"Error, Start Date has passed.\");\n        require(_endDate > _startDate, \"Error, End Date cannot be before start date.\");\n        require (bytes(_electionTitle).length > 0, \"Error, must include election title\");\n        electionTitle = _electionTitle;\n        startDate = _startDate;\n        endDate = _endDate;\n        hasStarted = false; \n        hasEnded = false;\n        administratorContract = _administratorContract;\n    }\n\n    function addSystem(address pollsystem) public adminOnly hasNotStarted {\n        allowedsystems[pollsystem] = true;\n    }\n\n    function removeSystem(address pollsystem) public adminOnly hasNotStarted {\n        allowedsystems[pollsystem] = false;\n    }\n\n    function addCandidate(string memory _name, uint16 _regionId, string memory _electionTitle) public adminOnly hasNotStarted {\n        candidatesCount++;\n        candidates[candidatesCount] = Candidate(candidatesCount, _name, _regionId, _electionTitle, true);\n        regions[_regionId].candidatesList.push(candidatesCount);\n    }\n\n    function addRegion(string memory _name, string memory _electionTitle) public adminOnly hasNotStarted {\n        uint16[] memory candidatesList;\n        regionsCount++;\n        regions[regionsCount] = Region(regionsCount, _name, candidatesList, _electionTitle, true);\n    }\n\n    /*\n     * @dev Authenticates the voter, generates the vote code and gives it to user. \n     */\n    function authenticateVoter(string memory _nric, string memory _password) public returns (uint256) {\n        require(voters[keccak256(abi.encodePacked(_nric))] == keccak256(abi.encodePacked(_password)), \"Error, authentication failure\");\n        require(hasRegisteredVote[keccak256(abi.encodePacked(_nric))] == false, \"Has already voted\");\n        uint16 regionid = voterRegions[keccak256(abi.encodePacked(_nric))];\n        Region memory voterRegion = regions[regionid];\n\n        require(voterRegion.valid, \"Invalid Region\");\n        uint256 voteCode = uint(keccak256(abi.encodePacked(block.difficulty, block.timestamp, _nric)));\n        hasRegisteredVote[keccak256(abi.encodePacked(_nric))] = true;\n        voteValidity[voteCode] = regionid;\n        return voteCode;\n    }\n\n    function vote(uint256 _voteCode, uint16 _candidateId) public {\n        require(voteValidity[_voteCode] > 0, \"Error, voteCode is not valid\");\n        require(hasStarted == true && hasEnded == false, \"Error, not available for voting\");\n        require(votes[_voteCode] == bytes32(0), \"Error, vote has already been cast\");\n\n        uint16[] memory voterRegionCandidates = regions[voteValidity[_voteCode]].candidatesList;\n        bool found = false;\n        for (uint16 i=0; i<voterRegionCandidates.length; i++) {\n            if(voterRegionCandidates[i] == _candidateId) {\n                found = true;\n                break;\n            }\n        }\n        require(found == true, \"Error, invalid candidateId\");\n\n        votes[_voteCode] = keccak256(abi.encodePacked(_candidateId)); //Encrypt candidate id only\n\n        emit VoteSucceeded();\n        //voteCodes.(_voteCode); //Voted\n        //add vote to count.\n\n        votecounts[keccak256(abi.encodePacked(_candidateId))] += 1;\n    }\n\n    function getStartDate() public view returns (uint256) {\n        return startDate;\n    }\n\n    function getEndDate() public view returns (uint256) {\n        return endDate;\n    }\n\n    function checkStarted() public view returns (bool) {\n        return hasStarted;\n    }\n\n    function checkEnded() public view returns (bool) {\n        return hasEnded;\n    }\n\n    function changeStartDate(uint256 newStartDate) public adminOnly {\n        require(hasStarted == false, \"Error, election has started\");\n        require(newStartDate > block.timestamp, \"Error, Start Date has passed\");\n\n        startDate = newStartDate;\n    }\n\n    function changeEndDate(uint256 newEndDate) public adminOnly {\n        require(hasStarted == false, \"Error, election has started\");\n        require(newEndDate > startDate, \"Error, End Date cannot be before Start Date\");\n\n        endDate = newEndDate;\n    }\n\n    function startElection() public adminOnly {\n        require(hasStarted == false, \"Error, cannot start election that has already started\");\n        require(block.timestamp >= startDate, \"Can only start after start date\");\n\n        hasStarted = true;\n    }\n\n    function endElection() public adminOnly {\n        require(hasStarted == true, \"Error, election has not started yet\");\n        require(hasEnded == false, \"Error, election has already ended\");\n        require(block.timestamp >= endDate, \"Error, ensure to only end after end time\");\n\n        hasEnded = true;\n    }\n\n    //Gets winner of election\n    function settleResults() public adminOnly returns (string[][] memory) {\n        require(hasEnded == true, \"Result not available yet\");\n        require(results.length == 0, \"Results already settled\");\n\n        for (uint16 i = 0; i < regionsCount; i++) {\n            //Handle Results on a per region basis\n            Region memory regionCheck = regions[i];\n            uint maxCount = 0;\n            uint winner = 0;\n\n            for (uint16 j = 0; i < regionCheck.candidatesList.length; i++) {\n                uint32 votecount =  votecounts[keccak256(abi.encodePacked(regionCheck.candidatesList[j]))];\n                if (votecount > maxCount) {\n                    maxCount = votecount;\n                    winner = regionCheck.candidatesList[j];\n                }\n            }\n\n            string[] memory added = new string[](2);\n            added[0] = regionCheck.name;\n            added[1] = candidates[winner].name;\n            results.push(added);\n        }\n\n        return results;\n    }\n\n    function getWinner(string memory _regionname) public view returns (string memory) {\n        require(hasEnded, \"Error, election has not ended yet\");\n        require(results.length > 0, \"Results not set up yet\");\n        for (uint16 i = 0; i < results.length; i++) {\n            if (StringUtils.equal(_regionname, results[i][0])) {\n                return (results[i][1]);\n            }\n        }\n        revert(\"Region Name does not exist\");\n    }\n\n    function getRegion(uint16 id) public view returns (Region memory) {\n        return regions[id];\n    }\n\n    function getCandidate(uint16 id) public view returns (Candidate memory) {\n        return candidates[id];\n    }\n}",
  "sourcePath": "/Users/USER/Library/Mobile Documents/com~apple~CloudDocs/school/IS4302/project/IS4302/contracts/Election.sol",
  "compiler": {
    "name": "solc",
    "version": "0.8.11+commit.d7f03943.Emscripten.clang"
  },
  "schemaVersion": "3.4.4",
  "updatedAt": "2022-04-06T06:17:48.137Z",
  "networkType": "ethereum",
  "devdoc": {
    "kind": "dev",
    "methods": {},
    "version": 1
  },
  "userdoc": {
    "kind": "user",
    "methods": {},
    "version": 1
  }
}