{
  "contractName": "ElectionAdministrator",
  "abi": [
    {
      "inputs": [],
      "stateMutability": "nonpayable",
      "type": "constructor"
    },
    {
      "anonymous": false,
      "inputs": [
        {
          "indexed": false,
          "internalType": "address",
          "name": "newAdministrator",
          "type": "address"
        },
        {
          "indexed": false,
          "internalType": "address",
          "name": "addedBy",
          "type": "address"
        }
      ],
      "name": "AdministratorAdded",
      "type": "event"
    },
    {
      "anonymous": false,
      "inputs": [
        {
          "indexed": false,
          "internalType": "address",
          "name": "administrator",
          "type": "address"
        }
      ],
      "name": "AdministratorAlreadyExists",
      "type": "event"
    },
    {
      "anonymous": false,
      "inputs": [
        {
          "indexed": false,
          "internalType": "address",
          "name": "administratorToRemove",
          "type": "address"
        },
        {
          "indexed": false,
          "internalType": "address",
          "name": "removedBy",
          "type": "address"
        },
        {
          "indexed": false,
          "internalType": "address",
          "name": "approvedBy",
          "type": "address"
        }
      ],
      "name": "AdministratorApprovedRemoval",
      "type": "event"
    },
    {
      "anonymous": false,
      "inputs": [
        {
          "indexed": false,
          "internalType": "address",
          "name": "adminisrtrator",
          "type": "address"
        }
      ],
      "name": "AdministratorDoesNotExist",
      "type": "event"
    },
    {
      "anonymous": false,
      "inputs": [
        {
          "indexed": false,
          "internalType": "address",
          "name": "administratorToRemove",
          "type": "address"
        },
        {
          "indexed": false,
          "internalType": "address",
          "name": "removedBy",
          "type": "address"
        },
        {
          "indexed": false,
          "internalType": "address",
          "name": "rejectedBy",
          "type": "address"
        }
      ],
      "name": "AdministratorRejectRemoval",
      "type": "event"
    },
    {
      "anonymous": false,
      "inputs": [
        {
          "indexed": false,
          "internalType": "address",
          "name": "administratorToRemove",
          "type": "address"
        },
        {
          "indexed": false,
          "internalType": "address",
          "name": "removedBy",
          "type": "address"
        }
      ],
      "name": "AdministratorSetPendingRemoval",
      "type": "event"
    },
    {
      "anonymous": false,
      "inputs": [
        {
          "indexed": false,
          "internalType": "address",
          "name": "administrator",
          "type": "address"
        }
      ],
      "name": "AlreadyPendingRemoval",
      "type": "event"
    },
    {
      "inputs": [
        {
          "internalType": "address",
          "name": "newAdministrator",
          "type": "address"
        }
      ],
      "name": "addAdministrator",
      "outputs": [],
      "stateMutability": "nonpayable",
      "type": "function"
    },
    {
      "inputs": [
        {
          "internalType": "address",
          "name": "administratorToRemove",
          "type": "address"
        }
      ],
      "name": "setPendingRemoval",
      "outputs": [],
      "stateMutability": "nonpayable",
      "type": "function"
    },
    {
      "inputs": [
        {
          "internalType": "address",
          "name": "administratorToRemove",
          "type": "address"
        }
      ],
      "name": "approveRemoval",
      "outputs": [],
      "stateMutability": "nonpayable",
      "type": "function"
    },
    {
      "inputs": [
        {
          "internalType": "address",
          "name": "administratorToRemove",
          "type": "address"
        }
      ],
      "name": "rejectRemoval",
      "outputs": [],
      "stateMutability": "nonpayable",
      "type": "function"
    },
    {
      "inputs": [
        {
          "internalType": "address",
          "name": "check",
          "type": "address"
        }
      ],
      "name": "isAdministrator",
      "outputs": [
        {
          "internalType": "bool",
          "name": "",
          "type": "bool"
        }
      ],
      "stateMutability": "view",
      "type": "function",
      "constant": true
    }
  ],
  "bytecode": "0x608060405234801561001057600080fd5b5060016000803373ffffffffffffffffffffffffffffffffffffffff1673ffffffffffffffffffffffffffffffffffffffff16815260200190815260200160002060006101000a81548160ff021916908315150217905550611054806100776000396000f3fe608060405234801561001057600080fd5b50600436106100575760003560e01c80630a2eb3011461005c5780635f2ad3461461008c5780637cd1a6f4146100a8578063c9991176146100c4578063dfe173bf146100e0575b600080fd5b61007660048036038101906100719190610cfe565b6100fc565b6040516100839190610d46565b60405180910390f35b6100a660048036038101906100a19190610cfe565b610151565b005b6100c260048036038101906100bd9190610cfe565b6103f4565b005b6100de60048036038101906100d99190610cfe565b610804565b005b6100fa60048036038101906100f59190610cfe565b6109b0565b005b60008060008373ffffffffffffffffffffffffffffffffffffffff1673ffffffffffffffffffffffffffffffffffffffff16815260200190815260200160002060009054906101000a900460ff169050919050565b6000803373ffffffffffffffffffffffffffffffffffffffff1673ffffffffffffffffffffffffffffffffffffffff16815260200190815260200160002060009054906101000a900460ff166101dc576040517f08c379a00000000000000000000000000000000000000000000000000000000081526004016101d390610dbe565b60405180910390fd5b6000808273ffffffffffffffffffffffffffffffffffffffff1673ffffffffffffffffffffffffffffffffffffffff16815260200190815260200160002060009054906101000a900460ff16156103b957600073ffffffffffffffffffffffffffffffffffffffff16600160008373ffffffffffffffffffffffffffffffffffffffff1673ffffffffffffffffffffffffffffffffffffffff16815260200190815260200160002060009054906101000a900473ffffffffffffffffffffffffffffffffffffffff1673ffffffffffffffffffffffffffffffffffffffff16146102fc577f7af6935eca0021c622a9b310853b8717b06dcb814d9b0ee08149bdd23fc46320816040516102ef9190610ded565b60405180910390a16103b4565b33600160008373ffffffffffffffffffffffffffffffffffffffff1673ffffffffffffffffffffffffffffffffffffffff16815260200190815260200160002060006101000a81548173ffffffffffffffffffffffffffffffffffffffff021916908373ffffffffffffffffffffffffffffffffffffffff1602179055507fac6645cdf63771fc26f17ab531b505c090b210ac21c5e280411ff61de45b9d4a81336040516103ab929190610e08565b60405180910390a15b6103f1565b7f6623e8a85267948cc5b356f91ad62fbd2cfc24f6ee03cf75c844134bc1d8034e816040516103e89190610ded565b60405180910390a15b50565b6000803373ffffffffffffffffffffffffffffffffffffffff1673ffffffffffffffffffffffffffffffffffffffff16815260200190815260200160002060009054906101000a900460ff1661047f576040517f08c379a000000000000000000000000000000000000000000000000000000000815260040161047690610dbe565b60405180910390fd5b8073ffffffffffffffffffffffffffffffffffffffff163373ffffffffffffffffffffffffffffffffffffffff1614156104ee576040517f08c379a00000000000000000000000000000000000000000000000000000000081526004016104e590610ea3565b60405180910390fd5b3373ffffffffffffffffffffffffffffffffffffffff16600160008373ffffffffffffffffffffffffffffffffffffffff1673ffffffffffffffffffffffffffffffffffffffff16815260200190815260200160002060009054906101000a900473ffffffffffffffffffffffffffffffffffffffff1673ffffffffffffffffffffffffffffffffffffffff1614156105bc576040517f08c379a00000000000000000000000000000000000000000000000000000000081526004016105b390610f35565b60405180910390fd5b600073ffffffffffffffffffffffffffffffffffffffff16600160008373ffffffffffffffffffffffffffffffffffffffff1673ffffffffffffffffffffffffffffffffffffffff16815260200190815260200160002060009054906101000a900473ffffffffffffffffffffffffffffffffffffffff1673ffffffffffffffffffffffffffffffffffffffff16141561068b576040517f08c379a000000000000000000000000000000000000000000000000000000000815260040161068290610fc7565b60405180910390fd5b6000600160008373ffffffffffffffffffffffffffffffffffffffff1673ffffffffffffffffffffffffffffffffffffffff16815260200190815260200160002060009054906101000a900473ffffffffffffffffffffffffffffffffffffffff16905060008060008473ffffffffffffffffffffffffffffffffffffffff1673ffffffffffffffffffffffffffffffffffffffff16815260200190815260200160002060006101000a81548160ff0219169083151502179055506000600160008473ffffffffffffffffffffffffffffffffffffffff1673ffffffffffffffffffffffffffffffffffffffff16815260200190815260200160002060006101000a81548173ffffffffffffffffffffffffffffffffffffffff021916908373ffffffffffffffffffffffffffffffffffffffff1602179055507f996af1b4fab86e0c38439bb59a42e506f27f4304a369e9ed519cd0727e2b044e8282336040516107f893929190610fe7565b60405180910390a15050565b6000803373ffffffffffffffffffffffffffffffffffffffff1673ffffffffffffffffffffffffffffffffffffffff16815260200190815260200160002060009054906101000a900460ff1661088f576040517f08c379a000000000000000000000000000000000000000000000000000000000815260040161088690610dbe565b60405180910390fd5b6000808273ffffffffffffffffffffffffffffffffffffffff1673ffffffffffffffffffffffffffffffffffffffff16815260200190815260200160002060009054906101000a900460ff161561091c577f4cd9d6f9e7ad0170e866104df8f2cf47b8eb35879e9aeb1815ffe9a402416edb8160405161090f9190610ded565b60405180910390a16109ad565b60016000808373ffffffffffffffffffffffffffffffffffffffff1673ffffffffffffffffffffffffffffffffffffffff16815260200190815260200160002060006101000a81548160ff0219169083151502179055507fa2f792d5cab45450daed47916f25d9bd3443d275c51ecbccfbeb727a3b4eda0e81336040516109a4929190610e08565b60405180910390a15b50565b6000803373ffffffffffffffffffffffffffffffffffffffff1673ffffffffffffffffffffffffffffffffffffffff16815260200190815260200160002060009054906101000a900460ff16610a3b576040517f08c379a0000000000000000000000000000000000000000000000000000000008152600401610a3290610dbe565b60405180910390fd5b8073ffffffffffffffffffffffffffffffffffffffff163373ffffffffffffffffffffffffffffffffffffffff161415610aaa576040517f08c379a0000000000000000000000000000000000000000000000000000000008152600401610aa190610ea3565b60405180910390fd5b600073ffffffffffffffffffffffffffffffffffffffff16600160008373ffffffffffffffffffffffffffffffffffffffff1673ffffffffffffffffffffffffffffffffffffffff16815260200190815260200160002060009054906101000a900473ffffffffffffffffffffffffffffffffffffffff1673ffffffffffffffffffffffffffffffffffffffff161415610b79576040517f08c379a0000000000000000000000000000000000000000000000000000000008152600401610b7090610fc7565b60405180910390fd5b6000600160008373ffffffffffffffffffffffffffffffffffffffff1673ffffffffffffffffffffffffffffffffffffffff16815260200190815260200160002060009054906101000a900473ffffffffffffffffffffffffffffffffffffffff1690506000600160008473ffffffffffffffffffffffffffffffffffffffff1673ffffffffffffffffffffffffffffffffffffffff16815260200190815260200160002060006101000a81548173ffffffffffffffffffffffffffffffffffffffff021916908373ffffffffffffffffffffffffffffffffffffffff1602179055507f996af1b4fab86e0c38439bb59a42e506f27f4304a369e9ed519cd0727e2b044e828233604051610c8f93929190610fe7565b60405180910390a15050565b600080fd5b600073ffffffffffffffffffffffffffffffffffffffff82169050919050565b6000610ccb82610ca0565b9050919050565b610cdb81610cc0565b8114610ce657600080fd5b50565b600081359050610cf881610cd2565b92915050565b600060208284031215610d1457610d13610c9b565b5b6000610d2284828501610ce9565b91505092915050565b60008115159050919050565b610d4081610d2b565b82525050565b6000602082019050610d5b6000830184610d37565b92915050565b600082825260208201905092915050565b7f41646d696e206f6e6c7900000000000000000000000000000000000000000000600082015250565b6000610da8600a83610d61565b9150610db382610d72565b602082019050919050565b60006020820190508181036000830152610dd781610d9b565b9050919050565b610de781610cc0565b82525050565b6000602082019050610e026000830184610dde565b92915050565b6000604082019050610e1d6000830185610dde565b610e2a6020830184610dde565b9392505050565b7f596f752063616e6e6f7420617070726f7665206f722072656a6563742061207260008201527f656d6f76616c206f6620796f757273656c660000000000000000000000000000602082015250565b6000610e8d603283610d61565b9150610e9882610e31565b604082019050919050565b60006020820190508181036000830152610ebc81610e80565b9050919050565b7f596f752063616e6e6f7420617070726f766520612072656d6f76616c2074686160008201527f7420796f752068617665206d6164652e00000000000000000000000000000000602082015250565b6000610f1f603083610d61565b9150610f2a82610ec3565b604082019050919050565b60006020820190508181036000830152610f4e81610f12565b9050919050565b7f5468652061646d696e6973747261746f7220686173206e6f74206265656e207360008201527f657420746f2070656e64696e672072656d6f76616c2079657400000000000000602082015250565b6000610fb1603983610d61565b9150610fbc82610f55565b604082019050919050565b60006020820190508181036000830152610fe081610fa4565b9050919050565b6000606082019050610ffc6000830186610dde565b6110096020830185610dde565b6110166040830184610dde565b94935050505056fea26469706673582212201bf82bbbc9b4d67f6743aa1af5286e166b19d7e30853f79b3fd8c3110311a84264736f6c634300080b0033",
  "immutableReferences": {},
  "source": "// SPDX-License-Identifier: UNLICENSED\npragma solidity ^0.8.0;\n\n\n/** \n * @dev The Election Administrator Contract contains the information of all election administrators. Due to the nature of the elections, \n * the election administrators' addresses will change over time. Therefore a seperate logical contract is a good idea to keep track of such changes.\n * \n * The majority of an administration's functions will be on the election contracts.\n */\ncontract ElectionAdministrator {\n    \n    mapping (address => bool) private administrators;\n    mapping (address => address) private administratorsPendingRemoval; //Removing Single Point of Failure, requires more than one admin to approve a removal process.\n\n    event AdministratorAdded(address newAdministrator, address addedBy);\n    event AdministratorAlreadyExists(address administrator);\n    event AlreadyPendingRemoval(address administrator);\n    event AdministratorSetPendingRemoval(address administratorToRemove, address removedBy);\n    event AdministratorApprovedRemoval(address administratorToRemove, address removedBy, address approvedBy);\n    event AdministratorRejectRemoval(address administratorToRemove, address removedBy, address rejectedBy);\n    event AdministratorDoesNotExist(address adminisrtrator);\n\n    constructor () {\n        administrators[msg.sender] = true;\n    }\n\n    modifier adminOnly {\n        require (administrators[msg.sender], \"Admin only\");\n        _;\n    }\n\n    function addAdministrator(address newAdministrator) public adminOnly {\n        if (administrators[newAdministrator]) {\n            emit AdministratorAlreadyExists(newAdministrator);\n        } else {\n            administrators[newAdministrator] = true;\n            emit AdministratorAdded(newAdministrator, msg.sender);\n        }\n    }\n\n    function setPendingRemoval(address administratorToRemove) public adminOnly {\n        if (administrators[administratorToRemove]) {\n            if (administratorsPendingRemoval[administratorToRemove] != address(0)) {\n                emit AlreadyPendingRemoval(administratorToRemove);\n            } else {\n                administratorsPendingRemoval[administratorToRemove] = msg.sender;\n                emit AdministratorSetPendingRemoval(administratorToRemove, msg.sender);\n            }\n        } else {\n            emit AdministratorDoesNotExist(administratorToRemove);\n        }   \n    }\n\n    function approveRemoval(address administratorToRemove) public adminOnly {\n        require (msg.sender != administratorToRemove, \"You cannot approve or reject a removal of yourself\");\n        require (administratorsPendingRemoval[administratorToRemove] != msg.sender, \"You cannot approve a removal that you have made.\");\n        require (administratorsPendingRemoval[administratorToRemove] != address(0), \"The administrator has not been set to pending removal yet\");\n\n        address removedBy = administratorsPendingRemoval[administratorToRemove];\n        administrators[administratorToRemove] = false;\n        administratorsPendingRemoval[administratorToRemove] = address(0);\n\n        emit AdministratorApprovedRemoval(administratorToRemove, removedBy, msg.sender);\n    }\n\n    function rejectRemoval(address administratorToRemove) public adminOnly {\n        require (msg.sender != administratorToRemove, \"You cannot approve or reject a removal of yourself\");\n        require (administratorsPendingRemoval[administratorToRemove] != address(0), \"The administrator has not been set to pending removal yet\");\n\n        address removedBy = administratorsPendingRemoval[administratorToRemove];\n        administratorsPendingRemoval[administratorToRemove] = address(0);\n\n        emit AdministratorApprovedRemoval(administratorToRemove, removedBy, msg.sender);\n    }\n\n    function isAdministrator(address check) public view returns (bool) {\n        return administrators[check];\n    }\n}",
  "sourcePath": "/Users/USER/Library/Mobile Documents/com~apple~CloudDocs/school/IS4302/project/IS4302/contracts/ElectionAdministrator.sol",
  "compiler": {
    "name": "solc",
    "version": "0.8.11+commit.d7f03943.Emscripten.clang"
  },
  "schemaVersion": "3.4.4",
  "updatedAt": "2022-04-06T06:17:48.151Z",
  "networkType": "ethereum",
  "devdoc": {
    "details": "The Election Administrator Contract contains the information of all election administrators. Due to the nature of the elections,  the election administrators' addresses will change over time. Therefore a seperate logical contract is a good idea to keep track of such changes.  The majority of an administration's functions will be on the election contracts.",
    "kind": "dev",
    "methods": {},
    "version": 1
  },
  "userdoc": {
    "kind": "user",
    "methods": {},
    "version": 1
  }
}