{
  "contractName": "Election",
  "abi": [
    {
      "inputs": [
        {
          "internalType": "string",
          "name": "_electionTitle",
          "type": "string"
        },
        {
          "internalType": "uint256",
          "name": "_startDate",
          "type": "uint256"
        },
        {
          "internalType": "uint256",
          "name": "_endDate",
          "type": "uint256"
        },
        {
          "internalType": "contract ElectionAdministrator",
          "name": "_administratorContract",
          "type": "address"
        }
      ],
      "stateMutability": "nonpayable",
      "type": "constructor"
    },
    {
      "anonymous": false,
      "inputs": [
        {
          "indexed": false,
          "internalType": "string",
          "name": "region",
          "type": "string"
        },
        {
          "indexed": false,
          "internalType": "string",
          "name": "candidate",
          "type": "string"
        },
        {
          "indexed": false,
          "internalType": "uint32",
          "name": "votes",
          "type": "uint32"
        }
      ],
      "name": "ElectionWinner",
      "type": "event"
    },
    {
      "anonymous": false,
      "inputs": [],
      "name": "VoteSucceeded",
      "type": "event"
    },
    {
      "inputs": [
        {
          "internalType": "uint256",
          "name": "",
          "type": "uint256"
        }
      ],
      "name": "candidates",
      "outputs": [
        {
          "internalType": "uint16",
          "name": "id",
          "type": "uint16"
        },
        {
          "internalType": "string",
          "name": "name",
          "type": "string"
        },
        {
          "internalType": "uint16",
          "name": "regionId",
          "type": "uint16"
        },
        {
          "internalType": "string",
          "name": "electionTitle",
          "type": "string"
        },
        {
          "internalType": "bool",
          "name": "valid",
          "type": "bool"
        }
      ],
      "stateMutability": "view",
      "type": "function"
    },
    {
      "inputs": [
        {
          "internalType": "uint256",
          "name": "",
          "type": "uint256"
        }
      ],
      "name": "regions",
      "outputs": [
        {
          "internalType": "uint16",
          "name": "regionId",
          "type": "uint16"
        },
        {
          "internalType": "string",
          "name": "name",
          "type": "string"
        },
        {
          "internalType": "string",
          "name": "electionTitle",
          "type": "string"
        },
        {
          "internalType": "bool",
          "name": "valid",
          "type": "bool"
        }
      ],
      "stateMutability": "view",
      "type": "function"
    },
    {
      "inputs": [
        {
          "internalType": "address",
          "name": "pollsystem",
          "type": "address"
        }
      ],
      "name": "addSystem",
      "outputs": [],
      "stateMutability": "nonpayable",
      "type": "function"
    },
    {
      "inputs": [
        {
          "internalType": "address",
          "name": "pollsystem",
          "type": "address"
        }
      ],
      "name": "removeSystem",
      "outputs": [],
      "stateMutability": "nonpayable",
      "type": "function"
    },
    {
      "inputs": [
        {
          "internalType": "string",
          "name": "_name",
          "type": "string"
        },
        {
          "internalType": "uint16",
          "name": "_regionId",
          "type": "uint16"
        },
        {
          "internalType": "string",
          "name": "_electionTitle",
          "type": "string"
        }
      ],
      "name": "addCandidate",
      "outputs": [],
      "stateMutability": "nonpayable",
      "type": "function"
    },
    {
      "inputs": [
        {
          "internalType": "string",
          "name": "_name",
          "type": "string"
        },
        {
          "internalType": "string",
          "name": "_electionTitle",
          "type": "string"
        }
      ],
      "name": "addRegion",
      "outputs": [],
      "stateMutability": "nonpayable",
      "type": "function"
    },
    {
      "inputs": [
        {
          "internalType": "string",
          "name": "_nric",
          "type": "string"
        },
        {
          "internalType": "string",
          "name": "_password",
          "type": "string"
        }
      ],
      "name": "authenticateVoter",
      "outputs": [
        {
          "internalType": "uint256",
          "name": "",
          "type": "uint256"
        }
      ],
      "stateMutability": "nonpayable",
      "type": "function"
    },
    {
      "inputs": [
        {
          "internalType": "uint256",
          "name": "_voteCode",
          "type": "uint256"
        },
        {
          "internalType": "uint16",
          "name": "_candidateId",
          "type": "uint16"
        }
      ],
      "name": "vote",
      "outputs": [],
      "stateMutability": "nonpayable",
      "type": "function"
    },
    {
      "inputs": [],
      "name": "getStartDate",
      "outputs": [
        {
          "internalType": "uint256",
          "name": "",
          "type": "uint256"
        }
      ],
      "stateMutability": "view",
      "type": "function"
    },
    {
      "inputs": [],
      "name": "getEndDate",
      "outputs": [
        {
          "internalType": "uint256",
          "name": "",
          "type": "uint256"
        }
      ],
      "stateMutability": "view",
      "type": "function"
    },
    {
      "inputs": [],
      "name": "checkStarted",
      "outputs": [
        {
          "internalType": "bool",
          "name": "",
          "type": "bool"
        }
      ],
      "stateMutability": "view",
      "type": "function"
    },
    {
      "inputs": [],
      "name": "checkEnded",
      "outputs": [
        {
          "internalType": "bool",
          "name": "",
          "type": "bool"
        }
      ],
      "stateMutability": "view",
      "type": "function"
    },
    {
      "inputs": [
        {
          "internalType": "uint256",
          "name": "newStartDate",
          "type": "uint256"
        }
      ],
      "name": "changeStartDate",
      "outputs": [],
      "stateMutability": "nonpayable",
      "type": "function"
    },
    {
      "inputs": [
        {
          "internalType": "uint256",
          "name": "newEndDate",
          "type": "uint256"
        }
      ],
      "name": "changeEndDate",
      "outputs": [],
      "stateMutability": "nonpayable",
      "type": "function"
    },
    {
      "inputs": [],
      "name": "startElection",
      "outputs": [],
      "stateMutability": "nonpayable",
      "type": "function"
    },
    {
      "inputs": [],
      "name": "endElection",
      "outputs": [],
      "stateMutability": "nonpayable",
      "type": "function"
    },
    {
      "inputs": [],
      "name": "settleResults",
      "outputs": [
        {
          "internalType": "string[][]",
          "name": "",
          "type": "string[][]"
        }
      ],
      "stateMutability": "nonpayable",
      "type": "function"
    },
    {
      "inputs": [
        {
          "internalType": "string",
          "name": "_regionname",
          "type": "string"
        }
      ],
      "name": "getWinner",
      "outputs": [
        {
          "internalType": "string",
          "name": "",
          "type": "string"
        }
      ],
      "stateMutability": "view",
      "type": "function"
    },
    {
      "inputs": [
        {
          "internalType": "uint16",
          "name": "id",
          "type": "uint16"
        }
      ],
      "name": "getRegion",
      "outputs": [
        {
          "components": [
            {
              "internalType": "uint16",
              "name": "regionId",
              "type": "uint16"
            },
            {
              "internalType": "string",
              "name": "name",
              "type": "string"
            },
            {
              "internalType": "uint16[]",
              "name": "candidatesList",
              "type": "uint16[]"
            },
            {
              "internalType": "string",
              "name": "electionTitle",
              "type": "string"
            },
            {
              "internalType": "bool",
              "name": "valid",
              "type": "bool"
            }
          ],
          "internalType": "struct Election.Region",
          "name": "",
          "type": "tuple"
        }
      ],
      "stateMutability": "view",
      "type": "function"
    },
    {
      "inputs": [
        {
          "internalType": "uint16",
          "name": "id",
          "type": "uint16"
        }
      ],
      "name": "getCandidate",
      "outputs": [
        {
          "components": [
            {
              "internalType": "uint16",
              "name": "id",
              "type": "uint16"
            },
            {
              "internalType": "string",
              "name": "name",
              "type": "string"
            },
            {
              "internalType": "uint16",
              "name": "regionId",
              "type": "uint16"
            },
            {
              "internalType": "string",
              "name": "electionTitle",
              "type": "string"
            },
            {
              "internalType": "bool",
              "name": "valid",
              "type": "bool"
            }
          ],
          "internalType": "struct Election.Candidate",
          "name": "",
          "type": "tuple"
        }
      ],
      "stateMutability": "view",
      "type": "function"
    },
    {
      "inputs": [],
      "name": "checkExists",
      "outputs": [
        {
          "internalType": "bool",
          "name": "",
          "type": "bool"
        }
      ],
      "stateMutability": "view",
      "type": "function"
    }
  ],
  "bytecode": "0x60806040523480156200001157600080fd5b5060405162004da638038062004da683398181016040528101906200003791906200031a565b4283116200007c576040517f08c379a00000000000000000000000000000000000000000000000000000000081526004016200007390620004f5565b60405180910390fd5b828211620000c1576040517f08c379a0000000000000000000000000000000000000000000000000000000008152600401620000b890620004b1565b60405180910390fd5b600084511162000108576040517f08c379a0000000000000000000000000000000000000000000000000000000008152600401620000ff90620004d3565b60405180910390fd5b836001908051906020019062000120929190620001ca565b5082600281905550816003819055506000600460006101000a81548160ff0219169083151502179055506000600460016101000a81548160ff021916908315150217905550806000806101000a81548173ffffffffffffffffffffffffffffffffffffffff021916908373ffffffffffffffffffffffffffffffffffffffff1602179055506001600760006101000a81548160ff02191690831515021790555050505050620006df565b828054620001d89062000617565b90600052602060002090601f016020900481019282620001fc576000855562000248565b82601f106200021757805160ff191683800117855562000248565b8280016001018555821562000248579182015b82811115620002475782518255916020019190600101906200022a565b5b5090506200025791906200025b565b5090565b5b80821115620002765760008160009055506001016200025c565b5090565b6000620002916200028b846200054b565b62000517565b905082815260208101848484011115620002aa57600080fd5b620002b7848285620005e1565b509392505050565b600081519050620002d081620006ab565b92915050565b600082601f830112620002e857600080fd5b8151620002fa8482602086016200027a565b91505092915050565b6000815190506200031481620006c5565b92915050565b600080600080608085870312156200033157600080fd5b600085015167ffffffffffffffff8111156200034c57600080fd5b6200035a87828801620002d6565b94505060206200036d8782880162000303565b9350506040620003808782880162000303565b92505060606200039387828801620002bf565b91505092959194509250565b6000620003ae602c836200057e565b91507f4572726f722c20456e6420446174652063616e6e6f74206265206265666f726560008301527f20737461727420646174652e00000000000000000000000000000000000000006020830152604082019050919050565b6000620004166022836200057e565b91507f4572726f722c206d75737420696e636c75646520656c656374696f6e2074697460008301527f6c650000000000000000000000000000000000000000000000000000000000006020830152604082019050919050565b60006200047e601d836200057e565b91507f4572726f722c205374617274204461746520686173207061737365642e0000006000830152602082019050919050565b60006020820190508181036000830152620004cc816200039f565b9050919050565b60006020820190508181036000830152620004ee8162000407565b9050919050565b6000602082019050818103600083015262000510816200046f565b9050919050565b6000604051905081810181811067ffffffffffffffff821117156200054157620005406200067c565b5b8060405250919050565b600067ffffffffffffffff8211156200056957620005686200067c565b5b601f19601f8301169050602081019050919050565b600082825260208201905092915050565b60006200059c82620005b7565b9050919050565b6000620005b0826200058f565b9050919050565b600073ffffffffffffffffffffffffffffffffffffffff82169050919050565b6000819050919050565b60005b8381101562000601578082015181840152602081019050620005e4565b8381111562000611576000848401525b50505050565b600060028204905060018216806200063057607f821691505b602082108114156200064757620006466200064d565b5b50919050565b7f4e487b7100000000000000000000000000000000000000000000000000000000600052602260045260246000fd5b7f4e487b7100000000000000000000000000000000000000000000000000000000600052604160045260246000fd5b620006b681620005a3565b8114620006c257600080fd5b50565b620006d081620005d7565b8114620006dc57600080fd5b50565b6146b780620006ef6000396000f3fe608060405234801561001057600080fd5b5060043610610153576000357c0100000000000000000000000000000000000000000000000000000000900480636bdc838e116100d55780639ff898b4116100995780639ff898b414610339578063b135648814610355578063b5d8e0a014610373578063dbbb05941461038f578063dfefe9f9146103bf578063f461ba0a146103ef57610153565b80636bdc838e1461029357806374be7592146102c357806378f305c6146102df5780637dad94ce146102fd578063941799dd1461031b57610153565b806345737b1e1161011c57806345737b1e1461021757806359f78468146102335780635b80df901461023d57806362d73eb81461026d5780636664b0ee1461027757610153565b8062739f2a14610158578063132abfb6146101745780631d57a64f146101a75780632f635841146101c55780633477ee2e146101e3575b600080fd5b610172600480360381019061016d91906132ac565b61040b565b005b61018e600480360381019061018991906132ac565b6105b1565b60405161019e94939291906141c8565b60405180910390f35b6101af61070c565b6040516101bc9190613e70565b60405180910390f35b6101cd610723565b6040516101da9190613e4e565b60405180910390f35b6101fd60048036038101906101f891906132ac565b610f2f565b60405161020e95949392919061421b565b60405180910390f35b610231600480360381019061022c91906132ac565b61109e565b005b61023b611246565b005b61025760048036038101906102529190613157565b611458565b6040516102649190613e8b565b60405180910390f35b6102756117a9565b005b610291600480360381019061028c9190613198565b611965565b005b6102ad60048036038101906102a89190613198565b611bc8565b6040516102ba919061427c565b60405180910390f35b6102dd60048036038101906102d89190613105565b61204c565b005b6102e76121cb565b6040516102f4919061427c565b60405180910390f35b6103056121d5565b6040516103129190613e70565b60405180910390f35b6103236121ec565b6040516103309190613e70565b60405180910390f35b610353600480360381019061034e91906132d5565b612203565b005b61035d61259f565b60405161036a919061427c565b60405180910390f35b61038d60048036038101906103889190613105565b6125a9565b005b6103a960048036038101906103a49190613283565b612728565b6040516103b69190614184565b60405180910390f35b6103d960048036038101906103d49190613283565b6128d8565b6040516103e691906141a6565b60405180910390f35b61040960048036038101906104049190613204565b612ae8565b005b60008054906101000a900473ffffffffffffffffffffffffffffffffffffffff1673ffffffffffffffffffffffffffffffffffffffff16630a2eb301336040518263ffffffff167c01000000000000000000000000000000000000000000000000000000000281526004016104809190613e33565b60206040518083038186803b15801561049857600080fd5b505afa1580156104ac573d6000803e3d6000fd5b505050506040513d601f19601f820116820180604052508101906104d0919061312e565b61050f576040517f08c379a000000000000000000000000000000000000000000000000000000000815260040161050690613fe4565b60405180910390fd5b60001515600460009054906101000a900460ff16151514610565576040517f08c379a000000000000000000000000000000000000000000000000000000000815260040161055c90613f44565b60405180910390fd5b4281116105a7576040517f08c379a000000000000000000000000000000000000000000000000000000000815260040161059e90614144565b60405180910390fd5b8060028190555050565b600a6020528060005260406000206000915090508060000160009054906101000a900461ffff16908060010180546105e8906144e3565b80601f0160208091040260200160405190810160405280929190818152602001828054610614906144e3565b80156106615780601f1061063657610100808354040283529160200191610661565b820191906000526020600020905b81548152906001019060200180831161064457829003601f168201915b505050505090806003018054610676906144e3565b80601f01602080910402602001604051908101604052809291908181526020018280546106a2906144e3565b80156106ef5780601f106106c4576101008083540402835291602001916106ef565b820191906000526020600020905b8154815290600101906020018083116106d257829003601f168201915b5050505050908060040160009054906101000a900460ff16905084565b6000600760009054906101000a900460ff16905090565b606060008054906101000a900473ffffffffffffffffffffffffffffffffffffffff1673ffffffffffffffffffffffffffffffffffffffff16630a2eb301336040518263ffffffff167c010000000000000000000000000000000000000000000000000000000002815260040161079a9190613e33565b60206040518083038186803b1580156107b257600080fd5b505afa1580156107c6573d6000803e3d6000fd5b505050506040513d601f19601f820116820180604052508101906107ea919061312e565b610829576040517f08c379a000000000000000000000000000000000000000000000000000000000815260040161082090613fe4565b60405180910390fd5b60011515600460019054906101000a900460ff1615151461087f576040517f08c379a0000000000000000000000000000000000000000000000000000000008152600401610876906140e4565b60405180910390fd5b6000600680549050146108c7576040517f08c379a00000000000000000000000000000000000000000000000000000000081526004016108be90614044565b60405180910390fd5b60005b60048054906101000a900461ffff1661ffff168161ffff161015610e10576000600a60008361ffff1681526020019081526020016000206040518060a00160405290816000820160009054906101000a900461ffff1661ffff1661ffff16815260200160018201805461093c906144e3565b80601f0160208091040260200160405190810160405280929190818152602001828054610968906144e3565b80156109b55780601f1061098a576101008083540402835291602001916109b5565b820191906000526020600020905b81548152906001019060200180831161099857829003601f168201915b5050505050815260200160028201805480602002602001604051908101604052809291908181526020018280548015610a3557602002820191906000526020600020906000905b82829054906101000a900461ffff1661ffff16815260200190600201906020826001010492830192600103820291508084116109fc5790505b50505050508152602001600382018054610a4e906144e3565b80601f0160208091040260200160405190810160405280929190818152602001828054610a7a906144e3565b8015610ac75780601f10610a9c57610100808354040283529160200191610ac7565b820191906000526020600020905b815481529060010190602001808311610aaa57829003601f168201915b505050505081526020016004820160009054906101000a900460ff161515151581525050905060008060005b8360400151518561ffff161015610c155760006010600086604001518461ffff1681518110610b4b577f4e487b7100000000000000000000000000000000000000000000000000000000600052603260045260246000fd5b6020026020010151604051602001610b639190613ddf565b60405160208183030381529060405280519060200120815260200190815260200160002060009054906101000a900463ffffffff169050838163ffffffff161115610c01578063ffffffff16935084604001518261ffff1681518110610bf2577f4e487b7100000000000000000000000000000000000000000000000000000000600052603260045260246000fd5b602002602001015161ffff1692505b508480610c0d90614515565b955050610af3565b506000600267ffffffffffffffff811115610c59577f4e487b7100000000000000000000000000000000000000000000000000000000600052604160045260246000fd5b604051908082528060200260200182016040528015610c8c57816020015b6060815260200190600190039081610c775790505b509050836020015181600081518110610cce577f4e487b7100000000000000000000000000000000000000000000000000000000600052603260045260246000fd5b6020026020010181905250600960008381526020019081526020016000206001018054610cfa906144e3565b80601f0160208091040260200160405190810160405280929190818152602001828054610d26906144e3565b8015610d735780601f10610d4857610100808354040283529160200191610d73565b820191906000526020600020905b815481529060010190602001808311610d5657829003601f168201915b505050505081600181518110610db2577f4e487b7100000000000000000000000000000000000000000000000000000000600052603260045260246000fd5b6020026020010181905250600681908060018154018082558091505060019003906000526020600020016000909190919091509080519060200190610df8929190612dca565b50505050508080610e0890614515565b9150506108ca565b506006805480602002602001604051908101604052809291908181526020016000905b82821015610f2657838290600052602060002001805480602002602001604051908101604052809291908181526020016000905b82821015610f13578382906000526020600020018054610e86906144e3565b80601f0160208091040260200160405190810160405280929190818152602001828054610eb2906144e3565b8015610eff5780601f10610ed457610100808354040283529160200191610eff565b820191906000526020600020905b815481529060010190602001808311610ee257829003601f168201915b505050505081526020019060010190610e67565b5050505081526020019060010190610e33565b50505050905090565b60096020528060005260406000206000915090508060000160009054906101000a900461ffff1690806001018054610f66906144e3565b80601f0160208091040260200160405190810160405280929190818152602001828054610f92906144e3565b8015610fdf5780601f10610fb457610100808354040283529160200191610fdf565b820191906000526020600020905b815481529060010190602001808311610fc257829003601f168201915b5050505050908060020160009054906101000a900461ffff1690806003018054611008906144e3565b80601f0160208091040260200160405190810160405280929190818152602001828054611034906144e3565b80156110815780601f1061105657610100808354040283529160200191611081565b820191906000526020600020905b81548152906001019060200180831161106457829003601f168201915b5050505050908060040160009054906101000a900460ff16905085565b60008054906101000a900473ffffffffffffffffffffffffffffffffffffffff1673ffffffffffffffffffffffffffffffffffffffff16630a2eb301336040518263ffffffff167c01000000000000000000000000000000000000000000000000000000000281526004016111139190613e33565b60206040518083038186803b15801561112b57600080fd5b505afa15801561113f573d6000803e3d6000fd5b505050506040513d601f19601f82011682018060405250810190611163919061312e565b6111a2576040517f08c379a000000000000000000000000000000000000000000000000000000000815260040161119990613fe4565b60405180910390fd5b60001515600460009054906101000a900460ff161515146111f8576040517f08c379a00000000000000000000000000000000000000000000000000000000081526004016111ef90613f44565b60405180910390fd5b600254811161123c576040517f08c379a000000000000000000000000000000000000000000000000000000000815260040161123390614084565b60405180910390fd5b8060038190555050565b60008054906101000a900473ffffffffffffffffffffffffffffffffffffffff1673ffffffffffffffffffffffffffffffffffffffff16630a2eb301336040518263ffffffff167c01000000000000000000000000000000000000000000000000000000000281526004016112bb9190613e33565b60206040518083038186803b1580156112d357600080fd5b505afa1580156112e7573d6000803e3d6000fd5b505050506040513d601f19601f8201168201806040525081019061130b919061312e565b61134a576040517f08c379a000000000000000000000000000000000000000000000000000000000815260040161134190613fe4565b60405180910390fd5b60011515600460009054906101000a900460ff161515146113a0576040517f08c379a000000000000000000000000000000000000000000000000000000000815260040161139790613f24565b60405180910390fd5b60001515600460019054906101000a900460ff161515146113f6576040517f08c379a00000000000000000000000000000000000000000000000000000000081526004016113ed906140a4565b60405180910390fd5b60035442101561143b576040517f08c379a000000000000000000000000000000000000000000000000000000000815260040161143290614164565b60405180910390fd5b6001600460016101000a81548160ff021916908315150217905550565b6060600460019054906101000a900460ff166114a9576040517f08c379a00000000000000000000000000000000000000000000000000000000081526004016114a090613ee4565b60405180910390fd5b6000600680549050116114f1576040517f08c379a00000000000000000000000000000000000000000000000000000000081526004016114e890614064565b60405180910390fd5b60005b6006805490508161ffff1610156117685773__StringUtils___________________________6346bdca9a8460068461ffff168154811061155e577f4e487b7100000000000000000000000000000000000000000000000000000000600052603260045260246000fd5b906000526020600020016000815481106115a1577f4e487b7100000000000000000000000000000000000000000000000000000000600052603260045260246000fd5b906000526020600020016040518363ffffffff167c01000000000000000000000000000000000000000000000000000000000281526004016115e4929190613ead565b60206040518083038186803b1580156115fc57600080fd5b505af4158015611610573d6000803e3d6000fd5b505050506040513d601f19601f82011682018060405250810190611634919061312e565b156117555760068161ffff1681548110611677577f4e487b7100000000000000000000000000000000000000000000000000000000600052603260045260246000fd5b906000526020600020016001815481106116ba577f4e487b7100000000000000000000000000000000000000000000000000000000600052603260045260246000fd5b9060005260206000200180546116cf906144e3565b80601f01602080910402602001604051908101604052809291908181526020018280546116fb906144e3565b80156117485780601f1061171d57610100808354040283529160200191611748565b820191906000526020600020905b81548152906001019060200180831161172b57829003601f168201915b50505050509150506117a4565b808061176090614515565b9150506114f4565b506040517f08c379a000000000000000000000000000000000000000000000000000000000815260040161179b90614004565b60405180910390fd5b919050565b60008054906101000a900473ffffffffffffffffffffffffffffffffffffffff1673ffffffffffffffffffffffffffffffffffffffff16630a2eb301336040518263ffffffff167c010000000000000000000000000000000000000000000000000000000002815260040161181e9190613e33565b60206040518083038186803b15801561183657600080fd5b505afa15801561184a573d6000803e3d6000fd5b505050506040513d601f19601f8201168201806040525081019061186e919061312e565b6118ad576040517f08c379a00000000000000000000000000000000000000000000000000000000081526004016118a490613fe4565b60405180910390fd5b60001515600460009054906101000a900460ff16151514611903576040517f08c379a00000000000000000000000000000000000000000000000000000000081526004016118fa90614104565b60405180910390fd5b600254421015611948576040517f08c379a000000000000000000000000000000000000000000000000000000000815260040161193f906140c4565b60405180910390fd5b6001600460006101000a81548160ff021916908315150217905550565b60008054906101000a900473ffffffffffffffffffffffffffffffffffffffff1673ffffffffffffffffffffffffffffffffffffffff16630a2eb301336040518263ffffffff167c01000000000000000000000000000000000000000000000000000000000281526004016119da9190613e33565b60206040518083038186803b1580156119f257600080fd5b505afa158015611a06573d6000803e3d6000fd5b505050506040513d601f19601f82011682018060405250810190611a2a919061312e565b611a69576040517f08c379a0000000000000000000000000000000000000000000000000000000008152600401611a6090613fe4565b60405180910390fd5b60001515600460009054906101000a900460ff16151514611a8957600080fd5b606060048081819054906101000a900461ffff1680929190611aaa90614515565b91906101000a81548161ffff021916908361ffff160217905550506040518060a0016040528060048054906101000a900461ffff1661ffff16815260200184815260200182815260200183815260200160011515815250600a600060048054906101000a900461ffff1661ffff16815260200190815260200160002060008201518160000160006101000a81548161ffff021916908361ffff1602179055506020820151816001019080519060200190611b65929190612e2a565b506040820151816002019080519060200190611b82929190612eb0565b506060820151816003019080519060200190611b9f929190612e2a565b5060808201518160040160006101000a81548160ff021916908315150217905550905050505050565b600081604051602001611bdb9190613dc8565b60405160208183030381529060405280519060200120600b600085604051602001611c069190613dc8565b6040516020818303038152906040528051906020012081526020019081526020016000205414611c6b576040517f08c379a0000000000000000000000000000000000000000000000000000000008152600401611c6290613f04565b60405180910390fd5b60001515600c600085604051602001611c849190613dc8565b60405160208183030381529060405280519060200120815260200190815260200160002060009054906101000a900460ff16151514611cf8576040517f08c379a0000000000000000000000000000000000000000000000000000000008152600401611cef90613f64565b60405180910390fd5b6000600d600085604051602001611d0f9190613dc8565b60405160208183030381529060405280519060200120815260200190815260200160002060009054906101000a900461ffff1690506000600a60008361ffff1681526020019081526020016000206040518060a00160405290816000820160009054906101000a900461ffff1661ffff1661ffff168152602001600182018054611d98906144e3565b80601f0160208091040260200160405190810160405280929190818152602001828054611dc4906144e3565b8015611e115780601f10611de657610100808354040283529160200191611e11565b820191906000526020600020905b815481529060010190602001808311611df457829003601f168201915b5050505050815260200160028201805480602002602001604051908101604052809291908181526020018280548015611e9157602002820191906000526020600020906000905b82829054906101000a900461ffff1661ffff1681526020019060020190602082600101049283019260010382029150808411611e585790505b50505050508152602001600382018054611eaa906144e3565b80601f0160208091040260200160405190810160405280929190818152602001828054611ed6906144e3565b8015611f235780601f10611ef857610100808354040283529160200191611f23565b820191906000526020600020905b815481529060010190602001808311611f0657829003601f168201915b505050505081526020016004820160009054906101000a900460ff16151515158152505090508060800151611f8d576040517f08c379a0000000000000000000000000000000000000000000000000000000008152600401611f8490613f84565b60405180910390fd5b6000444287604051602001611fa493929190613dfa565b604051602081830303815290604052805190602001206001900490506001600c600088604051602001611fd79190613dc8565b60405160208183030381529060405280519060200120815260200190815260200160002060006101000a81548160ff02191690831515021790555082600e600083815260200190815260200160002060006101000a81548161ffff021916908361ffff16021790555080935050505092915050565b60008054906101000a900473ffffffffffffffffffffffffffffffffffffffff1673ffffffffffffffffffffffffffffffffffffffff16630a2eb301336040518263ffffffff167c01000000000000000000000000000000000000000000000000000000000281526004016120c19190613e33565b60206040518083038186803b1580156120d957600080fd5b505afa1580156120ed573d6000803e3d6000fd5b505050506040513d601f19601f82011682018060405250810190612111919061312e565b612150576040517f08c379a000000000000000000000000000000000000000000000000000000000815260040161214790613fe4565b60405180910390fd5b60001515600460009054906101000a900460ff1615151461217057600080fd5b6001600860008373ffffffffffffffffffffffffffffffffffffffff1673ffffffffffffffffffffffffffffffffffffffff16815260200190815260200160002060006101000a81548160ff02191690831515021790555050565b6000600254905090565b6000600460009054906101000a900460ff16905090565b6000600460019054906101000a900460ff16905090565b6000600e600084815260200190815260200160002060009054906101000a900461ffff1661ffff161161226b576040517f08c379a000000000000000000000000000000000000000000000000000000000815260040161226290614024565b60405180910390fd5b60011515600460009054906101000a900460ff1615151480156122a1575060001515600460019054906101000a900460ff161515145b6122e0576040517f08c379a00000000000000000000000000000000000000000000000000000000081526004016122d790613fc4565b60405180910390fd5b6000600102600f60008481526020019081526020016000205414612339576040517f08c379a000000000000000000000000000000000000000000000000000000000815260040161233090614124565b60405180910390fd5b6000600a6000600e600086815260200190815260200160002060009054906101000a900461ffff1661ffff1681526020019081526020016000206002018054806020026020016040519081016040528092919081815260200182805480156123e857602002820191906000526020600020906000905b82829054906101000a900461ffff1661ffff16815260200190600201906020826001010492830192600103820291508084116123af5790505b505050505090506000805b82518161ffff161015612470578361ffff16838261ffff1681518110612442577f4e487b7100000000000000000000000000000000000000000000000000000000600052603260045260246000fd5b602002602001015161ffff16141561245d5760019150612470565b808061246890614515565b9150506123f3565b5060011515811515146124b8576040517f08c379a00000000000000000000000000000000000000000000000000000000081526004016124af90613fa4565b60405180910390fd5b826040516020016124c99190613ddf565b60405160208183030381529060405280519060200120600f6000868152602001908152602001600020819055507fc69ff71591a5578b3a8e6a8789b39c4fe1db941aaac2fc5570e795c698cac32460405160405180910390a1600160106000856040516020016125399190613ddf565b60405160208183030381529060405280519060200120815260200190815260200160002060008282829054906101000a900463ffffffff1661257b9190614401565b92506101000a81548163ffffffff021916908363ffffffff16021790555050505050565b6000600354905090565b60008054906101000a900473ffffffffffffffffffffffffffffffffffffffff1673ffffffffffffffffffffffffffffffffffffffff16630a2eb301336040518263ffffffff167c010000000000000000000000000000000000000000000000000000000002815260040161261e9190613e33565b60206040518083038186803b15801561263657600080fd5b505afa15801561264a573d6000803e3d6000fd5b505050506040513d601f19601f8201168201806040525081019061266e919061312e565b6126ad576040517f08c379a00000000000000000000000000000000000000000000000000000000081526004016126a490613fe4565b60405180910390fd5b60001515600460009054906101000a900460ff161515146126cd57600080fd5b6000600860008373ffffffffffffffffffffffffffffffffffffffff1673ffffffffffffffffffffffffffffffffffffffff16815260200190815260200160002060006101000a81548160ff02191690831515021790555050565b612730612f5a565b600960008361ffff1681526020019081526020016000206040518060a00160405290816000820160009054906101000a900461ffff1661ffff1661ffff168152602001600182018054612782906144e3565b80601f01602080910402602001604051908101604052809291908181526020018280546127ae906144e3565b80156127fb5780601f106127d0576101008083540402835291602001916127fb565b820191906000526020600020905b8154815290600101906020018083116127de57829003601f168201915b505050505081526020016002820160009054906101000a900461ffff1661ffff1661ffff168152602001600382018054612834906144e3565b80601f0160208091040260200160405190810160405280929190818152602001828054612860906144e3565b80156128ad5780601f10612882576101008083540402835291602001916128ad565b820191906000526020600020905b81548152906001019060200180831161289057829003601f168201915b505050505081526020016004820160009054906101000a900460ff1615151515815250509050919050565b6128e0612f93565b600a60008361ffff1681526020019081526020016000206040518060a00160405290816000820160009054906101000a900461ffff1661ffff1661ffff168152602001600182018054612932906144e3565b80601f016020809104026020016040519081016040528092919081815260200182805461295e906144e3565b80156129ab5780601f10612980576101008083540402835291602001916129ab565b820191906000526020600020905b81548152906001019060200180831161298e57829003601f168201915b5050505050815260200160028201805480602002602001604051908101604052809291908181526020018280548015612a2b57602002820191906000526020600020906000905b82829054906101000a900461ffff1661ffff16815260200190600201906020826001010492830192600103820291508084116129f25790505b50505050508152602001600382018054612a44906144e3565b80601f0160208091040260200160405190810160405280929190818152602001828054612a70906144e3565b8015612abd5780601f10612a9257610100808354040283529160200191612abd565b820191906000526020600020905b815481529060010190602001808311612aa057829003601f168201915b505050505081526020016004820160009054906101000a900460ff1615151515815250509050919050565b60008054906101000a900473ffffffffffffffffffffffffffffffffffffffff1673ffffffffffffffffffffffffffffffffffffffff16630a2eb301336040518263ffffffff167c0100000000000000000000000000000000000000000000000000000000028152600401612b5d9190613e33565b60206040518083038186803b158015612b7557600080fd5b505afa158015612b89573d6000803e3d6000fd5b505050506040513d601f19601f82011682018060405250810190612bad919061312e565b612bec576040517f08c379a0000000000000000000000000000000000000000000000000000000008152600401612be390613fe4565b60405180910390fd5b60001515600460009054906101000a900460ff16151514612c0c57600080fd5b6004600281819054906101000a900461ffff1680929190612c2c90614515565b91906101000a81548161ffff021916908361ffff160217905550506040518060a00160405280600460029054906101000a900461ffff1661ffff1681526020018481526020018361ffff1681526020018281526020016001151581525060096000600460029054906101000a900461ffff1661ffff16815260200190815260200160002060008201518160000160006101000a81548161ffff021916908361ffff1602179055506020820151816001019080519060200190612cef929190612e2a565b5060408201518160020160006101000a81548161ffff021916908361ffff1602179055506060820151816003019080519060200190612d2f929190612e2a565b5060808201518160040160006101000a81548160ff021916908315150217905550905050600a60008361ffff168152602001908152602001600020600201600460029054906101000a900461ffff1690806001815401808255809150506001900390600052602060002090601091828204019190066002029091909190916101000a81548161ffff021916908361ffff160217905550505050565b828054828255906000526020600020908101928215612e19579160200282015b82811115612e18578251829080519060200190612e08929190612e2a565b5091602001919060010190612dea565b5b509050612e269190612fc8565b5090565b828054612e36906144e3565b90600052602060002090601f016020900481019282612e585760008555612e9f565b82601f10612e7157805160ff1916838001178555612e9f565b82800160010185558215612e9f579182015b82811115612e9e578251825591602001919060010190612e83565b5b509050612eac9190612fec565b5090565b82805482825590600052602060002090600f01601090048101928215612f495791602002820160005b83821115612f1957835183826101000a81548161ffff021916908361ffff1602179055509260200192600201602081600101049283019260010302612ed9565b8015612f475782816101000a81549061ffff0219169055600201602081600101049283019260010302612f19565b505b509050612f569190612fec565b5090565b6040518060a00160405280600061ffff16815260200160608152602001600061ffff168152602001606081526020016000151581525090565b6040518060a00160405280600061ffff1681526020016060815260200160608152602001606081526020016000151581525090565b5b80821115612fe85760008181612fdf9190613009565b50600101612fc9565b5090565b5b80821115613005576000816000905550600101612fed565b5090565b508054613015906144e3565b6000825580601f106130275750613046565b601f0160209004906000526020600020908101906130459190612fec565b5b50565b600061305c613057846142c8565b614297565b90508281526020810184848401111561307457600080fd5b61307f8482856144a1565b509392505050565b60008135905061309681614625565b92915050565b6000815190506130ab8161463c565b92915050565b600082601f8301126130c257600080fd5b81356130d2848260208601613049565b91505092915050565b6000813590506130ea81614653565b92915050565b6000813590506130ff8161466a565b92915050565b60006020828403121561311757600080fd5b600061312584828501613087565b91505092915050565b60006020828403121561314057600080fd5b600061314e8482850161309c565b91505092915050565b60006020828403121561316957600080fd5b600082013567ffffffffffffffff81111561318357600080fd5b61318f848285016130b1565b91505092915050565b600080604083850312156131ab57600080fd5b600083013567ffffffffffffffff8111156131c557600080fd5b6131d1858286016130b1565b925050602083013567ffffffffffffffff8111156131ee57600080fd5b6131fa858286016130b1565b9150509250929050565b60008060006060848603121561321957600080fd5b600084013567ffffffffffffffff81111561323357600080fd5b61323f868287016130b1565b9350506020613250868287016130db565b925050604084013567ffffffffffffffff81111561326d57600080fd5b613279868287016130b1565b9150509250925092565b60006020828403121561329557600080fd5b60006132a3848285016130db565b91505092915050565b6000602082840312156132be57600080fd5b60006132cc848285016130f0565b91505092915050565b600080604083850312156132e857600080fd5b60006132f6858286016130f0565b9250506020613307858286016130db565b9150509250929050565b600061331d83836133d5565b905092915050565b600061333183836134c6565b905092915050565b60006133458383613d6d565b60208301905092915050565b61335a8161443b565b82525050565b600061336b8261433d565b6133758185614390565b935083602082028501613387856142f8565b8060005b858110156133c357848403895281516133a48582613311565b94506133af83614369565b925060208a0199505060018101905061338b565b50829750879550505050505092915050565b60006133e082614348565b6133ea81856143a1565b9350836020820285016133fc85614308565b8060005b8581101561343857848403895281516134198582613325565b945061342483614376565b925060208a01995050600181019050613400565b50829750879550505050505092915050565b600061345582614353565b61345f81856143b2565b935061346a83614318565b8060005b8381101561349b5781516134828882613339565b975061348d83614383565b92505060018101905061346e565b5085935050505092915050565b6134b18161444d565b82525050565b6134c08161444d565b82525050565b60006134d18261435e565b6134db81856143c3565b93506134eb8185602086016144b0565b6134f4816145e9565b840191505092915050565b600061350a8261435e565b61351481856143d4565b93506135248185602086016144b0565b61352d816145e9565b840191505092915050565b60006135438261435e565b61354d81856143e5565b935061355d8185602086016144b0565b613566816145e9565b840191505092915050565b600061357c8261435e565b61358681856143f6565b93506135968185602086016144b0565b80840191505092915050565b600081546135af816144e3565b6135b981866143e5565b945060018216600081146135d457600181146135e657613619565b60ff1983168652602086019350613619565b6135ef85614328565b60005b83811015613611578154818901526001820191506020810190506135f2565b808801955050505b50505092915050565b600061362f6021836143d4565b91507f4572726f722c20656c656374696f6e20686173206e6f7420656e64656420796560008301527f74000000000000000000000000000000000000000000000000000000000000006020830152604082019050919050565b6000613695601d836143d4565b91507f4572726f722c2061757468656e7469636174696f6e206661696c7572650000006000830152602082019050919050565b60006136d56023836143d4565b91507f4572726f722c20656c656374696f6e20686173206e6f7420737461727465642060008301527f79657400000000000000000000000000000000000000000000000000000000006020830152604082019050919050565b600061373b601b836143d4565b91507f4572726f722c20656c656374696f6e20686173207374617274656400000000006000830152602082019050919050565b600061377b6011836143d4565b91507f48617320616c726561647920766f7465640000000000000000000000000000006000830152602082019050919050565b60006137bb600e836143d4565b91507f496e76616c696420526567696f6e0000000000000000000000000000000000006000830152602082019050919050565b60006137fb601a836143d4565b91507f4572726f722c20696e76616c69642063616e64696461746549640000000000006000830152602082019050919050565b600061383b601f836143d4565b91507f4572726f722c206e6f7420617661696c61626c6520666f7220766f74696e67006000830152602082019050919050565b600061387b6011836143d4565b91507f4e6f742041646d696e6973747261746f720000000000000000000000000000006000830152602082019050919050565b60006138bb601a836143d4565b91507f526567696f6e204e616d6520646f6573206e6f742065786973740000000000006000830152602082019050919050565b60006138fb601c836143d4565b91507f4572726f722c20766f7465436f6465206973206e6f742076616c6964000000006000830152602082019050919050565b600061393b6017836143d4565b91507f526573756c747320616c726561647920736574746c65640000000000000000006000830152602082019050919050565b600061397b6016836143d4565b91507f526573756c7473206e6f742073657420757020796574000000000000000000006000830152602082019050919050565b60006139bb602b836143d4565b91507f4572726f722c20456e6420446174652063616e6e6f74206265206265666f726560008301527f20537461727420446174650000000000000000000000000000000000000000006020830152604082019050919050565b6000613a216021836143d4565b91507f4572726f722c20656c656374696f6e2068617320616c726561647920656e646560008301527f64000000000000000000000000000000000000000000000000000000000000006020830152604082019050919050565b6000613a87601f836143d4565b91507f43616e206f6e6c792073746172742061667465722073746172742064617465006000830152602082019050919050565b6000613ac76018836143d4565b91507f526573756c74206e6f7420617661696c61626c652079657400000000000000006000830152602082019050919050565b6000613b076035836143d4565b91507f4572726f722c2063616e6e6f7420737461727420656c656374696f6e2074686160008301527f742068617320616c7265616479207374617274656400000000000000000000006020830152604082019050919050565b6000613b6d6021836143d4565b91507f4572726f722c20766f74652068617320616c7265616479206265656e2063617360008301527f74000000000000000000000000000000000000000000000000000000000000006020830152604082019050919050565b6000613bd3601c836143d4565b91507f4572726f722c20537461727420446174652068617320706173736564000000006000830152602082019050919050565b6000613c136028836143d4565b91507f4572726f722c20656e7375726520746f206f6e6c7920656e642061667465722060008301527f656e642074696d650000000000000000000000000000000000000000000000006020830152604082019050919050565b600060a083016000830151613c846000860182613d6d565b5060208301518482036020860152613c9c82826134c6565b9150506040830151613cb16040860182613d6d565b5060608301518482036060860152613cc982826134c6565b9150506080830151613cde60808601826134a8565b508091505092915050565b600060a083016000830151613d016000860182613d6d565b5060208301518482036020860152613d1982826134c6565b91505060408301518482036040860152613d33828261344a565b91505060608301518482036060860152613d4d82826134c6565b9150506080830151613d6260808601826134a8565b508091505092915050565b613d7681614459565b82525050565b613d8581614459565b82525050565b613d9c613d9782614459565b614540565b82525050565b613dab81614487565b82525050565b613dc2613dbd82614487565b614552565b82525050565b6000613dd48284613571565b915081905092915050565b6000613deb8284613d8b565b60028201915081905092915050565b6000613e068286613db1565b602082019150613e168285613db1565b602082019150613e268284613571565b9150819050949350505050565b6000602082019050613e486000830184613351565b92915050565b60006020820190508181036000830152613e688184613360565b905092915050565b6000602082019050613e8560008301846134b7565b92915050565b60006020820190508181036000830152613ea581846134ff565b905092915050565b60006040820190508181036000830152613ec78185613538565b90508181036020830152613edb81846135a2565b90509392505050565b60006020820190508181036000830152613efd81613622565b9050919050565b60006020820190508181036000830152613f1d81613688565b9050919050565b60006020820190508181036000830152613f3d816136c8565b9050919050565b60006020820190508181036000830152613f5d8161372e565b9050919050565b60006020820190508181036000830152613f7d8161376e565b9050919050565b60006020820190508181036000830152613f9d816137ae565b9050919050565b60006020820190508181036000830152613fbd816137ee565b9050919050565b60006020820190508181036000830152613fdd8161382e565b9050919050565b60006020820190508181036000830152613ffd8161386e565b9050919050565b6000602082019050818103600083015261401d816138ae565b9050919050565b6000602082019050818103600083015261403d816138ee565b9050919050565b6000602082019050818103600083015261405d8161392e565b9050919050565b6000602082019050818103600083015261407d8161396e565b9050919050565b6000602082019050818103600083015261409d816139ae565b9050919050565b600060208201905081810360008301526140bd81613a14565b9050919050565b600060208201905081810360008301526140dd81613a7a565b9050919050565b600060208201905081810360008301526140fd81613aba565b9050919050565b6000602082019050818103600083015261411d81613afa565b9050919050565b6000602082019050818103600083015261413d81613b60565b9050919050565b6000602082019050818103600083015261415d81613bc6565b9050919050565b6000602082019050818103600083015261417d81613c06565b9050919050565b6000602082019050818103600083015261419e8184613c6c565b905092915050565b600060208201905081810360008301526141c08184613ce9565b905092915050565b60006080820190506141dd6000830187613d7c565b81810360208301526141ef81866134ff565b9050818103604083015261420381856134ff565b905061421260608301846134b7565b95945050505050565b600060a0820190506142306000830188613d7c565b818103602083015261424281876134ff565b90506142516040830186613d7c565b818103606083015261426381856134ff565b905061427260808301846134b7565b9695505050505050565b60006020820190506142916000830184613da2565b92915050565b6000604051905081810181811067ffffffffffffffff821117156142be576142bd6145ba565b5b8060405250919050565b600067ffffffffffffffff8211156142e3576142e26145ba565b5b601f19601f8301169050602081019050919050565b6000819050602082019050919050565b6000819050602082019050919050565b6000819050602082019050919050565b60008190508160005260206000209050919050565b600081519050919050565b600081519050919050565b600081519050919050565b600081519050919050565b6000602082019050919050565b6000602082019050919050565b6000602082019050919050565b600082825260208201905092915050565b600082825260208201905092915050565b600082825260208201905092915050565b600082825260208201905092915050565b600082825260208201905092915050565b600082825260208201905092915050565b600081905092915050565b600061440c82614491565b915061441783614491565b92508263ffffffff038211156144305761442f61455c565b5b828201905092915050565b600061444682614467565b9050919050565b60008115159050919050565b600061ffff82169050919050565b600073ffffffffffffffffffffffffffffffffffffffff82169050919050565b6000819050919050565b600063ffffffff82169050919050565b82818337600083830152505050565b60005b838110156144ce5780820151818401526020810190506144b3565b838111156144dd576000848401525b50505050565b600060028204905060018216806144fb57607f821691505b6020821081141561450f5761450e61458b565b5b50919050565b600061452082614459565b915061ffff8214156145355761453461455c565b5b600182019050919050565b600061454b826145fa565b9050919050565b6000819050919050565b7f4e487b7100000000000000000000000000000000000000000000000000000000600052601160045260246000fd5b7f4e487b7100000000000000000000000000000000000000000000000000000000600052602260045260246000fd5b7f4e487b7100000000000000000000000000000000000000000000000000000000600052604160045260246000fd5b6000601f19601f8301169050919050565b60007e0100000000000000000000000000000000000000000000000000000000000082029050919050565b61462e8161443b565b811461463957600080fd5b50565b6146458161444d565b811461465057600080fd5b50565b61465c81614459565b811461466757600080fd5b50565b61467381614487565b811461467e57600080fd5b5056fea2646970667358221220590cfb04dd2c93db3b54bf0671e79eb68bbece77d30be910f66187b6c7f6acc864736f6c63430008000033",
  "immutableReferences": {},
  "source": "// SPDX-License-Identifier: UNLICENSED\npragma solidity ^0.8.0;\n\nimport \"./ElectionAdministrator.sol\";\nimport \"./util/StringUtils.sol\";\n\ncontract Election {\n\n    ElectionAdministrator private administratorContract;\n\n    string private electionTitle;\n    uint256 private startDate;\n    uint256 private endDate;\n    bool private hasStarted; //This is used to double confirm that the election has actually started\n    bool private hasEnded; //This is used to confirm that the election has actually ended\n    uint16 private candidatesCount;\n    uint16 private regionsCount;\n    string[] private voteCodes;\n    string[][] private results;\n    bool private exists;\n\n    struct Candidate {  \n        uint16 id;\n        string name;\n        uint16 regionId;\n        string electionTitle;\n        bool valid;\n    }\n\n    struct Region {\n        uint16 regionId;\n        string name;\n        uint16[] candidatesList;\n        string electionTitle;\n        bool valid;\n    }\n\n    mapping(address => bool) private allowedsystems; //Assume only polling stations are allowed, this will be the only systems that are allowed to access\n    mapping(uint256 => Candidate) public candidates;\n    mapping(uint256 => Region) public regions;\n    mapping(bytes32 => bytes32) private voters; //Hashed nric to hashed password\n    mapping(bytes32 => bool) private hasRegisteredVote; //Hashed nric to true/false value, by default it is false\n    mapping(bytes32 => uint16) private voterRegions; //Hashed nric to regionId\n    mapping(uint256 => uint16) private voteValidity; //voteCode to regionId\n    mapping(uint256 => bytes32) private votes; //voteCode to hashed candidateId. Votes are still needed for verification purposes even with counts accounted for, probably only by admins.\n    mapping(bytes32 => uint32) private votecounts; // Candidate -> votes \n\n    event VoteSucceeded();\n    event ElectionWinner(string region, string candidate, uint32 votes);\n\n    //TODO: Handle Voting Process\n\n    modifier adminOnly {\n        require(administratorContract.isAdministrator(msg.sender), \"Not Administrator\");\n        _;\n    }\n\n    modifier hasNotStarted {\n        require(hasStarted == false);\n        _;\n    }\n\n    modifier alreadyStarted {\n        require(hasStarted == true);\n        _;\n    }\n\n    modifier isAllowedSystem {\n        require(allowedsystems[msg.sender] == true, \"Not allowed system\");\n        _;\n    }\n\n    constructor(string memory _electionTitle, uint256 _startDate, uint256 _endDate, ElectionAdministrator _administratorContract) {\n        require(_startDate > block.timestamp, \"Error, Start Date has passed.\");\n        require(_endDate > _startDate, \"Error, End Date cannot be before start date.\");\n        require (bytes(_electionTitle).length > 0, \"Error, must include election title\");\n        electionTitle = _electionTitle;\n        startDate = _startDate;\n        endDate = _endDate;\n        hasStarted = false; \n        hasEnded = false;\n        administratorContract = _administratorContract;\n        exists = true;\n    }\n\n    function addSystem(address pollsystem) public adminOnly hasNotStarted {\n        allowedsystems[pollsystem] = true;\n    }\n\n    function removeSystem(address pollsystem) public adminOnly hasNotStarted {\n        allowedsystems[pollsystem] = false;\n    }\n\n    function addCandidate(string memory _name, uint16 _regionId, string memory _electionTitle) public adminOnly hasNotStarted {\n        candidatesCount++;\n        candidates[candidatesCount] = Candidate(candidatesCount, _name, _regionId, _electionTitle, true);\n        regions[_regionId].candidatesList.push(candidatesCount);\n    }\n\n    function addRegion(string memory _name, string memory _electionTitle) public adminOnly hasNotStarted {\n        uint16[] memory candidatesList;\n        regionsCount++;\n        regions[regionsCount] = Region(regionsCount, _name, candidatesList, _electionTitle, true);\n    }\n\n    /*\n     * @dev Authenticates the voter, generates the vote code and gives it to user. \n     */\n    function authenticateVoter(string memory _nric, string memory _password) public returns (uint256) {\n        require(voters[keccak256(abi.encodePacked(_nric))] == keccak256(abi.encodePacked(_password)), \"Error, authentication failure\");\n        require(hasRegisteredVote[keccak256(abi.encodePacked(_nric))] == false, \"Has already voted\");\n        uint16 regionid = voterRegions[keccak256(abi.encodePacked(_nric))];\n        Region memory voterRegion = regions[regionid];\n\n        require(voterRegion.valid, \"Invalid Region\");\n        uint256 voteCode = uint(keccak256(abi.encodePacked(block.difficulty, block.timestamp, _nric)));\n        hasRegisteredVote[keccak256(abi.encodePacked(_nric))] = true;\n        voteValidity[voteCode] = regionid;\n        return voteCode;\n    }\n\n    function vote(uint256 _voteCode, uint16 _candidateId) public {\n        require(voteValidity[_voteCode] > 0, \"Error, voteCode is not valid\");\n        require(hasStarted == true && hasEnded == false, \"Error, not available for voting\");\n        require(votes[_voteCode] == bytes32(0), \"Error, vote has already been cast\");\n\n        uint16[] memory voterRegionCandidates = regions[voteValidity[_voteCode]].candidatesList;\n        bool found = false;\n        for (uint16 i=0; i<voterRegionCandidates.length; i++) {\n            if(voterRegionCandidates[i] == _candidateId) {\n                found = true;\n                break;\n            }\n        }\n        require(found == true, \"Error, invalid candidateId\");\n\n        votes[_voteCode] = keccak256(abi.encodePacked(_candidateId)); //Encrypt candidate id only\n\n        emit VoteSucceeded();\n        //voteCodes.(_voteCode); //Voted\n        //add vote to count.\n\n        votecounts[keccak256(abi.encodePacked(_candidateId))] += 1;\n    }\n\n    function getStartDate() public view returns (uint256) {\n        return startDate;\n    }\n\n    function getEndDate() public view returns (uint256) {\n        return endDate;\n    }\n\n    function checkStarted() public view returns (bool) {\n        return hasStarted;\n    }\n\n    function checkEnded() public view returns (bool) {\n        return hasEnded;\n    }\n\n    function changeStartDate(uint256 newStartDate) public adminOnly {\n        require(hasStarted == false, \"Error, election has started\");\n        require(newStartDate > block.timestamp, \"Error, Start Date has passed\");\n\n        startDate = newStartDate;\n    }\n\n    function changeEndDate(uint256 newEndDate) public adminOnly {\n        require(hasStarted == false, \"Error, election has started\");\n        require(newEndDate > startDate, \"Error, End Date cannot be before Start Date\");\n\n        endDate = newEndDate;\n    }\n\n    function startElection() public adminOnly {\n        require(hasStarted == false, \"Error, cannot start election that has already started\");\n        require(block.timestamp >= startDate, \"Can only start after start date\");\n\n        hasStarted = true;\n    }\n\n    function endElection() public adminOnly {\n        require(hasStarted == true, \"Error, election has not started yet\");\n        require(hasEnded == false, \"Error, election has already ended\");\n        require(block.timestamp >= endDate, \"Error, ensure to only end after end time\");\n\n        hasEnded = true;\n    }\n\n    //Gets winner of election\n    function settleResults() public adminOnly returns (string[][] memory) {\n        require(hasEnded == true, \"Result not available yet\");\n        require(results.length == 0, \"Results already settled\");\n\n        for (uint16 i = 0; i < regionsCount; i++) {\n            //Handle Results on a per region basis\n            Region memory regionCheck = regions[i];\n            uint maxCount = 0;\n            uint winner = 0;\n\n            for (uint16 j = 0; i < regionCheck.candidatesList.length; i++) {\n                uint32 votecount =  votecounts[keccak256(abi.encodePacked(regionCheck.candidatesList[j]))];\n                if (votecount > maxCount) {\n                    maxCount = votecount;\n                    winner = regionCheck.candidatesList[j];\n                }\n            }\n\n            string[] memory added = new string[](2);\n            added[0] = regionCheck.name;\n            added[1] = candidates[winner].name;\n            results.push(added);\n        }\n\n        return results;\n    }\n\n    function getWinner(string memory _regionname) public view returns (string memory) {\n        require(hasEnded, \"Error, election has not ended yet\");\n        require(results.length > 0, \"Results not set up yet\");\n        for (uint16 i = 0; i < results.length; i++) {\n            if (StringUtils.equal(_regionname, results[i][0])) {\n                return (results[i][1]);\n            }\n        }\n        revert(\"Region Name does not exist\");\n    }\n\n    function getRegion(uint16 id) public view returns (Region memory) {\n        return regions[id];\n    }\n\n    function getCandidate(uint16 id) public view returns (Candidate memory) {\n        return candidates[id];\n    }\n\n    function checkExists() public view returns (bool) {\n        return exists;\n    }\n}",
  "sourcePath": "/Users/USER/Library/Mobile Documents/com~apple~CloudDocs/school/IS4302/project/IS4302/contracts/Election.sol",
  "compiler": {
    "name": "solc",
    "version": "0.8.0+commit.c7dfd78e.Emscripten.clang"
  },
  "schemaVersion": "3.4.4",
  "updatedAt": "2022-04-08T12:32:45.034Z",
  "devdoc": {
    "kind": "dev",
    "methods": {},
    "version": 1
  },
  "userdoc": {
    "kind": "user",
    "methods": {},
    "version": 1
  }
}