{
  "contractName": "VotingRegions",
  "abi": [
    {
      "inputs": [],
      "stateMutability": "nonpayable",
      "type": "constructor"
    },
    {
      "anonymous": false,
      "inputs": [
        {
          "indexed": false,
          "internalType": "string",
          "name": "regionName",
          "type": "string"
        },
        {
          "indexed": false,
          "internalType": "string",
          "name": "regionCode",
          "type": "string"
        }
      ],
      "name": "RegionAlreadyExists",
      "type": "event"
    },
    {
      "anonymous": false,
      "inputs": [
        {
          "indexed": false,
          "internalType": "string",
          "name": "oldCode",
          "type": "string"
        },
        {
          "indexed": false,
          "internalType": "string",
          "name": "newCode",
          "type": "string"
        }
      ],
      "name": "RegionCodeChanged",
      "type": "event"
    },
    {
      "anonymous": false,
      "inputs": [
        {
          "indexed": false,
          "internalType": "string",
          "name": "regionName",
          "type": "string"
        },
        {
          "indexed": false,
          "internalType": "string",
          "name": "regionCode",
          "type": "string"
        },
        {
          "indexed": false,
          "internalType": "string",
          "name": "regionDescription",
          "type": "string"
        },
        {
          "indexed": false,
          "internalType": "string",
          "name": "RegionInformation",
          "type": "string"
        }
      ],
      "name": "RegionCreated",
      "type": "event"
    },
    {
      "anonymous": false,
      "inputs": [
        {
          "indexed": false,
          "internalType": "string",
          "name": "regionCode",
          "type": "string"
        }
      ],
      "name": "RegionNotFound",
      "type": "event"
    },
    {
      "anonymous": false,
      "inputs": [
        {
          "indexed": false,
          "internalType": "string",
          "name": "regionCode",
          "type": "string"
        }
      ],
      "name": "RegionRemoved",
      "type": "event"
    },
    {
      "inputs": [
        {
          "internalType": "string",
          "name": "regionCode",
          "type": "string"
        },
        {
          "internalType": "string",
          "name": "regionName",
          "type": "string"
        },
        {
          "internalType": "string",
          "name": "regionDescription",
          "type": "string"
        },
        {
          "internalType": "string",
          "name": "regionInformation",
          "type": "string"
        }
      ],
      "name": "createRegion",
      "outputs": [],
      "stateMutability": "nonpayable",
      "type": "function"
    },
    {
      "inputs": [],
      "name": "getRegions",
      "outputs": [
        {
          "components": [
            {
              "internalType": "string",
              "name": "regionName",
              "type": "string"
            },
            {
              "internalType": "string",
              "name": "regionCode",
              "type": "string"
            },
            {
              "internalType": "string",
              "name": "regionDescription",
              "type": "string"
            },
            {
              "internalType": "string",
              "name": "regionInformation",
              "type": "string"
            }
          ],
          "internalType": "struct VotingRegions.VotingRegion[]",
          "name": "",
          "type": "tuple[]"
        }
      ],
      "stateMutability": "view",
      "type": "function"
    },
    {
      "inputs": [
        {
          "internalType": "string",
          "name": "regionCode",
          "type": "string"
        }
      ],
      "name": "getRegion",
      "outputs": [
        {
          "components": [
            {
              "internalType": "string",
              "name": "regionName",
              "type": "string"
            },
            {
              "internalType": "string",
              "name": "regionCode",
              "type": "string"
            },
            {
              "internalType": "string",
              "name": "regionDescription",
              "type": "string"
            },
            {
              "internalType": "string",
              "name": "regionInformation",
              "type": "string"
            }
          ],
          "internalType": "struct VotingRegions.VotingRegion",
          "name": "",
          "type": "tuple"
        }
      ],
      "stateMutability": "view",
      "type": "function"
    },
    {
      "inputs": [
        {
          "internalType": "string",
          "name": "regionCode",
          "type": "string"
        },
        {
          "internalType": "string",
          "name": "_regionName",
          "type": "string"
        },
        {
          "internalType": "string",
          "name": "_regionDescription",
          "type": "string"
        },
        {
          "internalType": "string",
          "name": "_regionInformation",
          "type": "string"
        }
      ],
      "name": "editRegion",
      "outputs": [],
      "stateMutability": "nonpayable",
      "type": "function"
    },
    {
      "inputs": [
        {
          "internalType": "string",
          "name": "oldCode",
          "type": "string"
        },
        {
          "internalType": "string",
          "name": "newCode",
          "type": "string"
        }
      ],
      "name": "editRegionCode",
      "outputs": [],
      "stateMutability": "nonpayable",
      "type": "function"
    },
    {
      "inputs": [
        {
          "internalType": "string",
          "name": "regionCode",
          "type": "string"
        }
      ],
      "name": "deleteRegion",
      "outputs": [],
      "stateMutability": "nonpayable",
      "type": "function"
    }
  ],
  "bytecode": "0x608060405234801561001057600080fd5b50611ee9806100206000396000f3fe608060405234801561001057600080fd5b50600436106100625760003560e01c8063102ba1b21461006757806314b9290e1461008357806332940ed01461009f5780639f5585a4146100bb578063b71b9dab146100d7578063d2aeb61c146100f5575b600080fd5b610081600480360381019061007c9190611575565b610125565b005b61009d6004803603810190610098919061164c565b6103b7565b005b6100b960048036038101906100b49190611575565b610712565b005b6100d560048036038101906100d09190611695565b6109fd565b005b6100df610c52565b6040516100ec91906118cf565b60405180910390f35b61010f600480360381019061010a919061164c565b610ef9565b60405161011c9190611969565b60405180910390f35b600160009054906101000a900473ffffffffffffffffffffffffffffffffffffffff1673ffffffffffffffffffffffffffffffffffffffff16630a2eb301336040518263ffffffff1660e01b815260040161018091906119cc565b602060405180830381865afa15801561019d573d6000803e3d6000fd5b505050506040513d601f19601f820116820180604052508101906101c19190611a1f565b610200576040517f08c379a00000000000000000000000000000000000000000000000000000000081526004016101f790611aa9565b60405180910390fd5b60005b6002805490508110156103785773__StringUtils___________________________6346bdca9a866002848154811061023f5761023e611ac9565b5b90600052602060002090600402016001016040518363ffffffff1660e01b815260040161026d929190611c38565b602060405180830381865af415801561028a573d6000803e3d6000fd5b505050506040513d601f19601f820116820180604052508101906102ae9190611a1f565b156103675783600282815481106102c8576102c7611ac9565b5b906000526020600020906004020160000190805190602001906102ec929190611283565b50826002828154811061030257610301611ac9565b5b90600052602060002090600402016002019080519060200190610326929190611283565b50816002828154811061033c5761033b611ac9565b5b90600052602060002090600402016003019080519060200190610360929190611283565b50506103b1565b8061037190611ca8565b9050610203565b507f57c4cb08acb6043b190301c8190dd4be49d068b92f6f12aacca49f7e267b18d9846040516103a89190611d2a565b60405180910390a15b50505050565b600160009054906101000a900473ffffffffffffffffffffffffffffffffffffffff1673ffffffffffffffffffffffffffffffffffffffff16630a2eb301336040518263ffffffff1660e01b815260040161041291906119cc565b602060405180830381865afa15801561042f573d6000803e3d6000fd5b505050506040513d601f19601f820116820180604052508101906104539190611a1f565b610492576040517f08c379a000000000000000000000000000000000000000000000000000000000815260040161048990611aa9565b60405180910390fd5b60005b6002805490508110156106d65773__StringUtils___________________________6346bdca9a83600284815481106104d1576104d0611ac9565b5b90600052602060002090600402016001016040518363ffffffff1660e01b81526004016104ff929190611c38565b602060405180830381865af415801561051c573d6000803e3d6000fd5b505050506040513d601f19601f820116820180604052508101906105409190611a1f565b156106c557600260016002805490506105599190611d4c565b8154811061056a57610569611ac9565b5b90600052602060002090600402016002828154811061058c5761058b611ac9565b5b906000526020600020906004020160008201816000019080546105ae90611b71565b6105b9929190611309565b5060018201816001019080546105ce90611b71565b6105d9929190611309565b5060028201816002019080546105ee90611b71565b6105f9929190611309565b50600382018160030190805461060e90611b71565b610619929190611309565b50905050600280548061062f5761062e611d80565b5b6001900381819060005260206000209060040201600080820160006106549190611396565b6001820160006106649190611396565b6002820160006106749190611396565b6003820160006106849190611396565b505090557f27f9981adbb77f566891384ccf45dfc4e53ca5fad3101a2340b56d5e59a9e738826040516106b79190611d2a565b60405180910390a15061070f565b806106cf90611ca8565b9050610495565b507f57c4cb08acb6043b190301c8190dd4be49d068b92f6f12aacca49f7e267b18d9816040516107069190611d2a565b60405180910390a15b50565b600160009054906101000a900473ffffffffffffffffffffffffffffffffffffffff1673ffffffffffffffffffffffffffffffffffffffff16630a2eb301336040518263ffffffff1660e01b815260040161076d91906119cc565b602060405180830381865afa15801561078a573d6000803e3d6000fd5b505050506040513d601f19601f820116820180604052508101906107ae9190611a1f565b6107ed576040517f08c379a00000000000000000000000000000000000000000000000000000000081526004016107e490611aa9565b60405180910390fd5b60005b6002805490508110156108f05773__StringUtils___________________________6346bdca9a866002848154811061082c5761082b611ac9565b5b90600052602060002090600402016001016040518363ffffffff1660e01b815260040161085a929190611c38565b602060405180830381865af4158015610877573d6000803e3d6000fd5b505050506040513d601f19601f8201168201806040525081019061089b9190611a1f565b156108df577fd28fe8c227591c48ebc9c7198ee175132966aa055110b5d63f371ac41303948e84866040516108d1929190611daf565b60405180910390a1506109f7565b806108e990611ca8565b90506107f0565b50600060405180608001604052808581526020018681526020018481526020018381525090506002819080600181540180825580915050600190039060005260206000209060040201600090919091909150600082015181600001908051906020019061095e929190611283565b50602082015181600101908051906020019061097b929190611283565b506040820151816002019080519060200190610998929190611283565b5060608201518160030190805190602001906109b5929190611283565b5050507fcf2ff492e591cd1142313e7582b8bed831d19d5323fde5b0253e53ef79d4f6fb848685856040516109ed9493929190611de6565b60405180910390a1505b50505050565b600160009054906101000a900473ffffffffffffffffffffffffffffffffffffffff1673ffffffffffffffffffffffffffffffffffffffff16630a2eb301336040518263ffffffff1660e01b8152600401610a5891906119cc565b602060405180830381865afa158015610a75573d6000803e3d6000fd5b505050506040513d601f19601f82011682018060405250810190610a999190611a1f565b610ad8576040517f08c379a0000000000000000000000000000000000000000000000000000000008152600401610acf90611aa9565b60405180910390fd5b60005b600280549050811015610c155773__StringUtils___________________________6346bdca9a8460028481548110610b1757610b16611ac9565b5b90600052602060002090600402016001016040518363ffffffff1660e01b8152600401610b45929190611c38565b602060405180830381865af4158015610b62573d6000803e3d6000fd5b505050506040513d601f19601f82011682018060405250810190610b869190611a1f565b15610c04578160028281548110610ba057610b9f611ac9565b5b90600052602060002090600402016001019080519060200190610bc4929190611283565b507fd83b45636173a0381787f76b23f1bc100af83d2b6c101f49d3fcdde0a0ea5cb78383604051610bf6929190611daf565b60405180910390a150610c4e565b80610c0e90611ca8565b9050610adb565b507f57c4cb08acb6043b190301c8190dd4be49d068b92f6f12aacca49f7e267b18d982604051610c459190611d2a565b60405180910390a15b5050565b60606002805480602002602001604051908101604052809291908181526020016000905b82821015610ef05783829060005260206000209060040201604051806080016040529081600082018054610ca990611b71565b80601f0160208091040260200160405190810160405280929190818152602001828054610cd590611b71565b8015610d225780601f10610cf757610100808354040283529160200191610d22565b820191906000526020600020905b815481529060010190602001808311610d0557829003601f168201915b50505050508152602001600182018054610d3b90611b71565b80601f0160208091040260200160405190810160405280929190818152602001828054610d6790611b71565b8015610db45780601f10610d8957610100808354040283529160200191610db4565b820191906000526020600020905b815481529060010190602001808311610d9757829003601f168201915b50505050508152602001600282018054610dcd90611b71565b80601f0160208091040260200160405190810160405280929190818152602001828054610df990611b71565b8015610e465780601f10610e1b57610100808354040283529160200191610e46565b820191906000526020600020905b815481529060010190602001808311610e2957829003601f168201915b50505050508152602001600382018054610e5f90611b71565b80601f0160208091040260200160405190810160405280929190818152602001828054610e8b90611b71565b8015610ed85780601f10610ead57610100808354040283529160200191610ed8565b820191906000526020600020905b815481529060010190602001808311610ebb57829003601f168201915b50505050508152505081526020019060010190610c76565b50505050905090565b610f016113d6565b60005b6002805490508110156112425773__StringUtils___________________________6346bdca9a8460028481548110610f4057610f3f611ac9565b5b90600052602060002090600402016001016040518363ffffffff1660e01b8152600401610f6e929190611c38565b602060405180830381865af4158015610f8b573d6000803e3d6000fd5b505050506040513d601f19601f82011682018060405250810190610faf9190611a1f565b156112315760028181548110610fc857610fc7611ac9565b5b9060005260206000209060040201604051806080016040529081600082018054610ff190611b71565b80601f016020809104026020016040519081016040528092919081815260200182805461101d90611b71565b801561106a5780601f1061103f5761010080835404028352916020019161106a565b820191906000526020600020905b81548152906001019060200180831161104d57829003601f168201915b5050505050815260200160018201805461108390611b71565b80601f01602080910402602001604051908101604052809291908181526020018280546110af90611b71565b80156110fc5780601f106110d1576101008083540402835291602001916110fc565b820191906000526020600020905b8154815290600101906020018083116110df57829003601f168201915b5050505050815260200160028201805461111590611b71565b80601f016020809104026020016040519081016040528092919081815260200182805461114190611b71565b801561118e5780601f106111635761010080835404028352916020019161118e565b820191906000526020600020905b81548152906001019060200180831161117157829003601f168201915b505050505081526020016003820180546111a790611b71565b80601f01602080910402602001604051908101604052809291908181526020018280546111d390611b71565b80156112205780601f106111f557610100808354040283529160200191611220565b820191906000526020600020905b81548152906001019060200180831161120357829003601f168201915b50505050508152505091505061127e565b8061123b90611ca8565b9050610f04565b506040517f08c379a000000000000000000000000000000000000000000000000000000000815260040161127590611e93565b60405180910390fd5b919050565b82805461128f90611b71565b90600052602060002090601f0160209004810192826112b157600085556112f8565b82601f106112ca57805160ff19168380011785556112f8565b828001600101855582156112f8579182015b828111156112f75782518255916020019190600101906112dc565b5b50905061130591906113fe565b5090565b82805461131590611b71565b90600052602060002090601f0160209004810192826113375760008555611385565b82601f106113485780548555611385565b8280016001018555821561138557600052602060002091601f016020900482015b82811115611384578254825591600101919060010190611369565b5b50905061139291906113fe565b5090565b5080546113a290611b71565b6000825580601f106113b457506113d3565b601f0160209004906000526020600020908101906113d291906113fe565b5b50565b6040518060800160405280606081526020016060815260200160608152602001606081525090565b5b808211156114175760008160009055506001016113ff565b5090565b6000604051905090565b600080fd5b600080fd5b600080fd5b600080fd5b6000601f19601f8301169050919050565b7f4e487b7100000000000000000000000000000000000000000000000000000000600052604160045260246000fd5b61148282611439565b810181811067ffffffffffffffff821117156114a1576114a061144a565b5b80604052505050565b60006114b461141b565b90506114c08282611479565b919050565b600067ffffffffffffffff8211156114e0576114df61144a565b5b6114e982611439565b9050602081019050919050565b82818337600083830152505050565b6000611518611513846114c5565b6114aa565b90508281526020810184848401111561153457611533611434565b5b61153f8482856114f6565b509392505050565b600082601f83011261155c5761155b61142f565b5b813561156c848260208601611505565b91505092915050565b6000806000806080858703121561158f5761158e611425565b5b600085013567ffffffffffffffff8111156115ad576115ac61142a565b5b6115b987828801611547565b945050602085013567ffffffffffffffff8111156115da576115d961142a565b5b6115e687828801611547565b935050604085013567ffffffffffffffff8111156116075761160661142a565b5b61161387828801611547565b925050606085013567ffffffffffffffff8111156116345761163361142a565b5b61164087828801611547565b91505092959194509250565b60006020828403121561166257611661611425565b5b600082013567ffffffffffffffff8111156116805761167f61142a565b5b61168c84828501611547565b91505092915050565b600080604083850312156116ac576116ab611425565b5b600083013567ffffffffffffffff8111156116ca576116c961142a565b5b6116d685828601611547565b925050602083013567ffffffffffffffff8111156116f7576116f661142a565b5b61170385828601611547565b9150509250929050565b600081519050919050565b600082825260208201905092915050565b6000819050602082019050919050565b600081519050919050565b600082825260208201905092915050565b60005b83811015611773578082015181840152602081019050611758565b83811115611782576000848401525b50505050565b600061179382611739565b61179d8185611744565b93506117ad818560208601611755565b6117b681611439565b840191505092915050565b600060808301600083015184820360008601526117de8282611788565b915050602083015184820360208601526117f88282611788565b915050604083015184820360408601526118128282611788565b9150506060830151848203606086015261182c8282611788565b9150508091505092915050565b600061184583836117c1565b905092915050565b6000602082019050919050565b60006118658261170d565b61186f8185611718565b93508360208202850161188185611729565b8060005b858110156118bd578484038952815161189e8582611839565b94506118a98361184d565b925060208a01995050600181019050611885565b50829750879550505050505092915050565b600060208201905081810360008301526118e9818461185a565b905092915050565b6000608083016000830151848203600086015261190e8282611788565b915050602083015184820360208601526119288282611788565b915050604083015184820360408601526119428282611788565b9150506060830151848203606086015261195c8282611788565b9150508091505092915050565b6000602082019050818103600083015261198381846118f1565b905092915050565b600073ffffffffffffffffffffffffffffffffffffffff82169050919050565b60006119b68261198b565b9050919050565b6119c6816119ab565b82525050565b60006020820190506119e160008301846119bd565b92915050565b60008115159050919050565b6119fc816119e7565b8114611a0757600080fd5b50565b600081519050611a19816119f3565b92915050565b600060208284031215611a3557611a34611425565b5b6000611a4384828501611a0a565b91505092915050565b600082825260208201905092915050565b7f4e6f742041646d696e6973747261746f72000000000000000000000000000000600082015250565b6000611a93601183611a4c565b9150611a9e82611a5d565b602082019050919050565b60006020820190508181036000830152611ac281611a86565b9050919050565b7f4e487b7100000000000000000000000000000000000000000000000000000000600052603260045260246000fd5b600082825260208201905092915050565b6000611b1482611739565b611b1e8185611af8565b9350611b2e818560208601611755565b611b3781611439565b840191505092915050565b7f4e487b7100000000000000000000000000000000000000000000000000000000600052602260045260246000fd5b60006002820490506001821680611b8957607f821691505b60208210811415611b9d57611b9c611b42565b5b50919050565b60008190508160005260206000209050919050565b60008154611bc581611b71565b611bcf8186611af8565b94506001821660008114611bea5760018114611bfc57611c2f565b60ff1983168652602086019350611c2f565b611c0585611ba3565b60005b83811015611c2757815481890152600182019150602081019050611c08565b808801955050505b50505092915050565b60006040820190508181036000830152611c528185611b09565b90508181036020830152611c668184611bb8565b90509392505050565b7f4e487b7100000000000000000000000000000000000000000000000000000000600052601160045260246000fd5b6000819050919050565b6000611cb382611c9e565b91507fffffffffffffffffffffffffffffffffffffffffffffffffffffffffffffffff821415611ce657611ce5611c6f565b5b600182019050919050565b6000611cfc82611739565b611d068185611a4c565b9350611d16818560208601611755565b611d1f81611439565b840191505092915050565b60006020820190508181036000830152611d448184611cf1565b905092915050565b6000611d5782611c9e565b9150611d6283611c9e565b925082821015611d7557611d74611c6f565b5b828203905092915050565b7f4e487b7100000000000000000000000000000000000000000000000000000000600052603160045260246000fd5b60006040820190508181036000830152611dc98185611cf1565b90508181036020830152611ddd8184611cf1565b90509392505050565b60006080820190508181036000830152611e008187611cf1565b90508181036020830152611e148186611cf1565b90508181036040830152611e288185611cf1565b90508181036060830152611e3c8184611cf1565b905095945050505050565b7f526567696f6e206e6f7420666f756e6400000000000000000000000000000000600082015250565b6000611e7d601083611a4c565b9150611e8882611e47565b602082019050919050565b60006020820190508181036000830152611eac81611e70565b905091905056fea2646970667358221220fad79161f8503d84fd6ad7231fd4b823d65ef9b1f93bec6231181ed950c332e764736f6c634300080b0033",
  "immutableReferences": {},
  "source": "// SPDX-License-Identifier: UNLICENSED\npragma solidity ^0.8.0;\n\nimport \"./ElectionAdministrator.sol\";\nimport \"./util/StringUtils.sol\";\n\n//MAY NOT BE USED, take note\ncontract VotingRegions {\n    address[] private eligibleReferenceContracts; // eligible contracts that can modify the voting region, not used yet\n    ElectionAdministrator private administratorContract;\n    VotingRegion[] regions;\n\n    event RegionCreated(string regionName, string regionCode,string regionDescription, string RegionInformation);\n    event RegionAlreadyExists(string regionName, string regionCode);\n    event RegionCodeChanged(string oldCode, string newCode);\n    event RegionRemoved(string regionCode);\n    event RegionNotFound(string regionCode);\n\n    modifier adminOnly {\n        require(administratorContract.isAdministrator(msg.sender), \"Not Administrator\");\n        _;\n    }\n\n    constructor() {\n    }\n\n    struct VotingRegion {\n        string regionName;        // Name of Region\n        string regionCode;        // Codename abbreviation of Region (This must be unique)\n        string regionDescription; // Description of Region (if any)\n        string regionInformation; // Link (may be removed if unneeded)\n    }\n    \n    function createRegion (string memory regionCode, string memory regionName, string memory regionDescription, string memory regionInformation) public adminOnly {\n        for (uint i = 0; i < regions.length; ++i) {\n            if (StringUtils.equal(regionCode, regions[i].regionCode)) {\n                emit RegionAlreadyExists(regionName, regionCode);\n                return;\n            }\n        }\n        VotingRegion memory newRegion = VotingRegion(regionName, regionCode, regionDescription, regionInformation);\n        regions.push(newRegion);\n        emit RegionCreated(regionName, regionCode, regionDescription, regionInformation);\n\n    }\n\n    function getRegions() public view returns (VotingRegion[] memory) {\n        return regions;\n    }\n\n    function getRegion(string memory regionCode) public view returns (VotingRegion memory) {\n        for (uint i = 0; i < regions.length; ++i) {\n            if (StringUtils.equal(regionCode, regions[i].regionCode)) {\n                return regions[i];\n            }\n        }\n        revert(\"Region not found\");\n    }\n\n    function editRegion(string memory regionCode, string memory _regionName, string memory _regionDescription, string memory _regionInformation) public adminOnly {\n        for (uint i = 0; i < regions.length; ++i) {\n            if (StringUtils.equal(regionCode, regions[i].regionCode)) {\n                regions[i].regionName = _regionName;\n                regions[i].regionDescription = _regionDescription;\n                regions[i].regionInformation = _regionInformation;\n                return;\n            }\n        }\n        emit RegionNotFound(regionCode);\n    }\n\n    function editRegionCode(string memory oldCode, string memory newCode) public adminOnly {\n        for (uint i = 0; i < regions.length; ++i) {\n            if (StringUtils.equal(oldCode, regions[i].regionCode)) {\n                regions[i].regionCode = newCode;\n                emit RegionCodeChanged(oldCode, newCode);\n                return;\n            }\n        }\n        emit RegionNotFound(oldCode);\n    }\n\n    function deleteRegion(string memory regionCode) public adminOnly {\n        for (uint i = 0; i < regions.length; ++i) {\n            if (StringUtils.equal(regionCode, regions[i].regionCode)) {\n                //Unordered Pop\n                regions[i] = regions[regions.length - 1];\n                regions.pop();\n                emit RegionRemoved(regionCode);\n                return;\n            }\n        }\n        emit RegionNotFound(regionCode);\n    }\n}",
  "sourcePath": "/Users/USER/Library/Mobile Documents/com~apple~CloudDocs/school/IS4302/project/IS4302/contracts/VotingRegions.sol",
  "compiler": {
    "name": "solc",
    "version": "0.8.11+commit.d7f03943.Emscripten.clang"
  },
  "schemaVersion": "3.4.4",
  "updatedAt": "2022-04-06T04:30:17.476Z",
  "devdoc": {
    "kind": "dev",
    "methods": {},
    "version": 1
  },
  "userdoc": {
    "kind": "user",
    "methods": {},
    "version": 1
  }
}